{
  "contracts/YearnBridge.sol": {
    "YearnBridge": {
      "abi": [
        {
          "inputs": [
            {
              "internalType": "address",
              "name": "_rollupProcessor",
              "type": "address"
            },
            {
              "internalType": "address",
              "name": "_vaultAddress",
              "type": "address"
            }
          ],
          "stateMutability": "nonpayable",
          "type": "constructor"
        },
        {
          "inputs": [
            {
              "internalType": "uint256",
              "name": "",
              "type": "uint256"
            }
          ],
          "name": "canFinalise",
          "outputs": [
            {
              "internalType": "bool",
              "name": "",
              "type": "bool"
            }
          ],
          "stateMutability": "view",
          "type": "function"
        },
        {
          "inputs": [
            {
              "components": [
                {
                  "internalType": "uint256",
                  "name": "id",
                  "type": "uint256"
                },
                {
                  "internalType": "address",
                  "name": "erc20Address",
                  "type": "address"
                },
                {
                  "internalType": "enum Types.AztecAssetType",
                  "name": "assetType",
                  "type": "uint8"
                }
              ],
              "internalType": "struct Types.AztecAsset",
              "name": "inputAssetA",
              "type": "tuple"
            },
            {
              "components": [
                {
                  "internalType": "uint256",
                  "name": "id",
                  "type": "uint256"
                },
                {
                  "internalType": "address",
                  "name": "erc20Address",
                  "type": "address"
                },
                {
                  "internalType": "enum Types.AztecAssetType",
                  "name": "assetType",
                  "type": "uint8"
                }
              ],
              "internalType": "struct Types.AztecAsset",
              "name": "",
              "type": "tuple"
            },
            {
              "components": [
                {
                  "internalType": "uint256",
                  "name": "id",
                  "type": "uint256"
                },
                {
                  "internalType": "address",
                  "name": "erc20Address",
                  "type": "address"
                },
                {
                  "internalType": "enum Types.AztecAssetType",
                  "name": "assetType",
                  "type": "uint8"
                }
              ],
              "internalType": "struct Types.AztecAsset",
              "name": "outputAssetA",
              "type": "tuple"
            },
            {
              "components": [
                {
                  "internalType": "uint256",
                  "name": "id",
                  "type": "uint256"
                },
                {
                  "internalType": "address",
                  "name": "erc20Address",
                  "type": "address"
                },
                {
                  "internalType": "enum Types.AztecAssetType",
                  "name": "assetType",
                  "type": "uint8"
                }
              ],
              "internalType": "struct Types.AztecAsset",
              "name": "",
              "type": "tuple"
            },
            {
              "internalType": "uint256",
              "name": "inputValue",
              "type": "uint256"
            },
            {
              "internalType": "uint256",
              "name": "",
              "type": "uint256"
            },
            {
              "internalType": "uint64",
              "name": "",
              "type": "uint64"
            }
          ],
          "name": "convert",
          "outputs": [
            {
              "internalType": "uint256",
              "name": "outputValueA",
              "type": "uint256"
            },
            {
              "internalType": "uint256",
              "name": "",
              "type": "uint256"
            },
            {
              "internalType": "bool",
              "name": "isAsync",
              "type": "bool"
            }
          ],
          "stateMutability": "payable",
          "type": "function"
        },
        {
          "inputs": [],
          "name": "daiAddress",
          "outputs": [
            {
              "internalType": "address",
              "name": "",
              "type": "address"
            }
          ],
          "stateMutability": "view",
          "type": "function"
        },
        {
          "inputs": [
            {
              "components": [
                {
                  "internalType": "uint256",
                  "name": "id",
                  "type": "uint256"
                },
                {
                  "internalType": "address",
                  "name": "erc20Address",
                  "type": "address"
                },
                {
                  "internalType": "enum Types.AztecAssetType",
                  "name": "assetType",
                  "type": "uint8"
                }
              ],
              "internalType": "struct Types.AztecAsset",
              "name": "",
              "type": "tuple"
            },
            {
              "components": [
                {
                  "internalType": "uint256",
                  "name": "id",
                  "type": "uint256"
                },
                {
                  "internalType": "address",
                  "name": "erc20Address",
                  "type": "address"
                },
                {
                  "internalType": "enum Types.AztecAssetType",
                  "name": "assetType",
                  "type": "uint8"
                }
              ],
              "internalType": "struct Types.AztecAsset",
              "name": "",
              "type": "tuple"
            },
            {
              "components": [
                {
                  "internalType": "uint256",
                  "name": "id",
                  "type": "uint256"
                },
                {
                  "internalType": "address",
                  "name": "erc20Address",
                  "type": "address"
                },
                {
                  "internalType": "enum Types.AztecAssetType",
                  "name": "assetType",
                  "type": "uint8"
                }
              ],
              "internalType": "struct Types.AztecAsset",
              "name": "",
              "type": "tuple"
            },
            {
              "components": [
                {
                  "internalType": "uint256",
                  "name": "id",
                  "type": "uint256"
                },
                {
                  "internalType": "address",
                  "name": "erc20Address",
                  "type": "address"
                },
                {
                  "internalType": "enum Types.AztecAssetType",
                  "name": "assetType",
                  "type": "uint8"
                }
              ],
              "internalType": "struct Types.AztecAsset",
              "name": "",
              "type": "tuple"
            },
            {
              "internalType": "uint256",
              "name": "",
              "type": "uint256"
            },
            {
              "internalType": "uint64",
              "name": "",
              "type": "uint64"
            }
          ],
          "name": "finalise",
          "outputs": [
            {
              "internalType": "uint256",
              "name": "",
              "type": "uint256"
            },
            {
              "internalType": "uint256",
              "name": "",
              "type": "uint256"
            }
          ],
          "stateMutability": "payable",
          "type": "function"
        },
        {
          "inputs": [],
          "name": "rollupProcessor",
          "outputs": [
            {
              "internalType": "address",
              "name": "",
              "type": "address"
            }
          ],
          "stateMutability": "view",
          "type": "function"
        },
        {
          "inputs": [],
          "name": "yvdaiAddress",
          "outputs": [
            {
              "internalType": "address",
              "name": "",
              "type": "address"
            }
          ],
          "stateMutability": "view",
          "type": "function"
        },
        {
          "stateMutability": "payable",
          "type": "receive"
        }
      ],
      "evm": {
        "bytecode": {
          "linkReferences": {},
          "object": "60e0604052736b175474e89094c44da98b954eedeac495271d0f73ffffffffffffffffffffffffffffffffffffffff1660a09073ffffffffffffffffffffffffffffffffffffffff1660601b81525073da816459f1ab5631232fe5e97a05bbbb94970c9573ffffffffffffffffffffffffffffffffffffffff1660c09073ffffffffffffffffffffffffffffffffffffffff1660601b8152503480156100a457600080fd5b50604051610af5380380610af583398181016040528101906100c69190610119565b8173ffffffffffffffffffffffffffffffffffffffff1660808173ffffffffffffffffffffffffffffffffffffffff1660601b81525050505061019e565b60008151905061011381610187565b92915050565b6000806040838503121561012c57600080fd5b600061013a85828601610104565b925050602061014b85828601610104565b9150509250929050565b600061016082610167565b9050919050565b600073ffffffffffffffffffffffffffffffffffffffff82169050919050565b61019081610155565b811461019b57600080fd5b50565b60805160601c60a05160601c60c05160601c6109036101f2600039600081816101ac01526102670152600061047a015260008181610188015281816101d50152818161030301526103d101526109036000f3fe6080604052600436106100595760003560e01c80632a113d6e146100655780632c387275146100905780635254162b146100bb5780637224f4eb146100ed5780639696e90c1461012a5780639b07d3421461015557610060565b3661006057005b600080fd5b34801561007157600080fd5b5061007a610186565b604051610087919061073c565b60405180910390f35b34801561009c57600080fd5b506100a56101aa565b6040516100b2919061073c565b60405180910390f35b6100d560048036038101906100d0919061054d565b6101ce565b6040516100e4939291906107e4565b60405180910390f35b3480156100f957600080fd5b50610114600480360381019061010f919061067d565b610471565b6040516101219190610757565b60405180910390f35b34801561013657600080fd5b5061013f610478565b60405161014c919061073c565b60405180910390f35b61016f600480360381019061016a91906105f0565b61049c565b60405161017d9291906107bb565b60405180910390f35b7f000000000000000000000000000000000000000000000000000000000000000081565b7f000000000000000000000000000000000000000000000000000000000000000081565b60008060007f000000000000000000000000000000000000000000000000000000000000000073ffffffffffffffffffffffffffffffffffffffff163373ffffffffffffffffffffffffffffffffffffffff1614610261576040517f08c379a000000000000000000000000000000000000000000000000000000000815260040161025890610772565b60405180910390fd5b600090507f000000000000000000000000000000000000000000000000000000000000000073ffffffffffffffffffffffffffffffffffffffff168a60200160208101906102af9190610524565b73ffffffffffffffffffffffffffffffffffffffff16141561039a5760008860200160208101906102e09190610524565b905060008173ffffffffffffffffffffffffffffffffffffffff16636e553f65897f00000000000000000000000000000000000000000000000000000000000000006040518363ffffffff1660e01b815260040161033f929190610792565b602060405180830381600087803b15801561035957600080fd5b505af115801561036d573d6000803e3d6000fd5b505050506040513d601f19601f8201168201806040525081019061039191906106a6565b90505050610464565b60008a60200160208101906103af9190610524565b905060008173ffffffffffffffffffffffffffffffffffffffff1662f714ce897f00000000000000000000000000000000000000000000000000000000000000006040518363ffffffff1660e01b815260040161040d929190610792565b602060405180830381600087803b15801561042757600080fd5b505af115801561043b573d6000803e3d6000fd5b505050506040513d601f19601f8201168201806040525081019061045f91906106a6565b905050505b9750975097945050505050565b6000919050565b7f000000000000000000000000000000000000000000000000000000000000000081565b60008060006104aa57600080fd5b965096945050505050565b6000813590506104c481610888565b92915050565b6000606082840312156104dc57600080fd5b81905092915050565b6000813590506104f48161089f565b92915050565b6000815190506105098161089f565b92915050565b60008135905061051e816108b6565b92915050565b60006020828403121561053657600080fd5b6000610544848285016104b5565b91505092915050565b60008060008060008060006101e0888a03121561056957600080fd5b60006105778a828b016104ca565b97505060606105888a828b016104ca565b96505060c06105998a828b016104ca565b9550506101206105ab8a828b016104ca565b9450506101806105bd8a828b016104e5565b9350506101a06105cf8a828b016104e5565b9250506101c06105e18a828b0161050f565b91505092959891949750929550565b6000806000806000806101c0878903121561060a57600080fd5b600061061889828a016104ca565b965050606061062989828a016104ca565b95505060c061063a89828a016104ca565b94505061012061064c89828a016104ca565b93505061018061065e89828a016104e5565b9250506101a061067089828a0161050f565b9150509295509295509295565b60006020828403121561068f57600080fd5b600061069d848285016104e5565b91505092915050565b6000602082840312156106b857600080fd5b60006106c6848285016104fa565b91505092915050565b6106d88161082c565b82525050565b6106e78161083e565b82525050565b60006106fa601b8361081b565b91507f596561726e4272646967653a20494e56414c49445f43414c4c455200000000006000830152602082019050919050565b6107368161086a565b82525050565b600060208201905061075160008301846106cf565b92915050565b600060208201905061076c60008301846106de565b92915050565b6000602082019050818103600083015261078b816106ed565b9050919050565b60006040820190506107a7600083018561072d565b6107b460208301846106cf565b9392505050565b60006040820190506107d0600083018561072d565b6107dd602083018461072d565b9392505050565b60006060820190506107f9600083018661072d565b610806602083018561072d565b61081360408301846106de565b949350505050565b600082825260208201905092915050565b60006108378261084a565b9050919050565b60008115159050919050565b600073ffffffffffffffffffffffffffffffffffffffff82169050919050565b6000819050919050565b600067ffffffffffffffff82169050919050565b6108918161082c565b811461089c57600080fd5b50565b6108a88161086a565b81146108b357600080fd5b50565b6108bf81610874565b81146108ca57600080fd5b5056fea26469706673582212201c897ecf6e7cccb3b693089719406e2bf98724b57dbd7c2ca4292a78806cb38b64736f6c63430008000033",
          "opcodes": "PUSH1 0xE0 PUSH1 0x40 MSTORE PUSH20 0x6B175474E89094C44DA98B954EEDEAC495271D0F PUSH20 0xFFFFFFFFFFFFFFFFFFFFFFFFFFFFFFFFFFFFFFFF AND PUSH1 0xA0 SWAP1 PUSH20 0xFFFFFFFFFFFFFFFFFFFFFFFFFFFFFFFFFFFFFFFF AND PUSH1 0x60 SHL DUP2 MSTORE POP PUSH20 0xDA816459F1AB5631232FE5E97A05BBBB94970C95 PUSH20 0xFFFFFFFFFFFFFFFFFFFFFFFFFFFFFFFFFFFFFFFF AND PUSH1 0xC0 SWAP1 PUSH20 0xFFFFFFFFFFFFFFFFFFFFFFFFFFFFFFFFFFFFFFFF AND PUSH1 0x60 SHL DUP2 MSTORE POP CALLVALUE DUP1 ISZERO PUSH2 0xA4 JUMPI PUSH1 0x0 DUP1 REVERT JUMPDEST POP PUSH1 0x40 MLOAD PUSH2 0xAF5 CODESIZE SUB DUP1 PUSH2 0xAF5 DUP4 CODECOPY DUP2 DUP2 ADD PUSH1 0x40 MSTORE DUP2 ADD SWAP1 PUSH2 0xC6 SWAP2 SWAP1 PUSH2 0x119 JUMP JUMPDEST DUP2 PUSH20 0xFFFFFFFFFFFFFFFFFFFFFFFFFFFFFFFFFFFFFFFF AND PUSH1 0x80 DUP2 PUSH20 0xFFFFFFFFFFFFFFFFFFFFFFFFFFFFFFFFFFFFFFFF AND PUSH1 0x60 SHL DUP2 MSTORE POP POP POP POP PUSH2 0x19E JUMP JUMPDEST PUSH1 0x0 DUP2 MLOAD SWAP1 POP PUSH2 0x113 DUP2 PUSH2 0x187 JUMP JUMPDEST SWAP3 SWAP2 POP POP JUMP JUMPDEST PUSH1 0x0 DUP1 PUSH1 0x40 DUP4 DUP6 SUB SLT ISZERO PUSH2 0x12C JUMPI PUSH1 0x0 DUP1 REVERT JUMPDEST PUSH1 0x0 PUSH2 0x13A DUP6 DUP3 DUP7 ADD PUSH2 0x104 JUMP JUMPDEST SWAP3 POP POP PUSH1 0x20 PUSH2 0x14B DUP6 DUP3 DUP7 ADD PUSH2 0x104 JUMP JUMPDEST SWAP2 POP POP SWAP3 POP SWAP3 SWAP1 POP JUMP JUMPDEST PUSH1 0x0 PUSH2 0x160 DUP3 PUSH2 0x167 JUMP JUMPDEST SWAP1 POP SWAP2 SWAP1 POP JUMP JUMPDEST PUSH1 0x0 PUSH20 0xFFFFFFFFFFFFFFFFFFFFFFFFFFFFFFFFFFFFFFFF DUP3 AND SWAP1 POP SWAP2 SWAP1 POP JUMP JUMPDEST PUSH2 0x190 DUP2 PUSH2 0x155 JUMP JUMPDEST DUP2 EQ PUSH2 0x19B JUMPI PUSH1 0x0 DUP1 REVERT JUMPDEST POP JUMP JUMPDEST PUSH1 0x80 MLOAD PUSH1 0x60 SHR PUSH1 0xA0 MLOAD PUSH1 0x60 SHR PUSH1 0xC0 MLOAD PUSH1 0x60 SHR PUSH2 0x903 PUSH2 0x1F2 PUSH1 0x0 CODECOPY PUSH1 0x0 DUP2 DUP2 PUSH2 0x1AC ADD MSTORE PUSH2 0x267 ADD MSTORE PUSH1 0x0 PUSH2 0x47A ADD MSTORE PUSH1 0x0 DUP2 DUP2 PUSH2 0x188 ADD MSTORE DUP2 DUP2 PUSH2 0x1D5 ADD MSTORE DUP2 DUP2 PUSH2 0x303 ADD MSTORE PUSH2 0x3D1 ADD MSTORE PUSH2 0x903 PUSH1 0x0 RETURN INVALID PUSH1 0x80 PUSH1 0x40 MSTORE PUSH1 0x4 CALLDATASIZE LT PUSH2 0x59 JUMPI PUSH1 0x0 CALLDATALOAD PUSH1 0xE0 SHR DUP1 PUSH4 0x2A113D6E EQ PUSH2 0x65 JUMPI DUP1 PUSH4 0x2C387275 EQ PUSH2 0x90 JUMPI DUP1 PUSH4 0x5254162B EQ PUSH2 0xBB JUMPI DUP1 PUSH4 0x7224F4EB EQ PUSH2 0xED JUMPI DUP1 PUSH4 0x9696E90C EQ PUSH2 0x12A JUMPI DUP1 PUSH4 0x9B07D342 EQ PUSH2 0x155 JUMPI PUSH2 0x60 JUMP JUMPDEST CALLDATASIZE PUSH2 0x60 JUMPI STOP JUMPDEST PUSH1 0x0 DUP1 REVERT JUMPDEST CALLVALUE DUP1 ISZERO PUSH2 0x71 JUMPI PUSH1 0x0 DUP1 REVERT JUMPDEST POP PUSH2 0x7A PUSH2 0x186 JUMP JUMPDEST PUSH1 0x40 MLOAD PUSH2 0x87 SWAP2 SWAP1 PUSH2 0x73C JUMP JUMPDEST PUSH1 0x40 MLOAD DUP1 SWAP2 SUB SWAP1 RETURN JUMPDEST CALLVALUE DUP1 ISZERO PUSH2 0x9C JUMPI PUSH1 0x0 DUP1 REVERT JUMPDEST POP PUSH2 0xA5 PUSH2 0x1AA JUMP JUMPDEST PUSH1 0x40 MLOAD PUSH2 0xB2 SWAP2 SWAP1 PUSH2 0x73C JUMP JUMPDEST PUSH1 0x40 MLOAD DUP1 SWAP2 SUB SWAP1 RETURN JUMPDEST PUSH2 0xD5 PUSH1 0x4 DUP1 CALLDATASIZE SUB DUP2 ADD SWAP1 PUSH2 0xD0 SWAP2 SWAP1 PUSH2 0x54D JUMP JUMPDEST PUSH2 0x1CE JUMP JUMPDEST PUSH1 0x40 MLOAD PUSH2 0xE4 SWAP4 SWAP3 SWAP2 SWAP1 PUSH2 0x7E4 JUMP JUMPDEST PUSH1 0x40 MLOAD DUP1 SWAP2 SUB SWAP1 RETURN JUMPDEST CALLVALUE DUP1 ISZERO PUSH2 0xF9 JUMPI PUSH1 0x0 DUP1 REVERT JUMPDEST POP PUSH2 0x114 PUSH1 0x4 DUP1 CALLDATASIZE SUB DUP2 ADD SWAP1 PUSH2 0x10F SWAP2 SWAP1 PUSH2 0x67D JUMP JUMPDEST PUSH2 0x471 JUMP JUMPDEST PUSH1 0x40 MLOAD PUSH2 0x121 SWAP2 SWAP1 PUSH2 0x757 JUMP JUMPDEST PUSH1 0x40 MLOAD DUP1 SWAP2 SUB SWAP1 RETURN JUMPDEST CALLVALUE DUP1 ISZERO PUSH2 0x136 JUMPI PUSH1 0x0 DUP1 REVERT JUMPDEST POP PUSH2 0x13F PUSH2 0x478 JUMP JUMPDEST PUSH1 0x40 MLOAD PUSH2 0x14C SWAP2 SWAP1 PUSH2 0x73C JUMP JUMPDEST PUSH1 0x40 MLOAD DUP1 SWAP2 SUB SWAP1 RETURN JUMPDEST PUSH2 0x16F PUSH1 0x4 DUP1 CALLDATASIZE SUB DUP2 ADD SWAP1 PUSH2 0x16A SWAP2 SWAP1 PUSH2 0x5F0 JUMP JUMPDEST PUSH2 0x49C JUMP JUMPDEST PUSH1 0x40 MLOAD PUSH2 0x17D SWAP3 SWAP2 SWAP1 PUSH2 0x7BB JUMP JUMPDEST PUSH1 0x40 MLOAD DUP1 SWAP2 SUB SWAP1 RETURN JUMPDEST PUSH32 0x0 DUP2 JUMP JUMPDEST PUSH32 0x0 DUP2 JUMP JUMPDEST PUSH1 0x0 DUP1 PUSH1 0x0 PUSH32 0x0 PUSH20 0xFFFFFFFFFFFFFFFFFFFFFFFFFFFFFFFFFFFFFFFF AND CALLER PUSH20 0xFFFFFFFFFFFFFFFFFFFFFFFFFFFFFFFFFFFFFFFF AND EQ PUSH2 0x261 JUMPI PUSH1 0x40 MLOAD PUSH32 0x8C379A000000000000000000000000000000000000000000000000000000000 DUP2 MSTORE PUSH1 0x4 ADD PUSH2 0x258 SWAP1 PUSH2 0x772 JUMP JUMPDEST PUSH1 0x40 MLOAD DUP1 SWAP2 SUB SWAP1 REVERT JUMPDEST PUSH1 0x0 SWAP1 POP PUSH32 0x0 PUSH20 0xFFFFFFFFFFFFFFFFFFFFFFFFFFFFFFFFFFFFFFFF AND DUP11 PUSH1 0x20 ADD PUSH1 0x20 DUP2 ADD SWAP1 PUSH2 0x2AF SWAP2 SWAP1 PUSH2 0x524 JUMP JUMPDEST PUSH20 0xFFFFFFFFFFFFFFFFFFFFFFFFFFFFFFFFFFFFFFFF AND EQ ISZERO PUSH2 0x39A JUMPI PUSH1 0x0 DUP9 PUSH1 0x20 ADD PUSH1 0x20 DUP2 ADD SWAP1 PUSH2 0x2E0 SWAP2 SWAP1 PUSH2 0x524 JUMP JUMPDEST SWAP1 POP PUSH1 0x0 DUP2 PUSH20 0xFFFFFFFFFFFFFFFFFFFFFFFFFFFFFFFFFFFFFFFF AND PUSH4 0x6E553F65 DUP10 PUSH32 0x0 PUSH1 0x40 MLOAD DUP4 PUSH4 0xFFFFFFFF AND PUSH1 0xE0 SHL DUP2 MSTORE PUSH1 0x4 ADD PUSH2 0x33F SWAP3 SWAP2 SWAP1 PUSH2 0x792 JUMP JUMPDEST PUSH1 0x20 PUSH1 0x40 MLOAD DUP1 DUP4 SUB DUP2 PUSH1 0x0 DUP8 DUP1 EXTCODESIZE ISZERO DUP1 ISZERO PUSH2 0x359 JUMPI PUSH1 0x0 DUP1 REVERT JUMPDEST POP GAS CALL ISZERO DUP1 ISZERO PUSH2 0x36D JUMPI RETURNDATASIZE PUSH1 0x0 DUP1 RETURNDATACOPY RETURNDATASIZE PUSH1 0x0 REVERT JUMPDEST POP POP POP POP PUSH1 0x40 MLOAD RETURNDATASIZE PUSH1 0x1F NOT PUSH1 0x1F DUP3 ADD AND DUP3 ADD DUP1 PUSH1 0x40 MSTORE POP DUP2 ADD SWAP1 PUSH2 0x391 SWAP2 SWAP1 PUSH2 0x6A6 JUMP JUMPDEST SWAP1 POP POP POP PUSH2 0x464 JUMP JUMPDEST PUSH1 0x0 DUP11 PUSH1 0x20 ADD PUSH1 0x20 DUP2 ADD SWAP1 PUSH2 0x3AF SWAP2 SWAP1 PUSH2 0x524 JUMP JUMPDEST SWAP1 POP PUSH1 0x0 DUP2 PUSH20 0xFFFFFFFFFFFFFFFFFFFFFFFFFFFFFFFFFFFFFFFF AND PUSH3 0xF714CE DUP10 PUSH32 0x0 PUSH1 0x40 MLOAD DUP4 PUSH4 0xFFFFFFFF AND PUSH1 0xE0 SHL DUP2 MSTORE PUSH1 0x4 ADD PUSH2 0x40D SWAP3 SWAP2 SWAP1 PUSH2 0x792 JUMP JUMPDEST PUSH1 0x20 PUSH1 0x40 MLOAD DUP1 DUP4 SUB DUP2 PUSH1 0x0 DUP8 DUP1 EXTCODESIZE ISZERO DUP1 ISZERO PUSH2 0x427 JUMPI PUSH1 0x0 DUP1 REVERT JUMPDEST POP GAS CALL ISZERO DUP1 ISZERO PUSH2 0x43B JUMPI RETURNDATASIZE PUSH1 0x0 DUP1 RETURNDATACOPY RETURNDATASIZE PUSH1 0x0 REVERT JUMPDEST POP POP POP POP PUSH1 0x40 MLOAD RETURNDATASIZE PUSH1 0x1F NOT PUSH1 0x1F DUP3 ADD AND DUP3 ADD DUP1 PUSH1 0x40 MSTORE POP DUP2 ADD SWAP1 PUSH2 0x45F SWAP2 SWAP1 PUSH2 0x6A6 JUMP JUMPDEST SWAP1 POP POP POP JUMPDEST SWAP8 POP SWAP8 POP SWAP8 SWAP5 POP POP POP POP POP JUMP JUMPDEST PUSH1 0x0 SWAP2 SWAP1 POP JUMP JUMPDEST PUSH32 0x0 DUP2 JUMP JUMPDEST PUSH1 0x0 DUP1 PUSH1 0x0 PUSH2 0x4AA JUMPI PUSH1 0x0 DUP1 REVERT JUMPDEST SWAP7 POP SWAP7 SWAP5 POP POP POP POP POP JUMP JUMPDEST PUSH1 0x0 DUP2 CALLDATALOAD SWAP1 POP PUSH2 0x4C4 DUP2 PUSH2 0x888 JUMP JUMPDEST SWAP3 SWAP2 POP POP JUMP JUMPDEST PUSH1 0x0 PUSH1 0x60 DUP3 DUP5 SUB SLT ISZERO PUSH2 0x4DC JUMPI PUSH1 0x0 DUP1 REVERT JUMPDEST DUP2 SWAP1 POP SWAP3 SWAP2 POP POP JUMP JUMPDEST PUSH1 0x0 DUP2 CALLDATALOAD SWAP1 POP PUSH2 0x4F4 DUP2 PUSH2 0x89F JUMP JUMPDEST SWAP3 SWAP2 POP POP JUMP JUMPDEST PUSH1 0x0 DUP2 MLOAD SWAP1 POP PUSH2 0x509 DUP2 PUSH2 0x89F JUMP JUMPDEST SWAP3 SWAP2 POP POP JUMP JUMPDEST PUSH1 0x0 DUP2 CALLDATALOAD SWAP1 POP PUSH2 0x51E DUP2 PUSH2 0x8B6 JUMP JUMPDEST SWAP3 SWAP2 POP POP JUMP JUMPDEST PUSH1 0x0 PUSH1 0x20 DUP3 DUP5 SUB SLT ISZERO PUSH2 0x536 JUMPI PUSH1 0x0 DUP1 REVERT JUMPDEST PUSH1 0x0 PUSH2 0x544 DUP5 DUP3 DUP6 ADD PUSH2 0x4B5 JUMP JUMPDEST SWAP2 POP POP SWAP3 SWAP2 POP POP JUMP JUMPDEST PUSH1 0x0 DUP1 PUSH1 0x0 DUP1 PUSH1 0x0 DUP1 PUSH1 0x0 PUSH2 0x1E0 DUP9 DUP11 SUB SLT ISZERO PUSH2 0x569 JUMPI PUSH1 0x0 DUP1 REVERT JUMPDEST PUSH1 0x0 PUSH2 0x577 DUP11 DUP3 DUP12 ADD PUSH2 0x4CA JUMP JUMPDEST SWAP8 POP POP PUSH1 0x60 PUSH2 0x588 DUP11 DUP3 DUP12 ADD PUSH2 0x4CA JUMP JUMPDEST SWAP7 POP POP PUSH1 0xC0 PUSH2 0x599 DUP11 DUP3 DUP12 ADD PUSH2 0x4CA JUMP JUMPDEST SWAP6 POP POP PUSH2 0x120 PUSH2 0x5AB DUP11 DUP3 DUP12 ADD PUSH2 0x4CA JUMP JUMPDEST SWAP5 POP POP PUSH2 0x180 PUSH2 0x5BD DUP11 DUP3 DUP12 ADD PUSH2 0x4E5 JUMP JUMPDEST SWAP4 POP POP PUSH2 0x1A0 PUSH2 0x5CF DUP11 DUP3 DUP12 ADD PUSH2 0x4E5 JUMP JUMPDEST SWAP3 POP POP PUSH2 0x1C0 PUSH2 0x5E1 DUP11 DUP3 DUP12 ADD PUSH2 0x50F JUMP JUMPDEST SWAP2 POP POP SWAP3 SWAP6 SWAP9 SWAP2 SWAP5 SWAP8 POP SWAP3 SWAP6 POP JUMP JUMPDEST PUSH1 0x0 DUP1 PUSH1 0x0 DUP1 PUSH1 0x0 DUP1 PUSH2 0x1C0 DUP8 DUP10 SUB SLT ISZERO PUSH2 0x60A JUMPI PUSH1 0x0 DUP1 REVERT JUMPDEST PUSH1 0x0 PUSH2 0x618 DUP10 DUP3 DUP11 ADD PUSH2 0x4CA JUMP JUMPDEST SWAP7 POP POP PUSH1 0x60 PUSH2 0x629 DUP10 DUP3 DUP11 ADD PUSH2 0x4CA JUMP JUMPDEST SWAP6 POP POP PUSH1 0xC0 PUSH2 0x63A DUP10 DUP3 DUP11 ADD PUSH2 0x4CA JUMP JUMPDEST SWAP5 POP POP PUSH2 0x120 PUSH2 0x64C DUP10 DUP3 DUP11 ADD PUSH2 0x4CA JUMP JUMPDEST SWAP4 POP POP PUSH2 0x180 PUSH2 0x65E DUP10 DUP3 DUP11 ADD PUSH2 0x4E5 JUMP JUMPDEST SWAP3 POP POP PUSH2 0x1A0 PUSH2 0x670 DUP10 DUP3 DUP11 ADD PUSH2 0x50F JUMP JUMPDEST SWAP2 POP POP SWAP3 SWAP6 POP SWAP3 SWAP6 POP SWAP3 SWAP6 JUMP JUMPDEST PUSH1 0x0 PUSH1 0x20 DUP3 DUP5 SUB SLT ISZERO PUSH2 0x68F JUMPI PUSH1 0x0 DUP1 REVERT JUMPDEST PUSH1 0x0 PUSH2 0x69D DUP5 DUP3 DUP6 ADD PUSH2 0x4E5 JUMP JUMPDEST SWAP2 POP POP SWAP3 SWAP2 POP POP JUMP JUMPDEST PUSH1 0x0 PUSH1 0x20 DUP3 DUP5 SUB SLT ISZERO PUSH2 0x6B8 JUMPI PUSH1 0x0 DUP1 REVERT JUMPDEST PUSH1 0x0 PUSH2 0x6C6 DUP5 DUP3 DUP6 ADD PUSH2 0x4FA JUMP JUMPDEST SWAP2 POP POP SWAP3 SWAP2 POP POP JUMP JUMPDEST PUSH2 0x6D8 DUP2 PUSH2 0x82C JUMP JUMPDEST DUP3 MSTORE POP POP JUMP JUMPDEST PUSH2 0x6E7 DUP2 PUSH2 0x83E JUMP JUMPDEST DUP3 MSTORE POP POP JUMP JUMPDEST PUSH1 0x0 PUSH2 0x6FA PUSH1 0x1B DUP4 PUSH2 0x81B JUMP JUMPDEST SWAP2 POP PUSH32 0x596561726E4272646967653A20494E56414C49445F43414C4C45520000000000 PUSH1 0x0 DUP4 ADD MSTORE PUSH1 0x20 DUP3 ADD SWAP1 POP SWAP2 SWAP1 POP JUMP JUMPDEST PUSH2 0x736 DUP2 PUSH2 0x86A JUMP JUMPDEST DUP3 MSTORE POP POP JUMP JUMPDEST PUSH1 0x0 PUSH1 0x20 DUP3 ADD SWAP1 POP PUSH2 0x751 PUSH1 0x0 DUP4 ADD DUP5 PUSH2 0x6CF JUMP JUMPDEST SWAP3 SWAP2 POP POP JUMP JUMPDEST PUSH1 0x0 PUSH1 0x20 DUP3 ADD SWAP1 POP PUSH2 0x76C PUSH1 0x0 DUP4 ADD DUP5 PUSH2 0x6DE JUMP JUMPDEST SWAP3 SWAP2 POP POP JUMP JUMPDEST PUSH1 0x0 PUSH1 0x20 DUP3 ADD SWAP1 POP DUP2 DUP2 SUB PUSH1 0x0 DUP4 ADD MSTORE PUSH2 0x78B DUP2 PUSH2 0x6ED JUMP JUMPDEST SWAP1 POP SWAP2 SWAP1 POP JUMP JUMPDEST PUSH1 0x0 PUSH1 0x40 DUP3 ADD SWAP1 POP PUSH2 0x7A7 PUSH1 0x0 DUP4 ADD DUP6 PUSH2 0x72D JUMP JUMPDEST PUSH2 0x7B4 PUSH1 0x20 DUP4 ADD DUP5 PUSH2 0x6CF JUMP JUMPDEST SWAP4 SWAP3 POP POP POP JUMP JUMPDEST PUSH1 0x0 PUSH1 0x40 DUP3 ADD SWAP1 POP PUSH2 0x7D0 PUSH1 0x0 DUP4 ADD DUP6 PUSH2 0x72D JUMP JUMPDEST PUSH2 0x7DD PUSH1 0x20 DUP4 ADD DUP5 PUSH2 0x72D JUMP JUMPDEST SWAP4 SWAP3 POP POP POP JUMP JUMPDEST PUSH1 0x0 PUSH1 0x60 DUP3 ADD SWAP1 POP PUSH2 0x7F9 PUSH1 0x0 DUP4 ADD DUP7 PUSH2 0x72D JUMP JUMPDEST PUSH2 0x806 PUSH1 0x20 DUP4 ADD DUP6 PUSH2 0x72D JUMP JUMPDEST PUSH2 0x813 PUSH1 0x40 DUP4 ADD DUP5 PUSH2 0x6DE JUMP JUMPDEST SWAP5 SWAP4 POP POP POP POP JUMP JUMPDEST PUSH1 0x0 DUP3 DUP3 MSTORE PUSH1 0x20 DUP3 ADD SWAP1 POP SWAP3 SWAP2 POP POP JUMP JUMPDEST PUSH1 0x0 PUSH2 0x837 DUP3 PUSH2 0x84A JUMP JUMPDEST SWAP1 POP SWAP2 SWAP1 POP JUMP JUMPDEST PUSH1 0x0 DUP2 ISZERO ISZERO SWAP1 POP SWAP2 SWAP1 POP JUMP JUMPDEST PUSH1 0x0 PUSH20 0xFFFFFFFFFFFFFFFFFFFFFFFFFFFFFFFFFFFFFFFF DUP3 AND SWAP1 POP SWAP2 SWAP1 POP JUMP JUMPDEST PUSH1 0x0 DUP2 SWAP1 POP SWAP2 SWAP1 POP JUMP JUMPDEST PUSH1 0x0 PUSH8 0xFFFFFFFFFFFFFFFF DUP3 AND SWAP1 POP SWAP2 SWAP1 POP JUMP JUMPDEST PUSH2 0x891 DUP2 PUSH2 0x82C JUMP JUMPDEST DUP2 EQ PUSH2 0x89C JUMPI PUSH1 0x0 DUP1 REVERT JUMPDEST POP JUMP JUMPDEST PUSH2 0x8A8 DUP2 PUSH2 0x86A JUMP JUMPDEST DUP2 EQ PUSH2 0x8B3 JUMPI PUSH1 0x0 DUP1 REVERT JUMPDEST POP JUMP JUMPDEST PUSH2 0x8BF DUP2 PUSH2 0x874 JUMP JUMPDEST DUP2 EQ PUSH2 0x8CA JUMPI PUSH1 0x0 DUP1 REVERT JUMPDEST POP JUMP INVALID LOG2 PUSH5 0x6970667358 0x22 SLT KECCAK256 SHR DUP10 PUSH31 0xCF6E7CCCB3B693089719406E2BF98724B57DBD7C2CA4292A78806CB38B6473 PUSH16 0x6C634300080000330000000000000000 "
        },
        "methodIdentifiers": {
          "canFinalise(uint256)": "7224f4eb",
          "convert((uint256,address,uint8),(uint256,address,uint8),(uint256,address,uint8),(uint256,address,uint8),uint256,uint256,uint64)": "5254162b",
          "daiAddress()": "2c387275",
          "finalise((uint256,address,uint8),(uint256,address,uint8),(uint256,address,uint8),(uint256,address,uint8),uint256,uint64)": "9b07d342",
          "rollupProcessor()": "2a113d6e",
          "yvdaiAddress()": "9696e90c"
        }
      }
    }
  }
}