{
  "contracts/DefiBridgeProxy.sol": {
    "DefiBridgeProxy": {
      "abi": [
        {
          "anonymous": false,
          "inputs": [
            {
              "indexed": true,
              "internalType": "address",
              "name": "bridgeAddress",
              "type": "address"
            },
            {
              "indexed": false,
              "internalType": "uint256",
              "name": "outputValueA",
              "type": "uint256"
            },
            {
              "indexed": false,
              "internalType": "uint256",
              "name": "outputValueB",
              "type": "uint256"
            },
            {
              "indexed": false,
              "internalType": "bool",
              "name": "isAsync",
              "type": "bool"
            }
          ],
          "name": "AztecBridgeInteraction",
          "type": "event"
        },
        {
          "inputs": [
            {
              "internalType": "address",
              "name": "bridgeAddress",
              "type": "address"
            },
            {
              "internalType": "uint256",
              "name": "interactionNonce",
              "type": "uint256"
            }
          ],
          "name": "canFinalise",
          "outputs": [
            {
              "internalType": "bool",
              "name": "ready",
              "type": "bool"
            }
          ],
          "stateMutability": "view",
          "type": "function"
        },
        {
          "inputs": [
            {
              "internalType": "address",
              "name": "bridgeAddress",
              "type": "address"
            },
            {
              "components": [
                {
                  "internalType": "uint256",
                  "name": "id",
                  "type": "uint256"
                },
                {
                  "internalType": "address",
                  "name": "erc20Address",
                  "type": "address"
                },
                {
                  "internalType": "enum Types.AztecAssetType",
                  "name": "assetType",
                  "type": "uint8"
                }
              ],
              "internalType": "struct Types.AztecAsset",
              "name": "inputAssetA",
              "type": "tuple"
            },
            {
              "components": [
                {
                  "internalType": "uint256",
                  "name": "id",
                  "type": "uint256"
                },
                {
                  "internalType": "address",
                  "name": "erc20Address",
                  "type": "address"
                },
                {
                  "internalType": "enum Types.AztecAssetType",
                  "name": "assetType",
                  "type": "uint8"
                }
              ],
              "internalType": "struct Types.AztecAsset",
              "name": "inputAssetB",
              "type": "tuple"
            },
            {
              "components": [
                {
                  "internalType": "uint256",
                  "name": "id",
                  "type": "uint256"
                },
                {
                  "internalType": "address",
                  "name": "erc20Address",
                  "type": "address"
                },
                {
                  "internalType": "enum Types.AztecAssetType",
                  "name": "assetType",
                  "type": "uint8"
                }
              ],
              "internalType": "struct Types.AztecAsset",
              "name": "outputAssetA",
              "type": "tuple"
            },
            {
              "components": [
                {
                  "internalType": "uint256",
                  "name": "id",
                  "type": "uint256"
                },
                {
                  "internalType": "address",
                  "name": "erc20Address",
                  "type": "address"
                },
                {
                  "internalType": "enum Types.AztecAssetType",
                  "name": "assetType",
                  "type": "uint8"
                }
              ],
              "internalType": "struct Types.AztecAsset",
              "name": "outputAssetB",
              "type": "tuple"
            },
            {
              "internalType": "uint256",
              "name": "totalInputValue",
              "type": "uint256"
            },
            {
              "internalType": "uint256",
              "name": "interactionNonce",
              "type": "uint256"
            },
            {
              "internalType": "uint256",
              "name": "auxInputData",
              "type": "uint256"
            }
          ],
          "name": "convert",
          "outputs": [
            {
              "internalType": "uint256",
              "name": "outputValueA",
              "type": "uint256"
            },
            {
              "internalType": "uint256",
              "name": "outputValueB",
              "type": "uint256"
            },
            {
              "internalType": "bool",
              "name": "isAsync",
              "type": "bool"
            }
          ],
          "stateMutability": "nonpayable",
          "type": "function"
        },
        {
          "inputs": [
            {
              "internalType": "address",
              "name": "bridgeAddress",
              "type": "address"
            },
            {
              "components": [
                {
                  "internalType": "uint256",
                  "name": "id",
                  "type": "uint256"
                },
                {
                  "internalType": "address",
                  "name": "erc20Address",
                  "type": "address"
                },
                {
                  "internalType": "enum Types.AztecAssetType",
                  "name": "assetType",
                  "type": "uint8"
                }
              ],
              "internalType": "struct Types.AztecAsset",
              "name": "inputAssetA",
              "type": "tuple"
            },
            {
              "components": [
                {
                  "internalType": "uint256",
                  "name": "id",
                  "type": "uint256"
                },
                {
                  "internalType": "address",
                  "name": "erc20Address",
                  "type": "address"
                },
                {
                  "internalType": "enum Types.AztecAssetType",
                  "name": "assetType",
                  "type": "uint8"
                }
              ],
              "internalType": "struct Types.AztecAsset",
              "name": "inputAssetB",
              "type": "tuple"
            },
            {
              "components": [
                {
                  "internalType": "uint256",
                  "name": "id",
                  "type": "uint256"
                },
                {
                  "internalType": "address",
                  "name": "erc20Address",
                  "type": "address"
                },
                {
                  "internalType": "enum Types.AztecAssetType",
                  "name": "assetType",
                  "type": "uint8"
                }
              ],
              "internalType": "struct Types.AztecAsset",
              "name": "outputAssetA",
              "type": "tuple"
            },
            {
              "components": [
                {
                  "internalType": "uint256",
                  "name": "id",
                  "type": "uint256"
                },
                {
                  "internalType": "address",
                  "name": "erc20Address",
                  "type": "address"
                },
                {
                  "internalType": "enum Types.AztecAssetType",
                  "name": "assetType",
                  "type": "uint8"
                }
              ],
              "internalType": "struct Types.AztecAsset",
              "name": "outputAssetB",
              "type": "tuple"
            },
            {
              "internalType": "uint256",
              "name": "interactionNonce",
              "type": "uint256"
            },
            {
              "internalType": "uint256",
              "name": "auxInputData",
              "type": "uint256"
            }
          ],
          "name": "finalise",
          "outputs": [
            {
              "internalType": "uint256",
              "name": "outputValueA",
              "type": "uint256"
            },
            {
              "internalType": "uint256",
              "name": "outputValueB",
              "type": "uint256"
            }
          ],
          "stateMutability": "nonpayable",
          "type": "function"
        },
        {
          "stateMutability": "payable",
          "type": "receive"
        }
      ],
      "evm": {
        "bytecode": {
          "linkReferences": {},
          "object": "608060405234801561001057600080fd5b506118c3806100206000396000f3fe6080604052600436106100385760003560e01c806379b5080f14610044578063cc07355714610081578063d9b5fb79146100bf5761003f565b3661003f57005b600080fd5b34801561005057600080fd5b5061006b60048036038101906100669190611213565b6100fe565b60405161007891906114ec565b60405180910390f35b34801561008d57600080fd5b506100a860048036038101906100a391906110bb565b610196565b6040516100b692919061165b565b60405180910390f35b3480156100cb57600080fd5b506100e660048036038101906100e1919061115d565b6107b5565b6040516100f593929190611684565b60405180910390f35b6000808390508073ffffffffffffffffffffffffffffffffffffffff16637224f4eb846040518263ffffffff1660e01b815260040161013d9190611640565b60206040518083038186803b15801561015557600080fd5b505afa158015610169573d6000803e3d6000fd5b505050506040513d601f19601f8201168201806040525081019061018d919061124f565b91505092915050565b6000806000806003808111156101d5577f4e487b7100000000000000000000000000000000000000000000000000000000600052602160045260246000fd5b8860400160208101906101e89190611278565b6003811115610220577f4e487b7100000000000000000000000000000000000000000000000000000000600052602160045260246000fd5b146102435761024088602001602081019061023b9190611092565b610f51565b91505b60038081111561027c577f4e487b7100000000000000000000000000000000000000000000000000000000600052602160045260246000fd5b87604001602081019061028f9190611278565b60038111156102c7577f4e487b7100000000000000000000000000000000000000000000000000000000600052602160045260246000fd5b146102ea576102e78760200160208101906102e29190611092565b610f51565b90505b60008b90508073ffffffffffffffffffffffffffffffffffffffff16637224f4eb886040518263ffffffff1660e01b81526004016103289190611640565b60206040518083038186803b15801561034057600080fd5b505afa158015610354573d6000803e3d6000fd5b505050506040513d601f19601f82011682018060405250810190610378919061124f565b6103b7576040517f08c379a00000000000000000000000000000000000000000000000000000000081526004016103ae90611527565b60405180910390fd5b8073ffffffffffffffffffffffffffffffffffffffff16639b07d3428c8c8c8c8c8c6040518763ffffffff1660e01b81526004016103fa969594939291906115db565b6040805180830381600087803b15801561041357600080fd5b505af1158015610427573d6000803e3d6000fd5b505050506040513d601f19601f8201168201806040525081019061044b91906112a1565b809550819650505060038081111561048c577f4e487b7100000000000000000000000000000000000000000000000000000000600052602160045260246000fd5b89604001602081019061049f9190611278565b60038111156104d7577f4e487b7100000000000000000000000000000000000000000000000000000000600052602160045260246000fd5b1415801561056857506000600381111561051a577f4e487b7100000000000000000000000000000000000000000000000000000000600052602160045260246000fd5b89604001602081019061052d9190611278565b6003811115610565577f4e487b7100000000000000000000000000000000000000000000000000000000600052602160045260246000fd5b14155b156105d35761059161058b8a60200160208101906105869190611092565b610f51565b84610fac565b85146105d2576040517f08c379a00000000000000000000000000000000000000000000000000000000081526004016105c990611547565b60405180910390fd5b5b60038081111561060c577f4e487b7100000000000000000000000000000000000000000000000000000000600052602160045260246000fd5b88604001602081019061061f9190611278565b6003811115610657577f4e487b7100000000000000000000000000000000000000000000000000000000600052602160045260246000fd5b141580156106e857506000600381111561069a577f4e487b7100000000000000000000000000000000000000000000000000000000600052602160045260246000fd5b8860400160208101906106ad9190611278565b60038111156106e5577f4e487b7100000000000000000000000000000000000000000000000000000000600052602160045260246000fd5b14155b156107535761071161070b8960200160208101906107069190611092565b610f51565b83610fac565b8414610752576040517f08c379a000000000000000000000000000000000000000000000000000000000815260040161074990611547565b60405180910390fd5b5b8b73ffffffffffffffffffffffffffffffffffffffff167f1f69dd4d25d71e16962ebbdc1534be51b469874ca1bc8cf79ab171635fddad488686600060405161079e93929190611684565b60405180910390a250505097509795505050505050565b6000806000600260038111156107f4577f4e487b7100000000000000000000000000000000000000000000000000000000600052602160045260246000fd5b8a60400160208101906108079190611278565b600381111561083f577f4e487b7100000000000000000000000000000000000000000000000000000000600052602160045260246000fd5b1415610863576108628a602001602081019061085b9190611092565b8c88610fc2565b5b6002600381111561089d577f4e487b7100000000000000000000000000000000000000000000000000000000600052602160045260246000fd5b8960400160208101906108b09190611278565b60038111156108e8577f4e487b7100000000000000000000000000000000000000000000000000000000600052602160045260246000fd5b141561090c5761090b8960200160208101906109049190611092565b8c88610fc2565b5b600080600380811115610948577f4e487b7100000000000000000000000000000000000000000000000000000000600052602160045260246000fd5b8a604001602081019061095b9190611278565b6003811115610993577f4e487b7100000000000000000000000000000000000000000000000000000000600052602160045260246000fd5b146109b6576109b38a60200160208101906109ae9190611092565b610f51565b91505b6003808111156109ef577f4e487b7100000000000000000000000000000000000000000000000000000000600052602160045260246000fd5b896040016020810190610a029190611278565b6003811115610a3a577f4e487b7100000000000000000000000000000000000000000000000000000000600052602160045260246000fd5b14610a5d57610a5a896020016020810190610a559190611092565b610f51565b90505b60008d90508073ffffffffffffffffffffffffffffffffffffffff16635254162b60016003811115610ab8577f4e487b7100000000000000000000000000000000000000000000000000000000600052602160045260246000fd5b8f6040016020810190610acb9190611278565b6003811115610b03577f4e487b7100000000000000000000000000000000000000000000000000000000600052602160045260246000fd5b14610b0f576000610b11565b8a5b8f8f8f8f8f8f8f6040518963ffffffff1660e01b8152600401610b3a9796959493929190611567565b6060604051808303818588803b158015610b5357600080fd5b505af1158015610b67573d6000803e3d6000fd5b50505050506040513d601f19601f82011682018060405250810190610b8c91906112dd565b809650819750829850505050600380811115610bd1577f4e487b7100000000000000000000000000000000000000000000000000000000600052602160045260246000fd5b8b6040016020810190610be49190611278565b6003811115610c1c577f4e487b7100000000000000000000000000000000000000000000000000000000600052602160045260246000fd5b14158015610cad575060006003811115610c5f577f4e487b7100000000000000000000000000000000000000000000000000000000600052602160045260246000fd5b8b6040016020810190610c729190611278565b6003811115610caa577f4e487b7100000000000000000000000000000000000000000000000000000000600052602160045260246000fd5b14155b15610d1857610cd6610cd08c6020016020810190610ccb9190611092565b610f51565b84610fac565b8614610d17576040517f08c379a0000000000000000000000000000000000000000000000000000000008152600401610d0e90611547565b60405180910390fd5b5b600380811115610d51577f4e487b7100000000000000000000000000000000000000000000000000000000600052602160045260246000fd5b8a6040016020810190610d649190611278565b6003811115610d9c577f4e487b7100000000000000000000000000000000000000000000000000000000600052602160045260246000fd5b14158015610e2d575060006003811115610ddf577f4e487b7100000000000000000000000000000000000000000000000000000000600052602160045260246000fd5b8a6040016020810190610df29190611278565b6003811115610e2a577f4e487b7100000000000000000000000000000000000000000000000000000000600052602160045260246000fd5b14155b15610e9857610e56610e508b6020016020810190610e4b9190611092565b610f51565b83610fac565b8514610e97576040517f08c379a0000000000000000000000000000000000000000000000000000000008152600401610e8e90611547565b60405180910390fd5b5b8315610eee57600086148015610eae5750600085145b610eed576040517f08c379a0000000000000000000000000000000000000000000000000000000008152600401610ee490611507565b60405180910390fd5b5b8d73ffffffffffffffffffffffffffffffffffffffff167f1f69dd4d25d71e16962ebbdc1534be51b469874ca1bc8cf79ab171635fddad48878787604051610f3893929190611684565b60405180910390a2505050985098509895505050505050565b600081610f5d57303190505b8115610fa7576040517f70a08231000000000000000000000000000000000000000000000000000000008152306004820152602081602483865afa610fa157600080fd5b80519150505b919050565b60008183610fba9190611711565b905092915050565b6040517fa9059cbb0000000000000000000000000000000000000000000000000000000081528260048201528160248201526000816044836000885af161100857600080fd5b50505050565b60008135905061101d81611838565b92915050565b6000815190506110328161184f565b92915050565b60008135905061104781611866565b92915050565b60006060828403121561105f57600080fd5b81905092915050565b60008135905061107781611876565b92915050565b60008151905061108c81611876565b92915050565b6000602082840312156110a457600080fd5b60006110b28482850161100e565b91505092915050565b60008060008060008060006101e0888a0312156110d757600080fd5b60006110e58a828b0161100e565b97505060206110f68a828b0161104d565b96505060806111078a828b0161104d565b95505060e06111188a828b0161104d565b94505061014061112a8a828b0161104d565b9350506101a061113c8a828b01611068565b9250506101c061114e8a828b01611068565b91505092959891949750929550565b600080600080600080600080610200898b03121561117a57600080fd5b60006111888b828c0161100e565b98505060206111998b828c0161104d565b97505060806111aa8b828c0161104d565b96505060e06111bb8b828c0161104d565b9550506101406111cd8b828c0161104d565b9450506101a06111df8b828c01611068565b9350506101c06111f18b828c01611068565b9250506101e06112038b828c01611068565b9150509295985092959890939650565b6000806040838503121561122657600080fd5b60006112348582860161100e565b925050602061124585828601611068565b9150509250929050565b60006020828403121561126157600080fd5b600061126f84828501611023565b91505092915050565b60006020828403121561128a57600080fd5b600061129884828501611038565b91505092915050565b600080604083850312156112b457600080fd5b60006112c28582860161107d565b92505060206112d38582860161107d565b9150509250929050565b6000806000606084860312156112f257600080fd5b60006113008682870161107d565b93505060206113118682870161107d565b925050604061132286828701611023565b9150509250925092565b61133581611745565b82525050565b61134481611757565b82525050565b611353816117b4565b82525050565b6000611366602c836116bb565b91507f4465666942726964676550726f78793a204153594e435f4e4f4e5a45524f5f4f60008301527f55545055545f56414c55455300000000000000000000000000000000000000006020830152604082019050919050565b60006113cc601a836116bb565b91507f4465666942726964676550726f78793a204e4f545f52454144590000000000006000830152602082019050919050565b600061140c6026836116bb565b91507f4465666942726964676550726f78793a20494e434f52524543545f415353455460008301527f5f56414c554500000000000000000000000000000000000000000000000000006020830152604082019050919050565b6060820161147660008301836116fa565b61148360008501826114bf565b5061149160208301836116cc565b61149e602085018261132c565b506114ac60408301836116e3565b6114b9604085018261134a565b50505050565b6114c881611796565b82525050565b6114d781611796565b82525050565b6114e6816117a0565b82525050565b6000602082019050611501600083018461133b565b92915050565b6000602082019050818103600083015261152081611359565b9050919050565b60006020820190508181036000830152611540816113bf565b9050919050565b60006020820190508181036000830152611560816113ff565b9050919050565b60006101e08201905061157d600083018a611465565b61158a6060830189611465565b61159760c0830188611465565b6115a5610120830187611465565b6115b36101808301866114ce565b6115c16101a08301856114ce565b6115cf6101c08301846114dd565b98975050505050505050565b60006101c0820190506115f16000830189611465565b6115fe6060830188611465565b61160b60c0830187611465565b611619610120830186611465565b6116276101808301856114ce565b6116356101a08301846114dd565b979650505050505050565b600060208201905061165560008301846114ce565b92915050565b600060408201905061167060008301856114ce565b61167d60208301846114ce565b9392505050565b600060608201905061169960008301866114ce565b6116a660208301856114ce565b6116b3604083018461133b565b949350505050565b600082825260208201905092915050565b60006116db602084018461100e565b905092915050565b60006116f26020840184611038565b905092915050565b60006117096020840184611068565b905092915050565b600061171c82611796565b915061172783611796565b92508282101561173a576117396117c6565b5b828203905092915050565b600061175082611776565b9050919050565b60008115159050919050565b600081905061177182611824565b919050565b600073ffffffffffffffffffffffffffffffffffffffff82169050919050565b6000819050919050565b600067ffffffffffffffff82169050919050565b60006117bf82611763565b9050919050565b7f4e487b7100000000000000000000000000000000000000000000000000000000600052601160045260246000fd5b7f4e487b7100000000000000000000000000000000000000000000000000000000600052602160045260246000fd5b60048110611835576118346117f5565b5b50565b61184181611745565b811461184c57600080fd5b50565b61185881611757565b811461186357600080fd5b50565b6004811061187357600080fd5b50565b61187f81611796565b811461188a57600080fd5b5056fea2646970667358221220363a630d36054a2a76ee5e5ceb5c01e66d8de6fa9f1074d4baf812c2f24031a164736f6c63430008000033",
          "opcodes": "PUSH1 0x80 PUSH1 0x40 MSTORE CALLVALUE DUP1 ISZERO PUSH2 0x10 JUMPI PUSH1 0x0 DUP1 REVERT JUMPDEST POP PUSH2 0x18C3 DUP1 PUSH2 0x20 PUSH1 0x0 CODECOPY PUSH1 0x0 RETURN INVALID PUSH1 0x80 PUSH1 0x40 MSTORE PUSH1 0x4 CALLDATASIZE LT PUSH2 0x38 JUMPI PUSH1 0x0 CALLDATALOAD PUSH1 0xE0 SHR DUP1 PUSH4 0x79B5080F EQ PUSH2 0x44 JUMPI DUP1 PUSH4 0xCC073557 EQ PUSH2 0x81 JUMPI DUP1 PUSH4 0xD9B5FB79 EQ PUSH2 0xBF JUMPI PUSH2 0x3F JUMP JUMPDEST CALLDATASIZE PUSH2 0x3F JUMPI STOP JUMPDEST PUSH1 0x0 DUP1 REVERT JUMPDEST CALLVALUE DUP1 ISZERO PUSH2 0x50 JUMPI PUSH1 0x0 DUP1 REVERT JUMPDEST POP PUSH2 0x6B PUSH1 0x4 DUP1 CALLDATASIZE SUB DUP2 ADD SWAP1 PUSH2 0x66 SWAP2 SWAP1 PUSH2 0x1213 JUMP JUMPDEST PUSH2 0xFE JUMP JUMPDEST PUSH1 0x40 MLOAD PUSH2 0x78 SWAP2 SWAP1 PUSH2 0x14EC JUMP JUMPDEST PUSH1 0x40 MLOAD DUP1 SWAP2 SUB SWAP1 RETURN JUMPDEST CALLVALUE DUP1 ISZERO PUSH2 0x8D JUMPI PUSH1 0x0 DUP1 REVERT JUMPDEST POP PUSH2 0xA8 PUSH1 0x4 DUP1 CALLDATASIZE SUB DUP2 ADD SWAP1 PUSH2 0xA3 SWAP2 SWAP1 PUSH2 0x10BB JUMP JUMPDEST PUSH2 0x196 JUMP JUMPDEST PUSH1 0x40 MLOAD PUSH2 0xB6 SWAP3 SWAP2 SWAP1 PUSH2 0x165B JUMP JUMPDEST PUSH1 0x40 MLOAD DUP1 SWAP2 SUB SWAP1 RETURN JUMPDEST CALLVALUE DUP1 ISZERO PUSH2 0xCB JUMPI PUSH1 0x0 DUP1 REVERT JUMPDEST POP PUSH2 0xE6 PUSH1 0x4 DUP1 CALLDATASIZE SUB DUP2 ADD SWAP1 PUSH2 0xE1 SWAP2 SWAP1 PUSH2 0x115D JUMP JUMPDEST PUSH2 0x7B5 JUMP JUMPDEST PUSH1 0x40 MLOAD PUSH2 0xF5 SWAP4 SWAP3 SWAP2 SWAP1 PUSH2 0x1684 JUMP JUMPDEST PUSH1 0x40 MLOAD DUP1 SWAP2 SUB SWAP1 RETURN JUMPDEST PUSH1 0x0 DUP1 DUP4 SWAP1 POP DUP1 PUSH20 0xFFFFFFFFFFFFFFFFFFFFFFFFFFFFFFFFFFFFFFFF AND PUSH4 0x7224F4EB DUP5 PUSH1 0x40 MLOAD DUP3 PUSH4 0xFFFFFFFF AND PUSH1 0xE0 SHL DUP2 MSTORE PUSH1 0x4 ADD PUSH2 0x13D SWAP2 SWAP1 PUSH2 0x1640 JUMP JUMPDEST PUSH1 0x20 PUSH1 0x40 MLOAD DUP1 DUP4 SUB DUP2 DUP7 DUP1 EXTCODESIZE ISZERO DUP1 ISZERO PUSH2 0x155 JUMPI PUSH1 0x0 DUP1 REVERT JUMPDEST POP GAS STATICCALL ISZERO DUP1 ISZERO PUSH2 0x169 JUMPI RETURNDATASIZE PUSH1 0x0 DUP1 RETURNDATACOPY RETURNDATASIZE PUSH1 0x0 REVERT JUMPDEST POP POP POP POP PUSH1 0x40 MLOAD RETURNDATASIZE PUSH1 0x1F NOT PUSH1 0x1F DUP3 ADD AND DUP3 ADD DUP1 PUSH1 0x40 MSTORE POP DUP2 ADD SWAP1 PUSH2 0x18D SWAP2 SWAP1 PUSH2 0x124F JUMP JUMPDEST SWAP2 POP POP SWAP3 SWAP2 POP POP JUMP JUMPDEST PUSH1 0x0 DUP1 PUSH1 0x0 DUP1 PUSH1 0x3 DUP1 DUP2 GT ISZERO PUSH2 0x1D5 JUMPI PUSH32 0x4E487B7100000000000000000000000000000000000000000000000000000000 PUSH1 0x0 MSTORE PUSH1 0x21 PUSH1 0x4 MSTORE PUSH1 0x24 PUSH1 0x0 REVERT JUMPDEST DUP9 PUSH1 0x40 ADD PUSH1 0x20 DUP2 ADD SWAP1 PUSH2 0x1E8 SWAP2 SWAP1 PUSH2 0x1278 JUMP JUMPDEST PUSH1 0x3 DUP2 GT ISZERO PUSH2 0x220 JUMPI PUSH32 0x4E487B7100000000000000000000000000000000000000000000000000000000 PUSH1 0x0 MSTORE PUSH1 0x21 PUSH1 0x4 MSTORE PUSH1 0x24 PUSH1 0x0 REVERT JUMPDEST EQ PUSH2 0x243 JUMPI PUSH2 0x240 DUP9 PUSH1 0x20 ADD PUSH1 0x20 DUP2 ADD SWAP1 PUSH2 0x23B SWAP2 SWAP1 PUSH2 0x1092 JUMP JUMPDEST PUSH2 0xF51 JUMP JUMPDEST SWAP2 POP JUMPDEST PUSH1 0x3 DUP1 DUP2 GT ISZERO PUSH2 0x27C JUMPI PUSH32 0x4E487B7100000000000000000000000000000000000000000000000000000000 PUSH1 0x0 MSTORE PUSH1 0x21 PUSH1 0x4 MSTORE PUSH1 0x24 PUSH1 0x0 REVERT JUMPDEST DUP8 PUSH1 0x40 ADD PUSH1 0x20 DUP2 ADD SWAP1 PUSH2 0x28F SWAP2 SWAP1 PUSH2 0x1278 JUMP JUMPDEST PUSH1 0x3 DUP2 GT ISZERO PUSH2 0x2C7 JUMPI PUSH32 0x4E487B7100000000000000000000000000000000000000000000000000000000 PUSH1 0x0 MSTORE PUSH1 0x21 PUSH1 0x4 MSTORE PUSH1 0x24 PUSH1 0x0 REVERT JUMPDEST EQ PUSH2 0x2EA JUMPI PUSH2 0x2E7 DUP8 PUSH1 0x20 ADD PUSH1 0x20 DUP2 ADD SWAP1 PUSH2 0x2E2 SWAP2 SWAP1 PUSH2 0x1092 JUMP JUMPDEST PUSH2 0xF51 JUMP JUMPDEST SWAP1 POP JUMPDEST PUSH1 0x0 DUP12 SWAP1 POP DUP1 PUSH20 0xFFFFFFFFFFFFFFFFFFFFFFFFFFFFFFFFFFFFFFFF AND PUSH4 0x7224F4EB DUP9 PUSH1 0x40 MLOAD DUP3 PUSH4 0xFFFFFFFF AND PUSH1 0xE0 SHL DUP2 MSTORE PUSH1 0x4 ADD PUSH2 0x328 SWAP2 SWAP1 PUSH2 0x1640 JUMP JUMPDEST PUSH1 0x20 PUSH1 0x40 MLOAD DUP1 DUP4 SUB DUP2 DUP7 DUP1 EXTCODESIZE ISZERO DUP1 ISZERO PUSH2 0x340 JUMPI PUSH1 0x0 DUP1 REVERT JUMPDEST POP GAS STATICCALL ISZERO DUP1 ISZERO PUSH2 0x354 JUMPI RETURNDATASIZE PUSH1 0x0 DUP1 RETURNDATACOPY RETURNDATASIZE PUSH1 0x0 REVERT JUMPDEST POP POP POP POP PUSH1 0x40 MLOAD RETURNDATASIZE PUSH1 0x1F NOT PUSH1 0x1F DUP3 ADD AND DUP3 ADD DUP1 PUSH1 0x40 MSTORE POP DUP2 ADD SWAP1 PUSH2 0x378 SWAP2 SWAP1 PUSH2 0x124F JUMP JUMPDEST PUSH2 0x3B7 JUMPI PUSH1 0x40 MLOAD PUSH32 0x8C379A000000000000000000000000000000000000000000000000000000000 DUP2 MSTORE PUSH1 0x4 ADD PUSH2 0x3AE SWAP1 PUSH2 0x1527 JUMP JUMPDEST PUSH1 0x40 MLOAD DUP1 SWAP2 SUB SWAP1 REVERT JUMPDEST DUP1 PUSH20 0xFFFFFFFFFFFFFFFFFFFFFFFFFFFFFFFFFFFFFFFF AND PUSH4 0x9B07D342 DUP13 DUP13 DUP13 DUP13 DUP13 DUP13 PUSH1 0x40 MLOAD DUP8 PUSH4 0xFFFFFFFF AND PUSH1 0xE0 SHL DUP2 MSTORE PUSH1 0x4 ADD PUSH2 0x3FA SWAP7 SWAP6 SWAP5 SWAP4 SWAP3 SWAP2 SWAP1 PUSH2 0x15DB JUMP JUMPDEST PUSH1 0x40 DUP1 MLOAD DUP1 DUP4 SUB DUP2 PUSH1 0x0 DUP8 DUP1 EXTCODESIZE ISZERO DUP1 ISZERO PUSH2 0x413 JUMPI PUSH1 0x0 DUP1 REVERT JUMPDEST POP GAS CALL ISZERO DUP1 ISZERO PUSH2 0x427 JUMPI RETURNDATASIZE PUSH1 0x0 DUP1 RETURNDATACOPY RETURNDATASIZE PUSH1 0x0 REVERT JUMPDEST POP POP POP POP PUSH1 0x40 MLOAD RETURNDATASIZE PUSH1 0x1F NOT PUSH1 0x1F DUP3 ADD AND DUP3 ADD DUP1 PUSH1 0x40 MSTORE POP DUP2 ADD SWAP1 PUSH2 0x44B SWAP2 SWAP1 PUSH2 0x12A1 JUMP JUMPDEST DUP1 SWAP6 POP DUP2 SWAP7 POP POP POP PUSH1 0x3 DUP1 DUP2 GT ISZERO PUSH2 0x48C JUMPI PUSH32 0x4E487B7100000000000000000000000000000000000000000000000000000000 PUSH1 0x0 MSTORE PUSH1 0x21 PUSH1 0x4 MSTORE PUSH1 0x24 PUSH1 0x0 REVERT JUMPDEST DUP10 PUSH1 0x40 ADD PUSH1 0x20 DUP2 ADD SWAP1 PUSH2 0x49F SWAP2 SWAP1 PUSH2 0x1278 JUMP JUMPDEST PUSH1 0x3 DUP2 GT ISZERO PUSH2 0x4D7 JUMPI PUSH32 0x4E487B7100000000000000000000000000000000000000000000000000000000 PUSH1 0x0 MSTORE PUSH1 0x21 PUSH1 0x4 MSTORE PUSH1 0x24 PUSH1 0x0 REVERT JUMPDEST EQ ISZERO DUP1 ISZERO PUSH2 0x568 JUMPI POP PUSH1 0x0 PUSH1 0x3 DUP2 GT ISZERO PUSH2 0x51A JUMPI PUSH32 0x4E487B7100000000000000000000000000000000000000000000000000000000 PUSH1 0x0 MSTORE PUSH1 0x21 PUSH1 0x4 MSTORE PUSH1 0x24 PUSH1 0x0 REVERT JUMPDEST DUP10 PUSH1 0x40 ADD PUSH1 0x20 DUP2 ADD SWAP1 PUSH2 0x52D SWAP2 SWAP1 PUSH2 0x1278 JUMP JUMPDEST PUSH1 0x3 DUP2 GT ISZERO PUSH2 0x565 JUMPI PUSH32 0x4E487B7100000000000000000000000000000000000000000000000000000000 PUSH1 0x0 MSTORE PUSH1 0x21 PUSH1 0x4 MSTORE PUSH1 0x24 PUSH1 0x0 REVERT JUMPDEST EQ ISZERO JUMPDEST ISZERO PUSH2 0x5D3 JUMPI PUSH2 0x591 PUSH2 0x58B DUP11 PUSH1 0x20 ADD PUSH1 0x20 DUP2 ADD SWAP1 PUSH2 0x586 SWAP2 SWAP1 PUSH2 0x1092 JUMP JUMPDEST PUSH2 0xF51 JUMP JUMPDEST DUP5 PUSH2 0xFAC JUMP JUMPDEST DUP6 EQ PUSH2 0x5D2 JUMPI PUSH1 0x40 MLOAD PUSH32 0x8C379A000000000000000000000000000000000000000000000000000000000 DUP2 MSTORE PUSH1 0x4 ADD PUSH2 0x5C9 SWAP1 PUSH2 0x1547 JUMP JUMPDEST PUSH1 0x40 MLOAD DUP1 SWAP2 SUB SWAP1 REVERT JUMPDEST JUMPDEST PUSH1 0x3 DUP1 DUP2 GT ISZERO PUSH2 0x60C JUMPI PUSH32 0x4E487B7100000000000000000000000000000000000000000000000000000000 PUSH1 0x0 MSTORE PUSH1 0x21 PUSH1 0x4 MSTORE PUSH1 0x24 PUSH1 0x0 REVERT JUMPDEST DUP9 PUSH1 0x40 ADD PUSH1 0x20 DUP2 ADD SWAP1 PUSH2 0x61F SWAP2 SWAP1 PUSH2 0x1278 JUMP JUMPDEST PUSH1 0x3 DUP2 GT ISZERO PUSH2 0x657 JUMPI PUSH32 0x4E487B7100000000000000000000000000000000000000000000000000000000 PUSH1 0x0 MSTORE PUSH1 0x21 PUSH1 0x4 MSTORE PUSH1 0x24 PUSH1 0x0 REVERT JUMPDEST EQ ISZERO DUP1 ISZERO PUSH2 0x6E8 JUMPI POP PUSH1 0x0 PUSH1 0x3 DUP2 GT ISZERO PUSH2 0x69A JUMPI PUSH32 0x4E487B7100000000000000000000000000000000000000000000000000000000 PUSH1 0x0 MSTORE PUSH1 0x21 PUSH1 0x4 MSTORE PUSH1 0x24 PUSH1 0x0 REVERT JUMPDEST DUP9 PUSH1 0x40 ADD PUSH1 0x20 DUP2 ADD SWAP1 PUSH2 0x6AD SWAP2 SWAP1 PUSH2 0x1278 JUMP JUMPDEST PUSH1 0x3 DUP2 GT ISZERO PUSH2 0x6E5 JUMPI PUSH32 0x4E487B7100000000000000000000000000000000000000000000000000000000 PUSH1 0x0 MSTORE PUSH1 0x21 PUSH1 0x4 MSTORE PUSH1 0x24 PUSH1 0x0 REVERT JUMPDEST EQ ISZERO JUMPDEST ISZERO PUSH2 0x753 JUMPI PUSH2 0x711 PUSH2 0x70B DUP10 PUSH1 0x20 ADD PUSH1 0x20 DUP2 ADD SWAP1 PUSH2 0x706 SWAP2 SWAP1 PUSH2 0x1092 JUMP JUMPDEST PUSH2 0xF51 JUMP JUMPDEST DUP4 PUSH2 0xFAC JUMP JUMPDEST DUP5 EQ PUSH2 0x752 JUMPI PUSH1 0x40 MLOAD PUSH32 0x8C379A000000000000000000000000000000000000000000000000000000000 DUP2 MSTORE PUSH1 0x4 ADD PUSH2 0x749 SWAP1 PUSH2 0x1547 JUMP JUMPDEST PUSH1 0x40 MLOAD DUP1 SWAP2 SUB SWAP1 REVERT JUMPDEST JUMPDEST DUP12 PUSH20 0xFFFFFFFFFFFFFFFFFFFFFFFFFFFFFFFFFFFFFFFF AND PUSH32 0x1F69DD4D25D71E16962EBBDC1534BE51B469874CA1BC8CF79AB171635FDDAD48 DUP7 DUP7 PUSH1 0x0 PUSH1 0x40 MLOAD PUSH2 0x79E SWAP4 SWAP3 SWAP2 SWAP1 PUSH2 0x1684 JUMP JUMPDEST PUSH1 0x40 MLOAD DUP1 SWAP2 SUB SWAP1 LOG2 POP POP POP SWAP8 POP SWAP8 SWAP6 POP POP POP POP POP POP JUMP JUMPDEST PUSH1 0x0 DUP1 PUSH1 0x0 PUSH1 0x2 PUSH1 0x3 DUP2 GT ISZERO PUSH2 0x7F4 JUMPI PUSH32 0x4E487B7100000000000000000000000000000000000000000000000000000000 PUSH1 0x0 MSTORE PUSH1 0x21 PUSH1 0x4 MSTORE PUSH1 0x24 PUSH1 0x0 REVERT JUMPDEST DUP11 PUSH1 0x40 ADD PUSH1 0x20 DUP2 ADD SWAP1 PUSH2 0x807 SWAP2 SWAP1 PUSH2 0x1278 JUMP JUMPDEST PUSH1 0x3 DUP2 GT ISZERO PUSH2 0x83F JUMPI PUSH32 0x4E487B7100000000000000000000000000000000000000000000000000000000 PUSH1 0x0 MSTORE PUSH1 0x21 PUSH1 0x4 MSTORE PUSH1 0x24 PUSH1 0x0 REVERT JUMPDEST EQ ISZERO PUSH2 0x863 JUMPI PUSH2 0x862 DUP11 PUSH1 0x20 ADD PUSH1 0x20 DUP2 ADD SWAP1 PUSH2 0x85B SWAP2 SWAP1 PUSH2 0x1092 JUMP JUMPDEST DUP13 DUP9 PUSH2 0xFC2 JUMP JUMPDEST JUMPDEST PUSH1 0x2 PUSH1 0x3 DUP2 GT ISZERO PUSH2 0x89D JUMPI PUSH32 0x4E487B7100000000000000000000000000000000000000000000000000000000 PUSH1 0x0 MSTORE PUSH1 0x21 PUSH1 0x4 MSTORE PUSH1 0x24 PUSH1 0x0 REVERT JUMPDEST DUP10 PUSH1 0x40 ADD PUSH1 0x20 DUP2 ADD SWAP1 PUSH2 0x8B0 SWAP2 SWAP1 PUSH2 0x1278 JUMP JUMPDEST PUSH1 0x3 DUP2 GT ISZERO PUSH2 0x8E8 JUMPI PUSH32 0x4E487B7100000000000000000000000000000000000000000000000000000000 PUSH1 0x0 MSTORE PUSH1 0x21 PUSH1 0x4 MSTORE PUSH1 0x24 PUSH1 0x0 REVERT JUMPDEST EQ ISZERO PUSH2 0x90C JUMPI PUSH2 0x90B DUP10 PUSH1 0x20 ADD PUSH1 0x20 DUP2 ADD SWAP1 PUSH2 0x904 SWAP2 SWAP1 PUSH2 0x1092 JUMP JUMPDEST DUP13 DUP9 PUSH2 0xFC2 JUMP JUMPDEST JUMPDEST PUSH1 0x0 DUP1 PUSH1 0x3 DUP1 DUP2 GT ISZERO PUSH2 0x948 JUMPI PUSH32 0x4E487B7100000000000000000000000000000000000000000000000000000000 PUSH1 0x0 MSTORE PUSH1 0x21 PUSH1 0x4 MSTORE PUSH1 0x24 PUSH1 0x0 REVERT JUMPDEST DUP11 PUSH1 0x40 ADD PUSH1 0x20 DUP2 ADD SWAP1 PUSH2 0x95B SWAP2 SWAP1 PUSH2 0x1278 JUMP JUMPDEST PUSH1 0x3 DUP2 GT ISZERO PUSH2 0x993 JUMPI PUSH32 0x4E487B7100000000000000000000000000000000000000000000000000000000 PUSH1 0x0 MSTORE PUSH1 0x21 PUSH1 0x4 MSTORE PUSH1 0x24 PUSH1 0x0 REVERT JUMPDEST EQ PUSH2 0x9B6 JUMPI PUSH2 0x9B3 DUP11 PUSH1 0x20 ADD PUSH1 0x20 DUP2 ADD SWAP1 PUSH2 0x9AE SWAP2 SWAP1 PUSH2 0x1092 JUMP JUMPDEST PUSH2 0xF51 JUMP JUMPDEST SWAP2 POP JUMPDEST PUSH1 0x3 DUP1 DUP2 GT ISZERO PUSH2 0x9EF JUMPI PUSH32 0x4E487B7100000000000000000000000000000000000000000000000000000000 PUSH1 0x0 MSTORE PUSH1 0x21 PUSH1 0x4 MSTORE PUSH1 0x24 PUSH1 0x0 REVERT JUMPDEST DUP10 PUSH1 0x40 ADD PUSH1 0x20 DUP2 ADD SWAP1 PUSH2 0xA02 SWAP2 SWAP1 PUSH2 0x1278 JUMP JUMPDEST PUSH1 0x3 DUP2 GT ISZERO PUSH2 0xA3A JUMPI PUSH32 0x4E487B7100000000000000000000000000000000000000000000000000000000 PUSH1 0x0 MSTORE PUSH1 0x21 PUSH1 0x4 MSTORE PUSH1 0x24 PUSH1 0x0 REVERT JUMPDEST EQ PUSH2 0xA5D JUMPI PUSH2 0xA5A DUP10 PUSH1 0x20 ADD PUSH1 0x20 DUP2 ADD SWAP1 PUSH2 0xA55 SWAP2 SWAP1 PUSH2 0x1092 JUMP JUMPDEST PUSH2 0xF51 JUMP JUMPDEST SWAP1 POP JUMPDEST PUSH1 0x0 DUP14 SWAP1 POP DUP1 PUSH20 0xFFFFFFFFFFFFFFFFFFFFFFFFFFFFFFFFFFFFFFFF AND PUSH4 0x5254162B PUSH1 0x1 PUSH1 0x3 DUP2 GT ISZERO PUSH2 0xAB8 JUMPI PUSH32 0x4E487B7100000000000000000000000000000000000000000000000000000000 PUSH1 0x0 MSTORE PUSH1 0x21 PUSH1 0x4 MSTORE PUSH1 0x24 PUSH1 0x0 REVERT JUMPDEST DUP16 PUSH1 0x40 ADD PUSH1 0x20 DUP2 ADD SWAP1 PUSH2 0xACB SWAP2 SWAP1 PUSH2 0x1278 JUMP JUMPDEST PUSH1 0x3 DUP2 GT ISZERO PUSH2 0xB03 JUMPI PUSH32 0x4E487B7100000000000000000000000000000000000000000000000000000000 PUSH1 0x0 MSTORE PUSH1 0x21 PUSH1 0x4 MSTORE PUSH1 0x24 PUSH1 0x0 REVERT JUMPDEST EQ PUSH2 0xB0F JUMPI PUSH1 0x0 PUSH2 0xB11 JUMP JUMPDEST DUP11 JUMPDEST DUP16 DUP16 DUP16 DUP16 DUP16 DUP16 DUP16 PUSH1 0x40 MLOAD DUP10 PUSH4 0xFFFFFFFF AND PUSH1 0xE0 SHL DUP2 MSTORE PUSH1 0x4 ADD PUSH2 0xB3A SWAP8 SWAP7 SWAP6 SWAP5 SWAP4 SWAP3 SWAP2 SWAP1 PUSH2 0x1567 JUMP JUMPDEST PUSH1 0x60 PUSH1 0x40 MLOAD DUP1 DUP4 SUB DUP2 DUP6 DUP9 DUP1 EXTCODESIZE ISZERO DUP1 ISZERO PUSH2 0xB53 JUMPI PUSH1 0x0 DUP1 REVERT JUMPDEST POP GAS CALL ISZERO DUP1 ISZERO PUSH2 0xB67 JUMPI RETURNDATASIZE PUSH1 0x0 DUP1 RETURNDATACOPY RETURNDATASIZE PUSH1 0x0 REVERT JUMPDEST POP POP POP POP POP PUSH1 0x40 MLOAD RETURNDATASIZE PUSH1 0x1F NOT PUSH1 0x1F DUP3 ADD AND DUP3 ADD DUP1 PUSH1 0x40 MSTORE POP DUP2 ADD SWAP1 PUSH2 0xB8C SWAP2 SWAP1 PUSH2 0x12DD JUMP JUMPDEST DUP1 SWAP7 POP DUP2 SWAP8 POP DUP3 SWAP9 POP POP POP POP PUSH1 0x3 DUP1 DUP2 GT ISZERO PUSH2 0xBD1 JUMPI PUSH32 0x4E487B7100000000000000000000000000000000000000000000000000000000 PUSH1 0x0 MSTORE PUSH1 0x21 PUSH1 0x4 MSTORE PUSH1 0x24 PUSH1 0x0 REVERT JUMPDEST DUP12 PUSH1 0x40 ADD PUSH1 0x20 DUP2 ADD SWAP1 PUSH2 0xBE4 SWAP2 SWAP1 PUSH2 0x1278 JUMP JUMPDEST PUSH1 0x3 DUP2 GT ISZERO PUSH2 0xC1C JUMPI PUSH32 0x4E487B7100000000000000000000000000000000000000000000000000000000 PUSH1 0x0 MSTORE PUSH1 0x21 PUSH1 0x4 MSTORE PUSH1 0x24 PUSH1 0x0 REVERT JUMPDEST EQ ISZERO DUP1 ISZERO PUSH2 0xCAD JUMPI POP PUSH1 0x0 PUSH1 0x3 DUP2 GT ISZERO PUSH2 0xC5F JUMPI PUSH32 0x4E487B7100000000000000000000000000000000000000000000000000000000 PUSH1 0x0 MSTORE PUSH1 0x21 PUSH1 0x4 MSTORE PUSH1 0x24 PUSH1 0x0 REVERT JUMPDEST DUP12 PUSH1 0x40 ADD PUSH1 0x20 DUP2 ADD SWAP1 PUSH2 0xC72 SWAP2 SWAP1 PUSH2 0x1278 JUMP JUMPDEST PUSH1 0x3 DUP2 GT ISZERO PUSH2 0xCAA JUMPI PUSH32 0x4E487B7100000000000000000000000000000000000000000000000000000000 PUSH1 0x0 MSTORE PUSH1 0x21 PUSH1 0x4 MSTORE PUSH1 0x24 PUSH1 0x0 REVERT JUMPDEST EQ ISZERO JUMPDEST ISZERO PUSH2 0xD18 JUMPI PUSH2 0xCD6 PUSH2 0xCD0 DUP13 PUSH1 0x20 ADD PUSH1 0x20 DUP2 ADD SWAP1 PUSH2 0xCCB SWAP2 SWAP1 PUSH2 0x1092 JUMP JUMPDEST PUSH2 0xF51 JUMP JUMPDEST DUP5 PUSH2 0xFAC JUMP JUMPDEST DUP7 EQ PUSH2 0xD17 JUMPI PUSH1 0x40 MLOAD PUSH32 0x8C379A000000000000000000000000000000000000000000000000000000000 DUP2 MSTORE PUSH1 0x4 ADD PUSH2 0xD0E SWAP1 PUSH2 0x1547 JUMP JUMPDEST PUSH1 0x40 MLOAD DUP1 SWAP2 SUB SWAP1 REVERT JUMPDEST JUMPDEST PUSH1 0x3 DUP1 DUP2 GT ISZERO PUSH2 0xD51 JUMPI PUSH32 0x4E487B7100000000000000000000000000000000000000000000000000000000 PUSH1 0x0 MSTORE PUSH1 0x21 PUSH1 0x4 MSTORE PUSH1 0x24 PUSH1 0x0 REVERT JUMPDEST DUP11 PUSH1 0x40 ADD PUSH1 0x20 DUP2 ADD SWAP1 PUSH2 0xD64 SWAP2 SWAP1 PUSH2 0x1278 JUMP JUMPDEST PUSH1 0x3 DUP2 GT ISZERO PUSH2 0xD9C JUMPI PUSH32 0x4E487B7100000000000000000000000000000000000000000000000000000000 PUSH1 0x0 MSTORE PUSH1 0x21 PUSH1 0x4 MSTORE PUSH1 0x24 PUSH1 0x0 REVERT JUMPDEST EQ ISZERO DUP1 ISZERO PUSH2 0xE2D JUMPI POP PUSH1 0x0 PUSH1 0x3 DUP2 GT ISZERO PUSH2 0xDDF JUMPI PUSH32 0x4E487B7100000000000000000000000000000000000000000000000000000000 PUSH1 0x0 MSTORE PUSH1 0x21 PUSH1 0x4 MSTORE PUSH1 0x24 PUSH1 0x0 REVERT JUMPDEST DUP11 PUSH1 0x40 ADD PUSH1 0x20 DUP2 ADD SWAP1 PUSH2 0xDF2 SWAP2 SWAP1 PUSH2 0x1278 JUMP JUMPDEST PUSH1 0x3 DUP2 GT ISZERO PUSH2 0xE2A JUMPI PUSH32 0x4E487B7100000000000000000000000000000000000000000000000000000000 PUSH1 0x0 MSTORE PUSH1 0x21 PUSH1 0x4 MSTORE PUSH1 0x24 PUSH1 0x0 REVERT JUMPDEST EQ ISZERO JUMPDEST ISZERO PUSH2 0xE98 JUMPI PUSH2 0xE56 PUSH2 0xE50 DUP12 PUSH1 0x20 ADD PUSH1 0x20 DUP2 ADD SWAP1 PUSH2 0xE4B SWAP2 SWAP1 PUSH2 0x1092 JUMP JUMPDEST PUSH2 0xF51 JUMP JUMPDEST DUP4 PUSH2 0xFAC JUMP JUMPDEST DUP6 EQ PUSH2 0xE97 JUMPI PUSH1 0x40 MLOAD PUSH32 0x8C379A000000000000000000000000000000000000000000000000000000000 DUP2 MSTORE PUSH1 0x4 ADD PUSH2 0xE8E SWAP1 PUSH2 0x1547 JUMP JUMPDEST PUSH1 0x40 MLOAD DUP1 SWAP2 SUB SWAP1 REVERT JUMPDEST JUMPDEST DUP4 ISZERO PUSH2 0xEEE JUMPI PUSH1 0x0 DUP7 EQ DUP1 ISZERO PUSH2 0xEAE JUMPI POP PUSH1 0x0 DUP6 EQ JUMPDEST PUSH2 0xEED JUMPI PUSH1 0x40 MLOAD PUSH32 0x8C379A000000000000000000000000000000000000000000000000000000000 DUP2 MSTORE PUSH1 0x4 ADD PUSH2 0xEE4 SWAP1 PUSH2 0x1507 JUMP JUMPDEST PUSH1 0x40 MLOAD DUP1 SWAP2 SUB SWAP1 REVERT JUMPDEST JUMPDEST DUP14 PUSH20 0xFFFFFFFFFFFFFFFFFFFFFFFFFFFFFFFFFFFFFFFF AND PUSH32 0x1F69DD4D25D71E16962EBBDC1534BE51B469874CA1BC8CF79AB171635FDDAD48 DUP8 DUP8 DUP8 PUSH1 0x40 MLOAD PUSH2 0xF38 SWAP4 SWAP3 SWAP2 SWAP1 PUSH2 0x1684 JUMP JUMPDEST PUSH1 0x40 MLOAD DUP1 SWAP2 SUB SWAP1 LOG2 POP POP POP SWAP9 POP SWAP9 POP SWAP9 SWAP6 POP POP POP POP POP POP JUMP JUMPDEST PUSH1 0x0 DUP2 PUSH2 0xF5D JUMPI ADDRESS BALANCE SWAP1 POP JUMPDEST DUP2 ISZERO PUSH2 0xFA7 JUMPI PUSH1 0x40 MLOAD PUSH32 0x70A0823100000000000000000000000000000000000000000000000000000000 DUP2 MSTORE ADDRESS PUSH1 0x4 DUP3 ADD MSTORE PUSH1 0x20 DUP2 PUSH1 0x24 DUP4 DUP7 GAS STATICCALL PUSH2 0xFA1 JUMPI PUSH1 0x0 DUP1 REVERT JUMPDEST DUP1 MLOAD SWAP2 POP POP JUMPDEST SWAP2 SWAP1 POP JUMP JUMPDEST PUSH1 0x0 DUP2 DUP4 PUSH2 0xFBA SWAP2 SWAP1 PUSH2 0x1711 JUMP JUMPDEST SWAP1 POP SWAP3 SWAP2 POP POP JUMP JUMPDEST PUSH1 0x40 MLOAD PUSH32 0xA9059CBB00000000000000000000000000000000000000000000000000000000 DUP2 MSTORE DUP3 PUSH1 0x4 DUP3 ADD MSTORE DUP2 PUSH1 0x24 DUP3 ADD MSTORE PUSH1 0x0 DUP2 PUSH1 0x44 DUP4 PUSH1 0x0 DUP9 GAS CALL PUSH2 0x1008 JUMPI PUSH1 0x0 DUP1 REVERT JUMPDEST POP POP POP POP JUMP JUMPDEST PUSH1 0x0 DUP2 CALLDATALOAD SWAP1 POP PUSH2 0x101D DUP2 PUSH2 0x1838 JUMP JUMPDEST SWAP3 SWAP2 POP POP JUMP JUMPDEST PUSH1 0x0 DUP2 MLOAD SWAP1 POP PUSH2 0x1032 DUP2 PUSH2 0x184F JUMP JUMPDEST SWAP3 SWAP2 POP POP JUMP JUMPDEST PUSH1 0x0 DUP2 CALLDATALOAD SWAP1 POP PUSH2 0x1047 DUP2 PUSH2 0x1866 JUMP JUMPDEST SWAP3 SWAP2 POP POP JUMP JUMPDEST PUSH1 0x0 PUSH1 0x60 DUP3 DUP5 SUB SLT ISZERO PUSH2 0x105F JUMPI PUSH1 0x0 DUP1 REVERT JUMPDEST DUP2 SWAP1 POP SWAP3 SWAP2 POP POP JUMP JUMPDEST PUSH1 0x0 DUP2 CALLDATALOAD SWAP1 POP PUSH2 0x1077 DUP2 PUSH2 0x1876 JUMP JUMPDEST SWAP3 SWAP2 POP POP JUMP JUMPDEST PUSH1 0x0 DUP2 MLOAD SWAP1 POP PUSH2 0x108C DUP2 PUSH2 0x1876 JUMP JUMPDEST SWAP3 SWAP2 POP POP JUMP JUMPDEST PUSH1 0x0 PUSH1 0x20 DUP3 DUP5 SUB SLT ISZERO PUSH2 0x10A4 JUMPI PUSH1 0x0 DUP1 REVERT JUMPDEST PUSH1 0x0 PUSH2 0x10B2 DUP5 DUP3 DUP6 ADD PUSH2 0x100E JUMP JUMPDEST SWAP2 POP POP SWAP3 SWAP2 POP POP JUMP JUMPDEST PUSH1 0x0 DUP1 PUSH1 0x0 DUP1 PUSH1 0x0 DUP1 PUSH1 0x0 PUSH2 0x1E0 DUP9 DUP11 SUB SLT ISZERO PUSH2 0x10D7 JUMPI PUSH1 0x0 DUP1 REVERT JUMPDEST PUSH1 0x0 PUSH2 0x10E5 DUP11 DUP3 DUP12 ADD PUSH2 0x100E JUMP JUMPDEST SWAP8 POP POP PUSH1 0x20 PUSH2 0x10F6 DUP11 DUP3 DUP12 ADD PUSH2 0x104D JUMP JUMPDEST SWAP7 POP POP PUSH1 0x80 PUSH2 0x1107 DUP11 DUP3 DUP12 ADD PUSH2 0x104D JUMP JUMPDEST SWAP6 POP POP PUSH1 0xE0 PUSH2 0x1118 DUP11 DUP3 DUP12 ADD PUSH2 0x104D JUMP JUMPDEST SWAP5 POP POP PUSH2 0x140 PUSH2 0x112A DUP11 DUP3 DUP12 ADD PUSH2 0x104D JUMP JUMPDEST SWAP4 POP POP PUSH2 0x1A0 PUSH2 0x113C DUP11 DUP3 DUP12 ADD PUSH2 0x1068 JUMP JUMPDEST SWAP3 POP POP PUSH2 0x1C0 PUSH2 0x114E DUP11 DUP3 DUP12 ADD PUSH2 0x1068 JUMP JUMPDEST SWAP2 POP POP SWAP3 SWAP6 SWAP9 SWAP2 SWAP5 SWAP8 POP SWAP3 SWAP6 POP JUMP JUMPDEST PUSH1 0x0 DUP1 PUSH1 0x0 DUP1 PUSH1 0x0 DUP1 PUSH1 0x0 DUP1 PUSH2 0x200 DUP10 DUP12 SUB SLT ISZERO PUSH2 0x117A JUMPI PUSH1 0x0 DUP1 REVERT JUMPDEST PUSH1 0x0 PUSH2 0x1188 DUP12 DUP3 DUP13 ADD PUSH2 0x100E JUMP JUMPDEST SWAP9 POP POP PUSH1 0x20 PUSH2 0x1199 DUP12 DUP3 DUP13 ADD PUSH2 0x104D JUMP JUMPDEST SWAP8 POP POP PUSH1 0x80 PUSH2 0x11AA DUP12 DUP3 DUP13 ADD PUSH2 0x104D JUMP JUMPDEST SWAP7 POP POP PUSH1 0xE0 PUSH2 0x11BB DUP12 DUP3 DUP13 ADD PUSH2 0x104D JUMP JUMPDEST SWAP6 POP POP PUSH2 0x140 PUSH2 0x11CD DUP12 DUP3 DUP13 ADD PUSH2 0x104D JUMP JUMPDEST SWAP5 POP POP PUSH2 0x1A0 PUSH2 0x11DF DUP12 DUP3 DUP13 ADD PUSH2 0x1068 JUMP JUMPDEST SWAP4 POP POP PUSH2 0x1C0 PUSH2 0x11F1 DUP12 DUP3 DUP13 ADD PUSH2 0x1068 JUMP JUMPDEST SWAP3 POP POP PUSH2 0x1E0 PUSH2 0x1203 DUP12 DUP3 DUP13 ADD PUSH2 0x1068 JUMP JUMPDEST SWAP2 POP POP SWAP3 SWAP6 SWAP9 POP SWAP3 SWAP6 SWAP9 SWAP1 SWAP4 SWAP7 POP JUMP JUMPDEST PUSH1 0x0 DUP1 PUSH1 0x40 DUP4 DUP6 SUB SLT ISZERO PUSH2 0x1226 JUMPI PUSH1 0x0 DUP1 REVERT JUMPDEST PUSH1 0x0 PUSH2 0x1234 DUP6 DUP3 DUP7 ADD PUSH2 0x100E JUMP JUMPDEST SWAP3 POP POP PUSH1 0x20 PUSH2 0x1245 DUP6 DUP3 DUP7 ADD PUSH2 0x1068 JUMP JUMPDEST SWAP2 POP POP SWAP3 POP SWAP3 SWAP1 POP JUMP JUMPDEST PUSH1 0x0 PUSH1 0x20 DUP3 DUP5 SUB SLT ISZERO PUSH2 0x1261 JUMPI PUSH1 0x0 DUP1 REVERT JUMPDEST PUSH1 0x0 PUSH2 0x126F DUP5 DUP3 DUP6 ADD PUSH2 0x1023 JUMP JUMPDEST SWAP2 POP POP SWAP3 SWAP2 POP POP JUMP JUMPDEST PUSH1 0x0 PUSH1 0x20 DUP3 DUP5 SUB SLT ISZERO PUSH2 0x128A JUMPI PUSH1 0x0 DUP1 REVERT JUMPDEST PUSH1 0x0 PUSH2 0x1298 DUP5 DUP3 DUP6 ADD PUSH2 0x1038 JUMP JUMPDEST SWAP2 POP POP SWAP3 SWAP2 POP POP JUMP JUMPDEST PUSH1 0x0 DUP1 PUSH1 0x40 DUP4 DUP6 SUB SLT ISZERO PUSH2 0x12B4 JUMPI PUSH1 0x0 DUP1 REVERT JUMPDEST PUSH1 0x0 PUSH2 0x12C2 DUP6 DUP3 DUP7 ADD PUSH2 0x107D JUMP JUMPDEST SWAP3 POP POP PUSH1 0x20 PUSH2 0x12D3 DUP6 DUP3 DUP7 ADD PUSH2 0x107D JUMP JUMPDEST SWAP2 POP POP SWAP3 POP SWAP3 SWAP1 POP JUMP JUMPDEST PUSH1 0x0 DUP1 PUSH1 0x0 PUSH1 0x60 DUP5 DUP7 SUB SLT ISZERO PUSH2 0x12F2 JUMPI PUSH1 0x0 DUP1 REVERT JUMPDEST PUSH1 0x0 PUSH2 0x1300 DUP7 DUP3 DUP8 ADD PUSH2 0x107D JUMP JUMPDEST SWAP4 POP POP PUSH1 0x20 PUSH2 0x1311 DUP7 DUP3 DUP8 ADD PUSH2 0x107D JUMP JUMPDEST SWAP3 POP POP PUSH1 0x40 PUSH2 0x1322 DUP7 DUP3 DUP8 ADD PUSH2 0x1023 JUMP JUMPDEST SWAP2 POP POP SWAP3 POP SWAP3 POP SWAP3 JUMP JUMPDEST PUSH2 0x1335 DUP2 PUSH2 0x1745 JUMP JUMPDEST DUP3 MSTORE POP POP JUMP JUMPDEST PUSH2 0x1344 DUP2 PUSH2 0x1757 JUMP JUMPDEST DUP3 MSTORE POP POP JUMP JUMPDEST PUSH2 0x1353 DUP2 PUSH2 0x17B4 JUMP JUMPDEST DUP3 MSTORE POP POP JUMP JUMPDEST PUSH1 0x0 PUSH2 0x1366 PUSH1 0x2C DUP4 PUSH2 0x16BB JUMP JUMPDEST SWAP2 POP PUSH32 0x4465666942726964676550726F78793A204153594E435F4E4F4E5A45524F5F4F PUSH1 0x0 DUP4 ADD MSTORE PUSH32 0x55545055545F56414C5545530000000000000000000000000000000000000000 PUSH1 0x20 DUP4 ADD MSTORE PUSH1 0x40 DUP3 ADD SWAP1 POP SWAP2 SWAP1 POP JUMP JUMPDEST PUSH1 0x0 PUSH2 0x13CC PUSH1 0x1A DUP4 PUSH2 0x16BB JUMP JUMPDEST SWAP2 POP PUSH32 0x4465666942726964676550726F78793A204E4F545F5245414459000000000000 PUSH1 0x0 DUP4 ADD MSTORE PUSH1 0x20 DUP3 ADD SWAP1 POP SWAP2 SWAP1 POP JUMP JUMPDEST PUSH1 0x0 PUSH2 0x140C PUSH1 0x26 DUP4 PUSH2 0x16BB JUMP JUMPDEST SWAP2 POP PUSH32 0x4465666942726964676550726F78793A20494E434F52524543545F4153534554 PUSH1 0x0 DUP4 ADD MSTORE PUSH32 0x5F56414C55450000000000000000000000000000000000000000000000000000 PUSH1 0x20 DUP4 ADD MSTORE PUSH1 0x40 DUP3 ADD SWAP1 POP SWAP2 SWAP1 POP JUMP JUMPDEST PUSH1 0x60 DUP3 ADD PUSH2 0x1476 PUSH1 0x0 DUP4 ADD DUP4 PUSH2 0x16FA JUMP JUMPDEST PUSH2 0x1483 PUSH1 0x0 DUP6 ADD DUP3 PUSH2 0x14BF JUMP JUMPDEST POP PUSH2 0x1491 PUSH1 0x20 DUP4 ADD DUP4 PUSH2 0x16CC JUMP JUMPDEST PUSH2 0x149E PUSH1 0x20 DUP6 ADD DUP3 PUSH2 0x132C JUMP JUMPDEST POP PUSH2 0x14AC PUSH1 0x40 DUP4 ADD DUP4 PUSH2 0x16E3 JUMP JUMPDEST PUSH2 0x14B9 PUSH1 0x40 DUP6 ADD DUP3 PUSH2 0x134A JUMP JUMPDEST POP POP POP POP JUMP JUMPDEST PUSH2 0x14C8 DUP2 PUSH2 0x1796 JUMP JUMPDEST DUP3 MSTORE POP POP JUMP JUMPDEST PUSH2 0x14D7 DUP2 PUSH2 0x1796 JUMP JUMPDEST DUP3 MSTORE POP POP JUMP JUMPDEST PUSH2 0x14E6 DUP2 PUSH2 0x17A0 JUMP JUMPDEST DUP3 MSTORE POP POP JUMP JUMPDEST PUSH1 0x0 PUSH1 0x20 DUP3 ADD SWAP1 POP PUSH2 0x1501 PUSH1 0x0 DUP4 ADD DUP5 PUSH2 0x133B JUMP JUMPDEST SWAP3 SWAP2 POP POP JUMP JUMPDEST PUSH1 0x0 PUSH1 0x20 DUP3 ADD SWAP1 POP DUP2 DUP2 SUB PUSH1 0x0 DUP4 ADD MSTORE PUSH2 0x1520 DUP2 PUSH2 0x1359 JUMP JUMPDEST SWAP1 POP SWAP2 SWAP1 POP JUMP JUMPDEST PUSH1 0x0 PUSH1 0x20 DUP3 ADD SWAP1 POP DUP2 DUP2 SUB PUSH1 0x0 DUP4 ADD MSTORE PUSH2 0x1540 DUP2 PUSH2 0x13BF JUMP JUMPDEST SWAP1 POP SWAP2 SWAP1 POP JUMP JUMPDEST PUSH1 0x0 PUSH1 0x20 DUP3 ADD SWAP1 POP DUP2 DUP2 SUB PUSH1 0x0 DUP4 ADD MSTORE PUSH2 0x1560 DUP2 PUSH2 0x13FF JUMP JUMPDEST SWAP1 POP SWAP2 SWAP1 POP JUMP JUMPDEST PUSH1 0x0 PUSH2 0x1E0 DUP3 ADD SWAP1 POP PUSH2 0x157D PUSH1 0x0 DUP4 ADD DUP11 PUSH2 0x1465 JUMP JUMPDEST PUSH2 0x158A PUSH1 0x60 DUP4 ADD DUP10 PUSH2 0x1465 JUMP JUMPDEST PUSH2 0x1597 PUSH1 0xC0 DUP4 ADD DUP9 PUSH2 0x1465 JUMP JUMPDEST PUSH2 0x15A5 PUSH2 0x120 DUP4 ADD DUP8 PUSH2 0x1465 JUMP JUMPDEST PUSH2 0x15B3 PUSH2 0x180 DUP4 ADD DUP7 PUSH2 0x14CE JUMP JUMPDEST PUSH2 0x15C1 PUSH2 0x1A0 DUP4 ADD DUP6 PUSH2 0x14CE JUMP JUMPDEST PUSH2 0x15CF PUSH2 0x1C0 DUP4 ADD DUP5 PUSH2 0x14DD JUMP JUMPDEST SWAP9 SWAP8 POP POP POP POP POP POP POP POP JUMP JUMPDEST PUSH1 0x0 PUSH2 0x1C0 DUP3 ADD SWAP1 POP PUSH2 0x15F1 PUSH1 0x0 DUP4 ADD DUP10 PUSH2 0x1465 JUMP JUMPDEST PUSH2 0x15FE PUSH1 0x60 DUP4 ADD DUP9 PUSH2 0x1465 JUMP JUMPDEST PUSH2 0x160B PUSH1 0xC0 DUP4 ADD DUP8 PUSH2 0x1465 JUMP JUMPDEST PUSH2 0x1619 PUSH2 0x120 DUP4 ADD DUP7 PUSH2 0x1465 JUMP JUMPDEST PUSH2 0x1627 PUSH2 0x180 DUP4 ADD DUP6 PUSH2 0x14CE JUMP JUMPDEST PUSH2 0x1635 PUSH2 0x1A0 DUP4 ADD DUP5 PUSH2 0x14DD JUMP JUMPDEST SWAP8 SWAP7 POP POP POP POP POP POP POP JUMP JUMPDEST PUSH1 0x0 PUSH1 0x20 DUP3 ADD SWAP1 POP PUSH2 0x1655 PUSH1 0x0 DUP4 ADD DUP5 PUSH2 0x14CE JUMP JUMPDEST SWAP3 SWAP2 POP POP JUMP JUMPDEST PUSH1 0x0 PUSH1 0x40 DUP3 ADD SWAP1 POP PUSH2 0x1670 PUSH1 0x0 DUP4 ADD DUP6 PUSH2 0x14CE JUMP JUMPDEST PUSH2 0x167D PUSH1 0x20 DUP4 ADD DUP5 PUSH2 0x14CE JUMP JUMPDEST SWAP4 SWAP3 POP POP POP JUMP JUMPDEST PUSH1 0x0 PUSH1 0x60 DUP3 ADD SWAP1 POP PUSH2 0x1699 PUSH1 0x0 DUP4 ADD DUP7 PUSH2 0x14CE JUMP JUMPDEST PUSH2 0x16A6 PUSH1 0x20 DUP4 ADD DUP6 PUSH2 0x14CE JUMP JUMPDEST PUSH2 0x16B3 PUSH1 0x40 DUP4 ADD DUP5 PUSH2 0x133B JUMP JUMPDEST SWAP5 SWAP4 POP POP POP POP JUMP JUMPDEST PUSH1 0x0 DUP3 DUP3 MSTORE PUSH1 0x20 DUP3 ADD SWAP1 POP SWAP3 SWAP2 POP POP JUMP JUMPDEST PUSH1 0x0 PUSH2 0x16DB PUSH1 0x20 DUP5 ADD DUP5 PUSH2 0x100E JUMP JUMPDEST SWAP1 POP SWAP3 SWAP2 POP POP JUMP JUMPDEST PUSH1 0x0 PUSH2 0x16F2 PUSH1 0x20 DUP5 ADD DUP5 PUSH2 0x1038 JUMP JUMPDEST SWAP1 POP SWAP3 SWAP2 POP POP JUMP JUMPDEST PUSH1 0x0 PUSH2 0x1709 PUSH1 0x20 DUP5 ADD DUP5 PUSH2 0x1068 JUMP JUMPDEST SWAP1 POP SWAP3 SWAP2 POP POP JUMP JUMPDEST PUSH1 0x0 PUSH2 0x171C DUP3 PUSH2 0x1796 JUMP JUMPDEST SWAP2 POP PUSH2 0x1727 DUP4 PUSH2 0x1796 JUMP JUMPDEST SWAP3 POP DUP3 DUP3 LT ISZERO PUSH2 0x173A JUMPI PUSH2 0x1739 PUSH2 0x17C6 JUMP JUMPDEST JUMPDEST DUP3 DUP3 SUB SWAP1 POP SWAP3 SWAP2 POP POP JUMP JUMPDEST PUSH1 0x0 PUSH2 0x1750 DUP3 PUSH2 0x1776 JUMP JUMPDEST SWAP1 POP SWAP2 SWAP1 POP JUMP JUMPDEST PUSH1 0x0 DUP2 ISZERO ISZERO SWAP1 POP SWAP2 SWAP1 POP JUMP JUMPDEST PUSH1 0x0 DUP2 SWAP1 POP PUSH2 0x1771 DUP3 PUSH2 0x1824 JUMP JUMPDEST SWAP2 SWAP1 POP JUMP JUMPDEST PUSH1 0x0 PUSH20 0xFFFFFFFFFFFFFFFFFFFFFFFFFFFFFFFFFFFFFFFF DUP3 AND SWAP1 POP SWAP2 SWAP1 POP JUMP JUMPDEST PUSH1 0x0 DUP2 SWAP1 POP SWAP2 SWAP1 POP JUMP JUMPDEST PUSH1 0x0 PUSH8 0xFFFFFFFFFFFFFFFF DUP3 AND SWAP1 POP SWAP2 SWAP1 POP JUMP JUMPDEST PUSH1 0x0 PUSH2 0x17BF DUP3 PUSH2 0x1763 JUMP JUMPDEST SWAP1 POP SWAP2 SWAP1 POP JUMP JUMPDEST PUSH32 0x4E487B7100000000000000000000000000000000000000000000000000000000 PUSH1 0x0 MSTORE PUSH1 0x11 PUSH1 0x4 MSTORE PUSH1 0x24 PUSH1 0x0 REVERT JUMPDEST PUSH32 0x4E487B7100000000000000000000000000000000000000000000000000000000 PUSH1 0x0 MSTORE PUSH1 0x21 PUSH1 0x4 MSTORE PUSH1 0x24 PUSH1 0x0 REVERT JUMPDEST PUSH1 0x4 DUP2 LT PUSH2 0x1835 JUMPI PUSH2 0x1834 PUSH2 0x17F5 JUMP JUMPDEST JUMPDEST POP JUMP JUMPDEST PUSH2 0x1841 DUP2 PUSH2 0x1745 JUMP JUMPDEST DUP2 EQ PUSH2 0x184C JUMPI PUSH1 0x0 DUP1 REVERT JUMPDEST POP JUMP JUMPDEST PUSH2 0x1858 DUP2 PUSH2 0x1757 JUMP JUMPDEST DUP2 EQ PUSH2 0x1863 JUMPI PUSH1 0x0 DUP1 REVERT JUMPDEST POP JUMP JUMPDEST PUSH1 0x4 DUP2 LT PUSH2 0x1873 JUMPI PUSH1 0x0 DUP1 REVERT JUMPDEST POP JUMP JUMPDEST PUSH2 0x187F DUP2 PUSH2 0x1796 JUMP JUMPDEST DUP2 EQ PUSH2 0x188A JUMPI PUSH1 0x0 DUP1 REVERT JUMPDEST POP JUMP INVALID LOG2 PUSH5 0x6970667358 0x22 SLT KECCAK256 CALLDATASIZE GASPRICE PUSH4 0xD36054A 0x2A PUSH23 0xEE5E5CEB5C01E66D8DE6FA9F1074D4BAF812C2F24031A1 PUSH5 0x736F6C6343 STOP ADDMOD STOP STOP CALLER "
        },
        "methodIdentifiers": {
          "canFinalise(address,uint256)": "79b5080f",
          "convert(address,(uint256,address,uint8),(uint256,address,uint8),(uint256,address,uint8),(uint256,address,uint8),uint256,uint256,uint256)": "d9b5fb79",
          "finalise(address,(uint256,address,uint8),(uint256,address,uint8),(uint256,address,uint8),(uint256,address,uint8),uint256,uint256)": "cc073557"
        }
      }
    }
  }
}