{
  "contracts/YearnBridge.sol": {
    "YearnBridge": {
      "abi": [
        {
          "inputs": [
            {
              "internalType": "address",
              "name": "_rollupProcessor",
              "type": "address"
            }
          ],
          "stateMutability": "nonpayable",
          "type": "constructor"
        },
        {
          "inputs": [
            {
              "internalType": "uint256",
              "name": "",
              "type": "uint256"
            }
          ],
          "name": "canFinalise",
          "outputs": [
            {
              "internalType": "bool",
              "name": "",
              "type": "bool"
            }
          ],
          "stateMutability": "view",
          "type": "function"
        },
        {
          "inputs": [
            {
              "components": [
                {
                  "internalType": "uint256",
                  "name": "id",
                  "type": "uint256"
                },
                {
                  "internalType": "address",
                  "name": "erc20Address",
                  "type": "address"
                },
                {
                  "internalType": "enum Types.AztecAssetType",
                  "name": "assetType",
                  "type": "uint8"
                }
              ],
              "internalType": "struct Types.AztecAsset",
              "name": "inputAssetA",
              "type": "tuple"
            },
            {
              "components": [
                {
                  "internalType": "uint256",
                  "name": "id",
                  "type": "uint256"
                },
                {
                  "internalType": "address",
                  "name": "erc20Address",
                  "type": "address"
                },
                {
                  "internalType": "enum Types.AztecAssetType",
                  "name": "assetType",
                  "type": "uint8"
                }
              ],
              "internalType": "struct Types.AztecAsset",
              "name": "",
              "type": "tuple"
            },
            {
              "components": [
                {
                  "internalType": "uint256",
                  "name": "id",
                  "type": "uint256"
                },
                {
                  "internalType": "address",
                  "name": "erc20Address",
                  "type": "address"
                },
                {
                  "internalType": "enum Types.AztecAssetType",
                  "name": "assetType",
                  "type": "uint8"
                }
              ],
              "internalType": "struct Types.AztecAsset",
              "name": "outputAssetA",
              "type": "tuple"
            },
            {
              "components": [
                {
                  "internalType": "uint256",
                  "name": "id",
                  "type": "uint256"
                },
                {
                  "internalType": "address",
                  "name": "erc20Address",
                  "type": "address"
                },
                {
                  "internalType": "enum Types.AztecAssetType",
                  "name": "assetType",
                  "type": "uint8"
                }
              ],
              "internalType": "struct Types.AztecAsset",
              "name": "",
              "type": "tuple"
            },
            {
              "internalType": "uint256",
              "name": "inputValue",
              "type": "uint256"
            },
            {
              "internalType": "uint256",
              "name": "",
              "type": "uint256"
            },
            {
              "internalType": "uint64",
              "name": "",
              "type": "uint64"
            }
          ],
          "name": "convert",
          "outputs": [
            {
              "internalType": "uint256",
              "name": "outputValueA",
              "type": "uint256"
            },
            {
              "internalType": "uint256",
              "name": "",
              "type": "uint256"
            },
            {
              "internalType": "bool",
              "name": "isAsync",
              "type": "bool"
            }
          ],
          "stateMutability": "payable",
          "type": "function"
        },
        {
          "inputs": [],
          "name": "daiAddress",
          "outputs": [
            {
              "internalType": "address",
              "name": "",
              "type": "address"
            }
          ],
          "stateMutability": "view",
          "type": "function"
        },
        {
          "inputs": [
            {
              "components": [
                {
                  "internalType": "uint256",
                  "name": "id",
                  "type": "uint256"
                },
                {
                  "internalType": "address",
                  "name": "erc20Address",
                  "type": "address"
                },
                {
                  "internalType": "enum Types.AztecAssetType",
                  "name": "assetType",
                  "type": "uint8"
                }
              ],
              "internalType": "struct Types.AztecAsset",
              "name": "",
              "type": "tuple"
            },
            {
              "components": [
                {
                  "internalType": "uint256",
                  "name": "id",
                  "type": "uint256"
                },
                {
                  "internalType": "address",
                  "name": "erc20Address",
                  "type": "address"
                },
                {
                  "internalType": "enum Types.AztecAssetType",
                  "name": "assetType",
                  "type": "uint8"
                }
              ],
              "internalType": "struct Types.AztecAsset",
              "name": "",
              "type": "tuple"
            },
            {
              "components": [
                {
                  "internalType": "uint256",
                  "name": "id",
                  "type": "uint256"
                },
                {
                  "internalType": "address",
                  "name": "erc20Address",
                  "type": "address"
                },
                {
                  "internalType": "enum Types.AztecAssetType",
                  "name": "assetType",
                  "type": "uint8"
                }
              ],
              "internalType": "struct Types.AztecAsset",
              "name": "",
              "type": "tuple"
            },
            {
              "components": [
                {
                  "internalType": "uint256",
                  "name": "id",
                  "type": "uint256"
                },
                {
                  "internalType": "address",
                  "name": "erc20Address",
                  "type": "address"
                },
                {
                  "internalType": "enum Types.AztecAssetType",
                  "name": "assetType",
                  "type": "uint8"
                }
              ],
              "internalType": "struct Types.AztecAsset",
              "name": "",
              "type": "tuple"
            },
            {
              "internalType": "uint256",
              "name": "",
              "type": "uint256"
            },
            {
              "internalType": "uint64",
              "name": "",
              "type": "uint64"
            }
          ],
          "name": "finalise",
          "outputs": [
            {
              "internalType": "uint256",
              "name": "",
              "type": "uint256"
            },
            {
              "internalType": "uint256",
              "name": "",
              "type": "uint256"
            }
          ],
          "stateMutability": "payable",
          "type": "function"
        },
        {
          "inputs": [],
          "name": "rollupProcessor",
          "outputs": [
            {
              "internalType": "address",
              "name": "",
              "type": "address"
            }
          ],
          "stateMutability": "view",
          "type": "function"
        },
        {
          "inputs": [],
          "name": "yvdaiAddress",
          "outputs": [
            {
              "internalType": "address",
              "name": "",
              "type": "address"
            }
          ],
          "stateMutability": "view",
          "type": "function"
        },
        {
          "stateMutability": "payable",
          "type": "receive"
        }
      ],
      "evm": {
        "bytecode": {
          "linkReferences": {},
          "object": "60e0604052736b175474e89094c44da98b954eedeac495271d0f73ffffffffffffffffffffffffffffffffffffffff1660a09073ffffffffffffffffffffffffffffffffffffffff1660601b81525073da816459f1ab5631232fe5e97a05bbbb94970c9573ffffffffffffffffffffffffffffffffffffffff1660c09073ffffffffffffffffffffffffffffffffffffffff1660601b8152503480156100a457600080fd5b50604051610c41380380610c4183398181016040528101906100c69190610118565b8073ffffffffffffffffffffffffffffffffffffffff1660808173ffffffffffffffffffffffffffffffffffffffff1660601b815250505061018a565b60008151905061011281610173565b92915050565b60006020828403121561012a57600080fd5b600061013884828501610103565b91505092915050565b600061014c82610153565b9050919050565b600073ffffffffffffffffffffffffffffffffffffffff82169050919050565b61017c81610141565b811461018757600080fd5b50565b60805160601c60a05160601c60c05160601c610a556101ec600039600081816101ac01528181610269015261028c0152600061054e015260008181610188015281816101d501528181610325015281816103d601526104a40152610a556000f3fe6080604052600436106100595760003560e01c80632a113d6e146100655780632c387275146100905780635254162b146100bb5780637224f4eb146100ed5780639696e90c1461012a5780639b07d3421461015557610060565b3661006057005b600080fd5b34801561007157600080fd5b5061007a610186565b604051610087919061084e565b60405180910390f35b34801561009c57600080fd5b506100a56101aa565b6040516100b2919061084e565b60405180910390f35b6100d560048036038101906100d0919061065f565b6101ce565b6040516100e49392919061091f565b60405180910390f35b3480156100f957600080fd5b50610114600480360381019061010f919061078f565b610545565b6040516101219190610892565b60405180910390f35b34801561013657600080fd5b5061013f61054c565b60405161014c919061084e565b60405180910390f35b61016f600480360381019061016a9190610702565b610570565b60405161017d9291906108f6565b60405180910390f35b7f000000000000000000000000000000000000000000000000000000000000000081565b7f000000000000000000000000000000000000000000000000000000000000000081565b60008060007f000000000000000000000000000000000000000000000000000000000000000073ffffffffffffffffffffffffffffffffffffffff163373ffffffffffffffffffffffffffffffffffffffff1614610261576040517f08c379a0000000000000000000000000000000000000000000000000000000008152600401610258906108ad565b60405180910390fd5b6000905060007f000000000000000000000000000000000000000000000000000000000000000090507f000000000000000000000000000000000000000000000000000000000000000073ffffffffffffffffffffffffffffffffffffffff168b60200160208101906102d4919061060d565b73ffffffffffffffffffffffffffffffffffffffff16141561046d576000896020016020810190610305919061060d565b90508173ffffffffffffffffffffffffffffffffffffffff1663095ea7b37f00000000000000000000000000000000000000000000000000000000000000008a6040518363ffffffff1660e01b8152600401610362929190610869565b602060405180830381600087803b15801561037c57600080fd5b505af1158015610390573d6000803e3d6000fd5b505050506040513d601f19601f820116820180604052508101906103b49190610636565b5060008173ffffffffffffffffffffffffffffffffffffffff16636e553f658a7f00000000000000000000000000000000000000000000000000000000000000006040518363ffffffff1660e01b81526004016104129291906108cd565b602060405180830381600087803b15801561042c57600080fd5b505af1158015610440573d6000803e3d6000fd5b505050506040513d601f19601f8201168201806040525081019061046491906107b8565b90505050610537565b60008b6020016020810190610482919061060d565b905060008173ffffffffffffffffffffffffffffffffffffffff1662f714ce8a7f00000000000000000000000000000000000000000000000000000000000000006040518363ffffffff1660e01b81526004016104e09291906108cd565b602060405180830381600087803b1580156104fa57600080fd5b505af115801561050e573d6000803e3d6000fd5b505050506040513d601f19601f8201168201806040525081019061053291906107b8565b905050505b509750975097945050505050565b6000919050565b7f000000000000000000000000000000000000000000000000000000000000000081565b600080600061057e57600080fd5b965096945050505050565b600081359050610598816109c3565b92915050565b6000815190506105ad816109da565b92915050565b6000606082840312156105c557600080fd5b81905092915050565b6000813590506105dd816109f1565b92915050565b6000815190506105f2816109f1565b92915050565b60008135905061060781610a08565b92915050565b60006020828403121561061f57600080fd5b600061062d84828501610589565b91505092915050565b60006020828403121561064857600080fd5b60006106568482850161059e565b91505092915050565b60008060008060008060006101e0888a03121561067b57600080fd5b60006106898a828b016105b3565b975050606061069a8a828b016105b3565b96505060c06106ab8a828b016105b3565b9550506101206106bd8a828b016105b3565b9450506101806106cf8a828b016105ce565b9350506101a06106e18a828b016105ce565b9250506101c06106f38a828b016105f8565b91505092959891949750929550565b6000806000806000806101c0878903121561071c57600080fd5b600061072a89828a016105b3565b965050606061073b89828a016105b3565b95505060c061074c89828a016105b3565b94505061012061075e89828a016105b3565b93505061018061077089828a016105ce565b9250506101a061078289828a016105f8565b9150509295509295509295565b6000602082840312156107a157600080fd5b60006107af848285016105ce565b91505092915050565b6000602082840312156107ca57600080fd5b60006107d8848285016105e3565b91505092915050565b6107ea81610967565b82525050565b6107f981610979565b82525050565b600061080c601b83610956565b91507f596561726e4272646967653a20494e56414c49445f43414c4c455200000000006000830152602082019050919050565b610848816109a5565b82525050565b600060208201905061086360008301846107e1565b92915050565b600060408201905061087e60008301856107e1565b61088b602083018461083f565b9392505050565b60006020820190506108a760008301846107f0565b92915050565b600060208201905081810360008301526108c6816107ff565b9050919050565b60006040820190506108e2600083018561083f565b6108ef60208301846107e1565b9392505050565b600060408201905061090b600083018561083f565b610918602083018461083f565b9392505050565b6000606082019050610934600083018661083f565b610941602083018561083f565b61094e60408301846107f0565b949350505050565b600082825260208201905092915050565b600061097282610985565b9050919050565b60008115159050919050565b600073ffffffffffffffffffffffffffffffffffffffff82169050919050565b6000819050919050565b600067ffffffffffffffff82169050919050565b6109cc81610967565b81146109d757600080fd5b50565b6109e381610979565b81146109ee57600080fd5b50565b6109fa816109a5565b8114610a0557600080fd5b50565b610a11816109af565b8114610a1c57600080fd5b5056fea2646970667358221220b04cbc2cc33be77281bd83afa1c81546b071855bcbc82166a524c211f87ce58364736f6c63430008000033",
          "opcodes": "PUSH1 0xE0 PUSH1 0x40 MSTORE PUSH20 0x6B175474E89094C44DA98B954EEDEAC495271D0F PUSH20 0xFFFFFFFFFFFFFFFFFFFFFFFFFFFFFFFFFFFFFFFF AND PUSH1 0xA0 SWAP1 PUSH20 0xFFFFFFFFFFFFFFFFFFFFFFFFFFFFFFFFFFFFFFFF AND PUSH1 0x60 SHL DUP2 MSTORE POP PUSH20 0xDA816459F1AB5631232FE5E97A05BBBB94970C95 PUSH20 0xFFFFFFFFFFFFFFFFFFFFFFFFFFFFFFFFFFFFFFFF AND PUSH1 0xC0 SWAP1 PUSH20 0xFFFFFFFFFFFFFFFFFFFFFFFFFFFFFFFFFFFFFFFF AND PUSH1 0x60 SHL DUP2 MSTORE POP CALLVALUE DUP1 ISZERO PUSH2 0xA4 JUMPI PUSH1 0x0 DUP1 REVERT JUMPDEST POP PUSH1 0x40 MLOAD PUSH2 0xC41 CODESIZE SUB DUP1 PUSH2 0xC41 DUP4 CODECOPY DUP2 DUP2 ADD PUSH1 0x40 MSTORE DUP2 ADD SWAP1 PUSH2 0xC6 SWAP2 SWAP1 PUSH2 0x118 JUMP JUMPDEST DUP1 PUSH20 0xFFFFFFFFFFFFFFFFFFFFFFFFFFFFFFFFFFFFFFFF AND PUSH1 0x80 DUP2 PUSH20 0xFFFFFFFFFFFFFFFFFFFFFFFFFFFFFFFFFFFFFFFF AND PUSH1 0x60 SHL DUP2 MSTORE POP POP POP PUSH2 0x18A JUMP JUMPDEST PUSH1 0x0 DUP2 MLOAD SWAP1 POP PUSH2 0x112 DUP2 PUSH2 0x173 JUMP JUMPDEST SWAP3 SWAP2 POP POP JUMP JUMPDEST PUSH1 0x0 PUSH1 0x20 DUP3 DUP5 SUB SLT ISZERO PUSH2 0x12A JUMPI PUSH1 0x0 DUP1 REVERT JUMPDEST PUSH1 0x0 PUSH2 0x138 DUP5 DUP3 DUP6 ADD PUSH2 0x103 JUMP JUMPDEST SWAP2 POP POP SWAP3 SWAP2 POP POP JUMP JUMPDEST PUSH1 0x0 PUSH2 0x14C DUP3 PUSH2 0x153 JUMP JUMPDEST SWAP1 POP SWAP2 SWAP1 POP JUMP JUMPDEST PUSH1 0x0 PUSH20 0xFFFFFFFFFFFFFFFFFFFFFFFFFFFFFFFFFFFFFFFF DUP3 AND SWAP1 POP SWAP2 SWAP1 POP JUMP JUMPDEST PUSH2 0x17C DUP2 PUSH2 0x141 JUMP JUMPDEST DUP2 EQ PUSH2 0x187 JUMPI PUSH1 0x0 DUP1 REVERT JUMPDEST POP JUMP JUMPDEST PUSH1 0x80 MLOAD PUSH1 0x60 SHR PUSH1 0xA0 MLOAD PUSH1 0x60 SHR PUSH1 0xC0 MLOAD PUSH1 0x60 SHR PUSH2 0xA55 PUSH2 0x1EC PUSH1 0x0 CODECOPY PUSH1 0x0 DUP2 DUP2 PUSH2 0x1AC ADD MSTORE DUP2 DUP2 PUSH2 0x269 ADD MSTORE PUSH2 0x28C ADD MSTORE PUSH1 0x0 PUSH2 0x54E ADD MSTORE PUSH1 0x0 DUP2 DUP2 PUSH2 0x188 ADD MSTORE DUP2 DUP2 PUSH2 0x1D5 ADD MSTORE DUP2 DUP2 PUSH2 0x325 ADD MSTORE DUP2 DUP2 PUSH2 0x3D6 ADD MSTORE PUSH2 0x4A4 ADD MSTORE PUSH2 0xA55 PUSH1 0x0 RETURN INVALID PUSH1 0x80 PUSH1 0x40 MSTORE PUSH1 0x4 CALLDATASIZE LT PUSH2 0x59 JUMPI PUSH1 0x0 CALLDATALOAD PUSH1 0xE0 SHR DUP1 PUSH4 0x2A113D6E EQ PUSH2 0x65 JUMPI DUP1 PUSH4 0x2C387275 EQ PUSH2 0x90 JUMPI DUP1 PUSH4 0x5254162B EQ PUSH2 0xBB JUMPI DUP1 PUSH4 0x7224F4EB EQ PUSH2 0xED JUMPI DUP1 PUSH4 0x9696E90C EQ PUSH2 0x12A JUMPI DUP1 PUSH4 0x9B07D342 EQ PUSH2 0x155 JUMPI PUSH2 0x60 JUMP JUMPDEST CALLDATASIZE PUSH2 0x60 JUMPI STOP JUMPDEST PUSH1 0x0 DUP1 REVERT JUMPDEST CALLVALUE DUP1 ISZERO PUSH2 0x71 JUMPI PUSH1 0x0 DUP1 REVERT JUMPDEST POP PUSH2 0x7A PUSH2 0x186 JUMP JUMPDEST PUSH1 0x40 MLOAD PUSH2 0x87 SWAP2 SWAP1 PUSH2 0x84E JUMP JUMPDEST PUSH1 0x40 MLOAD DUP1 SWAP2 SUB SWAP1 RETURN JUMPDEST CALLVALUE DUP1 ISZERO PUSH2 0x9C JUMPI PUSH1 0x0 DUP1 REVERT JUMPDEST POP PUSH2 0xA5 PUSH2 0x1AA JUMP JUMPDEST PUSH1 0x40 MLOAD PUSH2 0xB2 SWAP2 SWAP1 PUSH2 0x84E JUMP JUMPDEST PUSH1 0x40 MLOAD DUP1 SWAP2 SUB SWAP1 RETURN JUMPDEST PUSH2 0xD5 PUSH1 0x4 DUP1 CALLDATASIZE SUB DUP2 ADD SWAP1 PUSH2 0xD0 SWAP2 SWAP1 PUSH2 0x65F JUMP JUMPDEST PUSH2 0x1CE JUMP JUMPDEST PUSH1 0x40 MLOAD PUSH2 0xE4 SWAP4 SWAP3 SWAP2 SWAP1 PUSH2 0x91F JUMP JUMPDEST PUSH1 0x40 MLOAD DUP1 SWAP2 SUB SWAP1 RETURN JUMPDEST CALLVALUE DUP1 ISZERO PUSH2 0xF9 JUMPI PUSH1 0x0 DUP1 REVERT JUMPDEST POP PUSH2 0x114 PUSH1 0x4 DUP1 CALLDATASIZE SUB DUP2 ADD SWAP1 PUSH2 0x10F SWAP2 SWAP1 PUSH2 0x78F JUMP JUMPDEST PUSH2 0x545 JUMP JUMPDEST PUSH1 0x40 MLOAD PUSH2 0x121 SWAP2 SWAP1 PUSH2 0x892 JUMP JUMPDEST PUSH1 0x40 MLOAD DUP1 SWAP2 SUB SWAP1 RETURN JUMPDEST CALLVALUE DUP1 ISZERO PUSH2 0x136 JUMPI PUSH1 0x0 DUP1 REVERT JUMPDEST POP PUSH2 0x13F PUSH2 0x54C JUMP JUMPDEST PUSH1 0x40 MLOAD PUSH2 0x14C SWAP2 SWAP1 PUSH2 0x84E JUMP JUMPDEST PUSH1 0x40 MLOAD DUP1 SWAP2 SUB SWAP1 RETURN JUMPDEST PUSH2 0x16F PUSH1 0x4 DUP1 CALLDATASIZE SUB DUP2 ADD SWAP1 PUSH2 0x16A SWAP2 SWAP1 PUSH2 0x702 JUMP JUMPDEST PUSH2 0x570 JUMP JUMPDEST PUSH1 0x40 MLOAD PUSH2 0x17D SWAP3 SWAP2 SWAP1 PUSH2 0x8F6 JUMP JUMPDEST PUSH1 0x40 MLOAD DUP1 SWAP2 SUB SWAP1 RETURN JUMPDEST PUSH32 0x0 DUP2 JUMP JUMPDEST PUSH32 0x0 DUP2 JUMP JUMPDEST PUSH1 0x0 DUP1 PUSH1 0x0 PUSH32 0x0 PUSH20 0xFFFFFFFFFFFFFFFFFFFFFFFFFFFFFFFFFFFFFFFF AND CALLER PUSH20 0xFFFFFFFFFFFFFFFFFFFFFFFFFFFFFFFFFFFFFFFF AND EQ PUSH2 0x261 JUMPI PUSH1 0x40 MLOAD PUSH32 0x8C379A000000000000000000000000000000000000000000000000000000000 DUP2 MSTORE PUSH1 0x4 ADD PUSH2 0x258 SWAP1 PUSH2 0x8AD JUMP JUMPDEST PUSH1 0x40 MLOAD DUP1 SWAP2 SUB SWAP1 REVERT JUMPDEST PUSH1 0x0 SWAP1 POP PUSH1 0x0 PUSH32 0x0 SWAP1 POP PUSH32 0x0 PUSH20 0xFFFFFFFFFFFFFFFFFFFFFFFFFFFFFFFFFFFFFFFF AND DUP12 PUSH1 0x20 ADD PUSH1 0x20 DUP2 ADD SWAP1 PUSH2 0x2D4 SWAP2 SWAP1 PUSH2 0x60D JUMP JUMPDEST PUSH20 0xFFFFFFFFFFFFFFFFFFFFFFFFFFFFFFFFFFFFFFFF AND EQ ISZERO PUSH2 0x46D JUMPI PUSH1 0x0 DUP10 PUSH1 0x20 ADD PUSH1 0x20 DUP2 ADD SWAP1 PUSH2 0x305 SWAP2 SWAP1 PUSH2 0x60D JUMP JUMPDEST SWAP1 POP DUP2 PUSH20 0xFFFFFFFFFFFFFFFFFFFFFFFFFFFFFFFFFFFFFFFF AND PUSH4 0x95EA7B3 PUSH32 0x0 DUP11 PUSH1 0x40 MLOAD DUP4 PUSH4 0xFFFFFFFF AND PUSH1 0xE0 SHL DUP2 MSTORE PUSH1 0x4 ADD PUSH2 0x362 SWAP3 SWAP2 SWAP1 PUSH2 0x869 JUMP JUMPDEST PUSH1 0x20 PUSH1 0x40 MLOAD DUP1 DUP4 SUB DUP2 PUSH1 0x0 DUP8 DUP1 EXTCODESIZE ISZERO DUP1 ISZERO PUSH2 0x37C JUMPI PUSH1 0x0 DUP1 REVERT JUMPDEST POP GAS CALL ISZERO DUP1 ISZERO PUSH2 0x390 JUMPI RETURNDATASIZE PUSH1 0x0 DUP1 RETURNDATACOPY RETURNDATASIZE PUSH1 0x0 REVERT JUMPDEST POP POP POP POP PUSH1 0x40 MLOAD RETURNDATASIZE PUSH1 0x1F NOT PUSH1 0x1F DUP3 ADD AND DUP3 ADD DUP1 PUSH1 0x40 MSTORE POP DUP2 ADD SWAP1 PUSH2 0x3B4 SWAP2 SWAP1 PUSH2 0x636 JUMP JUMPDEST POP PUSH1 0x0 DUP2 PUSH20 0xFFFFFFFFFFFFFFFFFFFFFFFFFFFFFFFFFFFFFFFF AND PUSH4 0x6E553F65 DUP11 PUSH32 0x0 PUSH1 0x40 MLOAD DUP4 PUSH4 0xFFFFFFFF AND PUSH1 0xE0 SHL DUP2 MSTORE PUSH1 0x4 ADD PUSH2 0x412 SWAP3 SWAP2 SWAP1 PUSH2 0x8CD JUMP JUMPDEST PUSH1 0x20 PUSH1 0x40 MLOAD DUP1 DUP4 SUB DUP2 PUSH1 0x0 DUP8 DUP1 EXTCODESIZE ISZERO DUP1 ISZERO PUSH2 0x42C JUMPI PUSH1 0x0 DUP1 REVERT JUMPDEST POP GAS CALL ISZERO DUP1 ISZERO PUSH2 0x440 JUMPI RETURNDATASIZE PUSH1 0x0 DUP1 RETURNDATACOPY RETURNDATASIZE PUSH1 0x0 REVERT JUMPDEST POP POP POP POP PUSH1 0x40 MLOAD RETURNDATASIZE PUSH1 0x1F NOT PUSH1 0x1F DUP3 ADD AND DUP3 ADD DUP1 PUSH1 0x40 MSTORE POP DUP2 ADD SWAP1 PUSH2 0x464 SWAP2 SWAP1 PUSH2 0x7B8 JUMP JUMPDEST SWAP1 POP POP POP PUSH2 0x537 JUMP JUMPDEST PUSH1 0x0 DUP12 PUSH1 0x20 ADD PUSH1 0x20 DUP2 ADD SWAP1 PUSH2 0x482 SWAP2 SWAP1 PUSH2 0x60D JUMP JUMPDEST SWAP1 POP PUSH1 0x0 DUP2 PUSH20 0xFFFFFFFFFFFFFFFFFFFFFFFFFFFFFFFFFFFFFFFF AND PUSH3 0xF714CE DUP11 PUSH32 0x0 PUSH1 0x40 MLOAD DUP4 PUSH4 0xFFFFFFFF AND PUSH1 0xE0 SHL DUP2 MSTORE PUSH1 0x4 ADD PUSH2 0x4E0 SWAP3 SWAP2 SWAP1 PUSH2 0x8CD JUMP JUMPDEST PUSH1 0x20 PUSH1 0x40 MLOAD DUP1 DUP4 SUB DUP2 PUSH1 0x0 DUP8 DUP1 EXTCODESIZE ISZERO DUP1 ISZERO PUSH2 0x4FA JUMPI PUSH1 0x0 DUP1 REVERT JUMPDEST POP GAS CALL ISZERO DUP1 ISZERO PUSH2 0x50E JUMPI RETURNDATASIZE PUSH1 0x0 DUP1 RETURNDATACOPY RETURNDATASIZE PUSH1 0x0 REVERT JUMPDEST POP POP POP POP PUSH1 0x40 MLOAD RETURNDATASIZE PUSH1 0x1F NOT PUSH1 0x1F DUP3 ADD AND DUP3 ADD DUP1 PUSH1 0x40 MSTORE POP DUP2 ADD SWAP1 PUSH2 0x532 SWAP2 SWAP1 PUSH2 0x7B8 JUMP JUMPDEST SWAP1 POP POP POP JUMPDEST POP SWAP8 POP SWAP8 POP SWAP8 SWAP5 POP POP POP POP POP JUMP JUMPDEST PUSH1 0x0 SWAP2 SWAP1 POP JUMP JUMPDEST PUSH32 0x0 DUP2 JUMP JUMPDEST PUSH1 0x0 DUP1 PUSH1 0x0 PUSH2 0x57E JUMPI PUSH1 0x0 DUP1 REVERT JUMPDEST SWAP7 POP SWAP7 SWAP5 POP POP POP POP POP JUMP JUMPDEST PUSH1 0x0 DUP2 CALLDATALOAD SWAP1 POP PUSH2 0x598 DUP2 PUSH2 0x9C3 JUMP JUMPDEST SWAP3 SWAP2 POP POP JUMP JUMPDEST PUSH1 0x0 DUP2 MLOAD SWAP1 POP PUSH2 0x5AD DUP2 PUSH2 0x9DA JUMP JUMPDEST SWAP3 SWAP2 POP POP JUMP JUMPDEST PUSH1 0x0 PUSH1 0x60 DUP3 DUP5 SUB SLT ISZERO PUSH2 0x5C5 JUMPI PUSH1 0x0 DUP1 REVERT JUMPDEST DUP2 SWAP1 POP SWAP3 SWAP2 POP POP JUMP JUMPDEST PUSH1 0x0 DUP2 CALLDATALOAD SWAP1 POP PUSH2 0x5DD DUP2 PUSH2 0x9F1 JUMP JUMPDEST SWAP3 SWAP2 POP POP JUMP JUMPDEST PUSH1 0x0 DUP2 MLOAD SWAP1 POP PUSH2 0x5F2 DUP2 PUSH2 0x9F1 JUMP JUMPDEST SWAP3 SWAP2 POP POP JUMP JUMPDEST PUSH1 0x0 DUP2 CALLDATALOAD SWAP1 POP PUSH2 0x607 DUP2 PUSH2 0xA08 JUMP JUMPDEST SWAP3 SWAP2 POP POP JUMP JUMPDEST PUSH1 0x0 PUSH1 0x20 DUP3 DUP5 SUB SLT ISZERO PUSH2 0x61F JUMPI PUSH1 0x0 DUP1 REVERT JUMPDEST PUSH1 0x0 PUSH2 0x62D DUP5 DUP3 DUP6 ADD PUSH2 0x589 JUMP JUMPDEST SWAP2 POP POP SWAP3 SWAP2 POP POP JUMP JUMPDEST PUSH1 0x0 PUSH1 0x20 DUP3 DUP5 SUB SLT ISZERO PUSH2 0x648 JUMPI PUSH1 0x0 DUP1 REVERT JUMPDEST PUSH1 0x0 PUSH2 0x656 DUP5 DUP3 DUP6 ADD PUSH2 0x59E JUMP JUMPDEST SWAP2 POP POP SWAP3 SWAP2 POP POP JUMP JUMPDEST PUSH1 0x0 DUP1 PUSH1 0x0 DUP1 PUSH1 0x0 DUP1 PUSH1 0x0 PUSH2 0x1E0 DUP9 DUP11 SUB SLT ISZERO PUSH2 0x67B JUMPI PUSH1 0x0 DUP1 REVERT JUMPDEST PUSH1 0x0 PUSH2 0x689 DUP11 DUP3 DUP12 ADD PUSH2 0x5B3 JUMP JUMPDEST SWAP8 POP POP PUSH1 0x60 PUSH2 0x69A DUP11 DUP3 DUP12 ADD PUSH2 0x5B3 JUMP JUMPDEST SWAP7 POP POP PUSH1 0xC0 PUSH2 0x6AB DUP11 DUP3 DUP12 ADD PUSH2 0x5B3 JUMP JUMPDEST SWAP6 POP POP PUSH2 0x120 PUSH2 0x6BD DUP11 DUP3 DUP12 ADD PUSH2 0x5B3 JUMP JUMPDEST SWAP5 POP POP PUSH2 0x180 PUSH2 0x6CF DUP11 DUP3 DUP12 ADD PUSH2 0x5CE JUMP JUMPDEST SWAP4 POP POP PUSH2 0x1A0 PUSH2 0x6E1 DUP11 DUP3 DUP12 ADD PUSH2 0x5CE JUMP JUMPDEST SWAP3 POP POP PUSH2 0x1C0 PUSH2 0x6F3 DUP11 DUP3 DUP12 ADD PUSH2 0x5F8 JUMP JUMPDEST SWAP2 POP POP SWAP3 SWAP6 SWAP9 SWAP2 SWAP5 SWAP8 POP SWAP3 SWAP6 POP JUMP JUMPDEST PUSH1 0x0 DUP1 PUSH1 0x0 DUP1 PUSH1 0x0 DUP1 PUSH2 0x1C0 DUP8 DUP10 SUB SLT ISZERO PUSH2 0x71C JUMPI PUSH1 0x0 DUP1 REVERT JUMPDEST PUSH1 0x0 PUSH2 0x72A DUP10 DUP3 DUP11 ADD PUSH2 0x5B3 JUMP JUMPDEST SWAP7 POP POP PUSH1 0x60 PUSH2 0x73B DUP10 DUP3 DUP11 ADD PUSH2 0x5B3 JUMP JUMPDEST SWAP6 POP POP PUSH1 0xC0 PUSH2 0x74C DUP10 DUP3 DUP11 ADD PUSH2 0x5B3 JUMP JUMPDEST SWAP5 POP POP PUSH2 0x120 PUSH2 0x75E DUP10 DUP3 DUP11 ADD PUSH2 0x5B3 JUMP JUMPDEST SWAP4 POP POP PUSH2 0x180 PUSH2 0x770 DUP10 DUP3 DUP11 ADD PUSH2 0x5CE JUMP JUMPDEST SWAP3 POP POP PUSH2 0x1A0 PUSH2 0x782 DUP10 DUP3 DUP11 ADD PUSH2 0x5F8 JUMP JUMPDEST SWAP2 POP POP SWAP3 SWAP6 POP SWAP3 SWAP6 POP SWAP3 SWAP6 JUMP JUMPDEST PUSH1 0x0 PUSH1 0x20 DUP3 DUP5 SUB SLT ISZERO PUSH2 0x7A1 JUMPI PUSH1 0x0 DUP1 REVERT JUMPDEST PUSH1 0x0 PUSH2 0x7AF DUP5 DUP3 DUP6 ADD PUSH2 0x5CE JUMP JUMPDEST SWAP2 POP POP SWAP3 SWAP2 POP POP JUMP JUMPDEST PUSH1 0x0 PUSH1 0x20 DUP3 DUP5 SUB SLT ISZERO PUSH2 0x7CA JUMPI PUSH1 0x0 DUP1 REVERT JUMPDEST PUSH1 0x0 PUSH2 0x7D8 DUP5 DUP3 DUP6 ADD PUSH2 0x5E3 JUMP JUMPDEST SWAP2 POP POP SWAP3 SWAP2 POP POP JUMP JUMPDEST PUSH2 0x7EA DUP2 PUSH2 0x967 JUMP JUMPDEST DUP3 MSTORE POP POP JUMP JUMPDEST PUSH2 0x7F9 DUP2 PUSH2 0x979 JUMP JUMPDEST DUP3 MSTORE POP POP JUMP JUMPDEST PUSH1 0x0 PUSH2 0x80C PUSH1 0x1B DUP4 PUSH2 0x956 JUMP JUMPDEST SWAP2 POP PUSH32 0x596561726E4272646967653A20494E56414C49445F43414C4C45520000000000 PUSH1 0x0 DUP4 ADD MSTORE PUSH1 0x20 DUP3 ADD SWAP1 POP SWAP2 SWAP1 POP JUMP JUMPDEST PUSH2 0x848 DUP2 PUSH2 0x9A5 JUMP JUMPDEST DUP3 MSTORE POP POP JUMP JUMPDEST PUSH1 0x0 PUSH1 0x20 DUP3 ADD SWAP1 POP PUSH2 0x863 PUSH1 0x0 DUP4 ADD DUP5 PUSH2 0x7E1 JUMP JUMPDEST SWAP3 SWAP2 POP POP JUMP JUMPDEST PUSH1 0x0 PUSH1 0x40 DUP3 ADD SWAP1 POP PUSH2 0x87E PUSH1 0x0 DUP4 ADD DUP6 PUSH2 0x7E1 JUMP JUMPDEST PUSH2 0x88B PUSH1 0x20 DUP4 ADD DUP5 PUSH2 0x83F JUMP JUMPDEST SWAP4 SWAP3 POP POP POP JUMP JUMPDEST PUSH1 0x0 PUSH1 0x20 DUP3 ADD SWAP1 POP PUSH2 0x8A7 PUSH1 0x0 DUP4 ADD DUP5 PUSH2 0x7F0 JUMP JUMPDEST SWAP3 SWAP2 POP POP JUMP JUMPDEST PUSH1 0x0 PUSH1 0x20 DUP3 ADD SWAP1 POP DUP2 DUP2 SUB PUSH1 0x0 DUP4 ADD MSTORE PUSH2 0x8C6 DUP2 PUSH2 0x7FF JUMP JUMPDEST SWAP1 POP SWAP2 SWAP1 POP JUMP JUMPDEST PUSH1 0x0 PUSH1 0x40 DUP3 ADD SWAP1 POP PUSH2 0x8E2 PUSH1 0x0 DUP4 ADD DUP6 PUSH2 0x83F JUMP JUMPDEST PUSH2 0x8EF PUSH1 0x20 DUP4 ADD DUP5 PUSH2 0x7E1 JUMP JUMPDEST SWAP4 SWAP3 POP POP POP JUMP JUMPDEST PUSH1 0x0 PUSH1 0x40 DUP3 ADD SWAP1 POP PUSH2 0x90B PUSH1 0x0 DUP4 ADD DUP6 PUSH2 0x83F JUMP JUMPDEST PUSH2 0x918 PUSH1 0x20 DUP4 ADD DUP5 PUSH2 0x83F JUMP JUMPDEST SWAP4 SWAP3 POP POP POP JUMP JUMPDEST PUSH1 0x0 PUSH1 0x60 DUP3 ADD SWAP1 POP PUSH2 0x934 PUSH1 0x0 DUP4 ADD DUP7 PUSH2 0x83F JUMP JUMPDEST PUSH2 0x941 PUSH1 0x20 DUP4 ADD DUP6 PUSH2 0x83F JUMP JUMPDEST PUSH2 0x94E PUSH1 0x40 DUP4 ADD DUP5 PUSH2 0x7F0 JUMP JUMPDEST SWAP5 SWAP4 POP POP POP POP JUMP JUMPDEST PUSH1 0x0 DUP3 DUP3 MSTORE PUSH1 0x20 DUP3 ADD SWAP1 POP SWAP3 SWAP2 POP POP JUMP JUMPDEST PUSH1 0x0 PUSH2 0x972 DUP3 PUSH2 0x985 JUMP JUMPDEST SWAP1 POP SWAP2 SWAP1 POP JUMP JUMPDEST PUSH1 0x0 DUP2 ISZERO ISZERO SWAP1 POP SWAP2 SWAP1 POP JUMP JUMPDEST PUSH1 0x0 PUSH20 0xFFFFFFFFFFFFFFFFFFFFFFFFFFFFFFFFFFFFFFFF DUP3 AND SWAP1 POP SWAP2 SWAP1 POP JUMP JUMPDEST PUSH1 0x0 DUP2 SWAP1 POP SWAP2 SWAP1 POP JUMP JUMPDEST PUSH1 0x0 PUSH8 0xFFFFFFFFFFFFFFFF DUP3 AND SWAP1 POP SWAP2 SWAP1 POP JUMP JUMPDEST PUSH2 0x9CC DUP2 PUSH2 0x967 JUMP JUMPDEST DUP2 EQ PUSH2 0x9D7 JUMPI PUSH1 0x0 DUP1 REVERT JUMPDEST POP JUMP JUMPDEST PUSH2 0x9E3 DUP2 PUSH2 0x979 JUMP JUMPDEST DUP2 EQ PUSH2 0x9EE JUMPI PUSH1 0x0 DUP1 REVERT JUMPDEST POP JUMP JUMPDEST PUSH2 0x9FA DUP2 PUSH2 0x9A5 JUMP JUMPDEST DUP2 EQ PUSH2 0xA05 JUMPI PUSH1 0x0 DUP1 REVERT JUMPDEST POP JUMP JUMPDEST PUSH2 0xA11 DUP2 PUSH2 0x9AF JUMP JUMPDEST DUP2 EQ PUSH2 0xA1C JUMPI PUSH1 0x0 DUP1 REVERT JUMPDEST POP JUMP INVALID LOG2 PUSH5 0x6970667358 0x22 SLT KECCAK256 0xB0 0x4C 0xBC 0x2C 0xC3 EXTCODESIZE 0xE7 PUSH19 0x81BD83AFA1C81546B071855BCBC82166A524C2 GT 0xF8 PUSH29 0xE58364736F6C6343000800003300000000000000000000000000000000 "
        },
        "methodIdentifiers": {
          "canFinalise(uint256)": "7224f4eb",
          "convert((uint256,address,uint8),(uint256,address,uint8),(uint256,address,uint8),(uint256,address,uint8),uint256,uint256,uint64)": "5254162b",
          "daiAddress()": "2c387275",
          "finalise((uint256,address,uint8),(uint256,address,uint8),(uint256,address,uint8),(uint256,address,uint8),uint256,uint64)": "9b07d342",
          "rollupProcessor()": "2a113d6e",
          "yvdaiAddress()": "9696e90c"
        }
      }
    }
  }
}