{
  "_format": "hh-sol-artifact-1",
  "contractName": "ERC20Mintable",
  "sourceName": "contracts/ERC20Mintable.sol",
  "abi": [
    {
      "inputs": [],
      "stateMutability": "nonpayable",
      "type": "constructor"
    },
    {
      "anonymous": false,
      "inputs": [
        {
          "indexed": true,
          "internalType": "address",
          "name": "owner",
          "type": "address"
        },
        {
          "indexed": true,
          "internalType": "address",
          "name": "spender",
          "type": "address"
        },
        {
          "indexed": false,
          "internalType": "uint256",
          "name": "value",
          "type": "uint256"
        }
      ],
      "name": "Approval",
      "type": "event"
    },
    {
      "anonymous": false,
      "inputs": [
        {
          "indexed": true,
          "internalType": "address",
          "name": "from",
          "type": "address"
        },
        {
          "indexed": true,
          "internalType": "address",
          "name": "to",
          "type": "address"
        },
        {
          "indexed": false,
          "internalType": "uint256",
          "name": "value",
          "type": "uint256"
        }
      ],
      "name": "Transfer",
      "type": "event"
    },
    {
      "inputs": [
        {
          "internalType": "address",
          "name": "owner",
          "type": "address"
        },
        {
          "internalType": "address",
          "name": "spender",
          "type": "address"
        }
      ],
      "name": "allowance",
      "outputs": [
        {
          "internalType": "uint256",
          "name": "",
          "type": "uint256"
        }
      ],
      "stateMutability": "view",
      "type": "function"
    },
    {
      "inputs": [
        {
          "internalType": "address",
          "name": "spender",
          "type": "address"
        },
        {
          "internalType": "uint256",
          "name": "amount",
          "type": "uint256"
        }
      ],
      "name": "approve",
      "outputs": [
        {
          "internalType": "bool",
          "name": "",
          "type": "bool"
        }
      ],
      "stateMutability": "nonpayable",
      "type": "function"
    },
    {
      "inputs": [],
      "name": "asset_decimals",
      "outputs": [
        {
          "internalType": "uint8",
          "name": "",
          "type": "uint8"
        }
      ],
      "stateMutability": "view",
      "type": "function"
    },
    {
      "inputs": [
        {
          "internalType": "address",
          "name": "account",
          "type": "address"
        }
      ],
      "name": "balanceOf",
      "outputs": [
        {
          "internalType": "uint256",
          "name": "",
          "type": "uint256"
        }
      ],
      "stateMutability": "view",
      "type": "function"
    },
    {
      "inputs": [],
      "name": "decimals",
      "outputs": [
        {
          "internalType": "uint8",
          "name": "",
          "type": "uint8"
        }
      ],
      "stateMutability": "view",
      "type": "function"
    },
    {
      "inputs": [
        {
          "internalType": "address",
          "name": "spender",
          "type": "address"
        },
        {
          "internalType": "uint256",
          "name": "subtractedValue",
          "type": "uint256"
        }
      ],
      "name": "decreaseAllowance",
      "outputs": [
        {
          "internalType": "bool",
          "name": "",
          "type": "bool"
        }
      ],
      "stateMutability": "nonpayable",
      "type": "function"
    },
    {
      "inputs": [
        {
          "internalType": "address",
          "name": "spender",
          "type": "address"
        },
        {
          "internalType": "uint256",
          "name": "addedValue",
          "type": "uint256"
        }
      ],
      "name": "increaseAllowance",
      "outputs": [
        {
          "internalType": "bool",
          "name": "",
          "type": "bool"
        }
      ],
      "stateMutability": "nonpayable",
      "type": "function"
    },
    {
      "inputs": [
        {
          "internalType": "address",
          "name": "_to",
          "type": "address"
        },
        {
          "internalType": "uint256",
          "name": "_value",
          "type": "uint256"
        }
      ],
      "name": "mint",
      "outputs": [
        {
          "internalType": "bool",
          "name": "",
          "type": "bool"
        }
      ],
      "stateMutability": "nonpayable",
      "type": "function"
    },
    {
      "inputs": [],
      "name": "name",
      "outputs": [
        {
          "internalType": "string",
          "name": "",
          "type": "string"
        }
      ],
      "stateMutability": "view",
      "type": "function"
    },
    {
      "inputs": [
        {
          "internalType": "uint8",
          "name": "_decimals",
          "type": "uint8"
        }
      ],
      "name": "setDecimals",
      "outputs": [],
      "stateMutability": "nonpayable",
      "type": "function"
    },
    {
      "inputs": [],
      "name": "symbol",
      "outputs": [
        {
          "internalType": "string",
          "name": "",
          "type": "string"
        }
      ],
      "stateMutability": "view",
      "type": "function"
    },
    {
      "inputs": [],
      "name": "totalSupply",
      "outputs": [
        {
          "internalType": "uint256",
          "name": "",
          "type": "uint256"
        }
      ],
      "stateMutability": "view",
      "type": "function"
    },
    {
      "inputs": [
        {
          "internalType": "address",
          "name": "recipient",
          "type": "address"
        },
        {
          "internalType": "uint256",
          "name": "amount",
          "type": "uint256"
        }
      ],
      "name": "transfer",
      "outputs": [
        {
          "internalType": "bool",
          "name": "",
          "type": "bool"
        }
      ],
      "stateMutability": "nonpayable",
      "type": "function"
    },
    {
      "inputs": [
        {
          "internalType": "address",
          "name": "sender",
          "type": "address"
        },
        {
          "internalType": "address",
          "name": "recipient",
          "type": "address"
        },
        {
          "internalType": "uint256",
          "name": "amount",
          "type": "uint256"
        }
      ],
      "name": "transferFrom",
      "outputs": [
        {
          "internalType": "bool",
          "name": "",
          "type": "bool"
        }
      ],
      "stateMutability": "nonpayable",
      "type": "function"
    }
  ],
  "bytecode": "0x60806040526012600560006101000a81548160ff021916908360ff1602179055503480156200002d57600080fd5b506040518060400160405280600481526020017f54657374000000000000000000000000000000000000000000000000000000008152506040518060400160405280600481526020017f54455354000000000000000000000000000000000000000000000000000000008152508160039080519060200190620000b2929190620000d4565b508060049080519060200190620000cb929190620000d4565b505050620001e9565b828054620000e29062000184565b90600052602060002090601f01602090048101928262000106576000855562000152565b82601f106200012157805160ff191683800117855562000152565b8280016001018555821562000152579182015b828111156200015157825182559160200191906001019062000134565b5b50905062000161919062000165565b5090565b5b808211156200018057600081600090555060010162000166565b5090565b600060028204905060018216806200019d57607f821691505b60208210811415620001b457620001b3620001ba565b5b50919050565b7f4e487b7100000000000000000000000000000000000000000000000000000000600052602260045260246000fd5b6116b680620001f96000396000f3fe608060405234801561001057600080fd5b50600436106100ea5760003560e01c806370a082311161008c578063a457c2d711610066578063a457c2d714610273578063a9059cbb146102a3578063d6f16b99146102d3578063dd62ed3e146102f1576100ea565b806370a08231146102095780637a1395aa1461023957806395d89b4114610255576100ea565b806323b872dd116100c857806323b872dd1461015b578063313ce5671461018b57806339509351146101a957806340c10f19146101d9576100ea565b806306fdde03146100ef578063095ea7b31461010d57806318160ddd1461013d575b600080fd5b6100f7610321565b60405161010491906110f6565b60405180910390f35b61012760048036038101906101229190610ef8565b6103b3565b60405161013491906110db565b60405180910390f35b6101456103d1565b6040516101529190611218565b60405180910390f35b61017560048036038101906101709190610ea9565b6103db565b60405161018291906110db565b60405180910390f35b6101936104d3565b6040516101a09190611233565b60405180910390f35b6101c360048036038101906101be9190610ef8565b6104ea565b6040516101d091906110db565b60405180910390f35b6101f360048036038101906101ee9190610ef8565b610596565b60405161020091906110db565b60405180910390f35b610223600480360381019061021e9190610e44565b6105ac565b6040516102309190611218565b60405180910390f35b610253600480360381019061024e9190610f34565b6105f4565b005b61025d610612565b60405161026a91906110f6565b60405180910390f35b61028d60048036038101906102889190610ef8565b6106a4565b60405161029a91906110db565b60405180910390f35b6102bd60048036038101906102b89190610ef8565b61078f565b6040516102ca91906110db565b60405180910390f35b6102db6107ad565b6040516102e89190611233565b60405180910390f35b61030b60048036038101906103069190610e6d565b6107c0565b6040516103189190611218565b60405180910390f35b60606003805461033090611348565b80601f016020809104026020016040519081016040528092919081815260200182805461035c90611348565b80156103a95780601f1061037e576101008083540402835291602001916103a9565b820191906000526020600020905b81548152906001019060200180831161038c57829003601f168201915b5050505050905090565b60006103c76103c0610847565b848461084f565b6001905092915050565b6000600254905090565b60006103e8848484610a1a565b6000600160008673ffffffffffffffffffffffffffffffffffffffff1673ffffffffffffffffffffffffffffffffffffffff1681526020019081526020016000206000610433610847565b73ffffffffffffffffffffffffffffffffffffffff1673ffffffffffffffffffffffffffffffffffffffff168152602001908152602001600020549050828110156104b3576040517f08c379a00000000000000000000000000000000000000000000000000000000081526004016104aa90611178565b60405180910390fd5b6104c7856104bf610847565b85840361084f565b60019150509392505050565b6000600560009054906101000a900460ff16905090565b600061058c6104f7610847565b848460016000610505610847565b73ffffffffffffffffffffffffffffffffffffffff1673ffffffffffffffffffffffffffffffffffffffff16815260200190815260200160002060008873ffffffffffffffffffffffffffffffffffffffff1673ffffffffffffffffffffffffffffffffffffffff16815260200190815260200160002054610587919061126a565b61084f565b6001905092915050565b60006105a28383610c9b565b6001905092915050565b60008060008373ffffffffffffffffffffffffffffffffffffffff1673ffffffffffffffffffffffffffffffffffffffff168152602001908152602001600020549050919050565b80600560006101000a81548160ff021916908360ff16021790555050565b60606004805461062190611348565b80601f016020809104026020016040519081016040528092919081815260200182805461064d90611348565b801561069a5780601f1061066f5761010080835404028352916020019161069a565b820191906000526020600020905b81548152906001019060200180831161067d57829003601f168201915b5050505050905090565b600080600160006106b3610847565b73ffffffffffffffffffffffffffffffffffffffff1673ffffffffffffffffffffffffffffffffffffffff16815260200190815260200160002060008573ffffffffffffffffffffffffffffffffffffffff1673ffffffffffffffffffffffffffffffffffffffff16815260200190815260200160002054905082811015610770576040517f08c379a0000000000000000000000000000000000000000000000000000000008152600401610767906111d8565b60405180910390fd5b61078461077b610847565b8585840361084f565b600191505092915050565b60006107a361079c610847565b8484610a1a565b6001905092915050565b600560009054906101000a900460ff1681565b6000600160008473ffffffffffffffffffffffffffffffffffffffff1673ffffffffffffffffffffffffffffffffffffffff16815260200190815260200160002060008373ffffffffffffffffffffffffffffffffffffffff1673ffffffffffffffffffffffffffffffffffffffff16815260200190815260200160002054905092915050565b600033905090565b600073ffffffffffffffffffffffffffffffffffffffff168373ffffffffffffffffffffffffffffffffffffffff1614156108bf576040517f08c379a00000000000000000000000000000000000000000000000000000000081526004016108b6906111b8565b60405180910390fd5b600073ffffffffffffffffffffffffffffffffffffffff168273ffffffffffffffffffffffffffffffffffffffff16141561092f576040517f08c379a000000000000000000000000000000000000000000000000000000000815260040161092690611138565b60405180910390fd5b80600160008573ffffffffffffffffffffffffffffffffffffffff1673ffffffffffffffffffffffffffffffffffffffff16815260200190815260200160002060008473ffffffffffffffffffffffffffffffffffffffff1673ffffffffffffffffffffffffffffffffffffffff168152602001908152602001600020819055508173ffffffffffffffffffffffffffffffffffffffff168373ffffffffffffffffffffffffffffffffffffffff167f8c5be1e5ebec7d5bd14f71427d1e84f3dd0314c0f7b2291e5b200ac8c7c3b92583604051610a0d9190611218565b60405180910390a3505050565b600073ffffffffffffffffffffffffffffffffffffffff168373ffffffffffffffffffffffffffffffffffffffff161415610a8a576040517f08c379a0000000000000000000000000000000000000000000000000000000008152600401610a8190611198565b60405180910390fd5b600073ffffffffffffffffffffffffffffffffffffffff168273ffffffffffffffffffffffffffffffffffffffff161415610afa576040517f08c379a0000000000000000000000000000000000000000000000000000000008152600401610af190611118565b60405180910390fd5b610b05838383610dfb565b60008060008573ffffffffffffffffffffffffffffffffffffffff1673ffffffffffffffffffffffffffffffffffffffff16815260200190815260200160002054905081811015610b8b576040517f08c379a0000000000000000000000000000000000000000000000000000000008152600401610b8290611158565b60405180910390fd5b8181036000808673ffffffffffffffffffffffffffffffffffffffff1673ffffffffffffffffffffffffffffffffffffffff16815260200190815260200160002081905550816000808573ffffffffffffffffffffffffffffffffffffffff1673ffffffffffffffffffffffffffffffffffffffff1681526020019081526020016000206000828254610c1e919061126a565b925050819055508273ffffffffffffffffffffffffffffffffffffffff168473ffffffffffffffffffffffffffffffffffffffff167fddf252ad1be2c89b69c2b068fc378daa952ba7f163c4a11628f55a4df523b3ef84604051610c829190611218565b60405180910390a3610c95848484610e00565b50505050565b600073ffffffffffffffffffffffffffffffffffffffff168273ffffffffffffffffffffffffffffffffffffffff161415610d0b576040517f08c379a0000000000000000000000000000000000000000000000000000000008152600401610d02906111f8565b60405180910390fd5b610d1760008383610dfb565b8060026000828254610d29919061126a565b92505081905550806000808473ffffffffffffffffffffffffffffffffffffffff1673ffffffffffffffffffffffffffffffffffffffff1681526020019081526020016000206000828254610d7e919061126a565b925050819055508173ffffffffffffffffffffffffffffffffffffffff16600073ffffffffffffffffffffffffffffffffffffffff167fddf252ad1be2c89b69c2b068fc378daa952ba7f163c4a11628f55a4df523b3ef83604051610de39190611218565b60405180910390a3610df760008383610e00565b5050565b505050565b505050565b600081359050610e148161163b565b92915050565b600081359050610e2981611652565b92915050565b600081359050610e3e81611669565b92915050565b600060208284031215610e5657600080fd5b6000610e6484828501610e05565b91505092915050565b60008060408385031215610e8057600080fd5b6000610e8e85828601610e05565b9250506020610e9f85828601610e05565b9150509250929050565b600080600060608486031215610ebe57600080fd5b6000610ecc86828701610e05565b9350506020610edd86828701610e05565b9250506040610eee86828701610e1a565b9150509250925092565b60008060408385031215610f0b57600080fd5b6000610f1985828601610e05565b9250506020610f2a85828601610e1a565b9150509250929050565b600060208284031215610f4657600080fd5b6000610f5484828501610e2f565b91505092915050565b610f66816112d2565b82525050565b6000610f778261124e565b610f818185611259565b9350610f91818560208601611315565b610f9a816113d8565b840191505092915050565b6000610fb2602383611259565b9150610fbd826113e9565b604082019050919050565b6000610fd5602283611259565b9150610fe082611438565b604082019050919050565b6000610ff8602683611259565b915061100382611487565b604082019050919050565b600061101b602883611259565b9150611026826114d6565b604082019050919050565b600061103e602583611259565b915061104982611525565b604082019050919050565b6000611061602483611259565b915061106c82611574565b604082019050919050565b6000611084602583611259565b915061108f826115c3565b604082019050919050565b60006110a7601f83611259565b91506110b282611612565b602082019050919050565b6110c6816112fe565b82525050565b6110d581611308565b82525050565b60006020820190506110f06000830184610f5d565b92915050565b600060208201905081810360008301526111108184610f6c565b905092915050565b6000602082019050818103600083015261113181610fa5565b9050919050565b6000602082019050818103600083015261115181610fc8565b9050919050565b6000602082019050818103600083015261117181610feb565b9050919050565b600060208201905081810360008301526111918161100e565b9050919050565b600060208201905081810360008301526111b181611031565b9050919050565b600060208201905081810360008301526111d181611054565b9050919050565b600060208201905081810360008301526111f181611077565b9050919050565b600060208201905081810360008301526112118161109a565b9050919050565b600060208201905061122d60008301846110bd565b92915050565b600060208201905061124860008301846110cc565b92915050565b600081519050919050565b600082825260208201905092915050565b6000611275826112fe565b9150611280836112fe565b9250827fffffffffffffffffffffffffffffffffffffffffffffffffffffffffffffffff038211156112b5576112b461137a565b5b828201905092915050565b60006112cb826112de565b9050919050565b60008115159050919050565b600073ffffffffffffffffffffffffffffffffffffffff82169050919050565b6000819050919050565b600060ff82169050919050565b60005b83811015611333578082015181840152602081019050611318565b83811115611342576000848401525b50505050565b6000600282049050600182168061136057607f821691505b60208210811415611374576113736113a9565b5b50919050565b7f4e487b7100000000000000000000000000000000000000000000000000000000600052601160045260246000fd5b7f4e487b7100000000000000000000000000000000000000000000000000000000600052602260045260246000fd5b6000601f19601f8301169050919050565b7f45524332303a207472616e7366657220746f20746865207a65726f206164647260008201527f6573730000000000000000000000000000000000000000000000000000000000602082015250565b7f45524332303a20617070726f766520746f20746865207a65726f20616464726560008201527f7373000000000000000000000000000000000000000000000000000000000000602082015250565b7f45524332303a207472616e7366657220616d6f756e742065786365656473206260008201527f616c616e63650000000000000000000000000000000000000000000000000000602082015250565b7f45524332303a207472616e7366657220616d6f756e742065786365656473206160008201527f6c6c6f77616e6365000000000000000000000000000000000000000000000000602082015250565b7f45524332303a207472616e736665722066726f6d20746865207a65726f20616460008201527f6472657373000000000000000000000000000000000000000000000000000000602082015250565b7f45524332303a20617070726f76652066726f6d20746865207a65726f2061646460008201527f7265737300000000000000000000000000000000000000000000000000000000602082015250565b7f45524332303a2064656372656173656420616c6c6f77616e63652062656c6f7760008201527f207a65726f000000000000000000000000000000000000000000000000000000602082015250565b7f45524332303a206d696e7420746f20746865207a65726f206164647265737300600082015250565b611644816112c0565b811461164f57600080fd5b50565b61165b816112fe565b811461166657600080fd5b50565b61167281611308565b811461167d57600080fd5b5056fea2646970667358221220f5f49937933d524f88dcc06ee9561ca2c64248dec99c42dcd356dabefe43bc2164736f6c63430008040033",
  "linkReferences": {},
  "deployedLinkReferences": {}
}