{
  "_format": "hh-sol-artifact-1",
  "contractName": "YearnBridge",
  "sourceName": "contracts/YearnBridge.sol",
  "abi": [
    {
      "inputs": [
        {
          "internalType": "address",
          "name": "_rollupProcessor",
          "type": "address"
        }
      ],
      "stateMutability": "nonpayable",
      "type": "constructor"
    },
    {
      "inputs": [
        {
          "internalType": "uint256",
          "name": "",
          "type": "uint256"
        }
      ],
      "name": "canFinalise",
      "outputs": [
        {
          "internalType": "bool",
          "name": "",
          "type": "bool"
        }
      ],
      "stateMutability": "view",
      "type": "function"
    },
    {
      "inputs": [
        {
          "components": [
            {
              "internalType": "uint256",
              "name": "id",
              "type": "uint256"
            },
            {
              "internalType": "address",
              "name": "erc20Address",
              "type": "address"
            },
            {
              "internalType": "enum Types.AztecAssetType",
              "name": "assetType",
              "type": "uint8"
            }
          ],
          "internalType": "struct Types.AztecAsset",
          "name": "inputAssetA",
          "type": "tuple"
        },
        {
          "components": [
            {
              "internalType": "uint256",
              "name": "id",
              "type": "uint256"
            },
            {
              "internalType": "address",
              "name": "erc20Address",
              "type": "address"
            },
            {
              "internalType": "enum Types.AztecAssetType",
              "name": "assetType",
              "type": "uint8"
            }
          ],
          "internalType": "struct Types.AztecAsset",
          "name": "",
          "type": "tuple"
        },
        {
          "components": [
            {
              "internalType": "uint256",
              "name": "id",
              "type": "uint256"
            },
            {
              "internalType": "address",
              "name": "erc20Address",
              "type": "address"
            },
            {
              "internalType": "enum Types.AztecAssetType",
              "name": "assetType",
              "type": "uint8"
            }
          ],
          "internalType": "struct Types.AztecAsset",
          "name": "outputAssetA",
          "type": "tuple"
        },
        {
          "components": [
            {
              "internalType": "uint256",
              "name": "id",
              "type": "uint256"
            },
            {
              "internalType": "address",
              "name": "erc20Address",
              "type": "address"
            },
            {
              "internalType": "enum Types.AztecAssetType",
              "name": "assetType",
              "type": "uint8"
            }
          ],
          "internalType": "struct Types.AztecAsset",
          "name": "",
          "type": "tuple"
        },
        {
          "internalType": "uint256",
          "name": "inputValue",
          "type": "uint256"
        },
        {
          "internalType": "uint256",
          "name": "",
          "type": "uint256"
        },
        {
          "internalType": "uint64",
          "name": "",
          "type": "uint64"
        }
      ],
      "name": "convert",
      "outputs": [
        {
          "internalType": "uint256",
          "name": "outputValueA",
          "type": "uint256"
        },
        {
          "internalType": "uint256",
          "name": "",
          "type": "uint256"
        },
        {
          "internalType": "bool",
          "name": "isAsync",
          "type": "bool"
        }
      ],
      "stateMutability": "payable",
      "type": "function"
    },
    {
      "inputs": [],
      "name": "daiAddress",
      "outputs": [
        {
          "internalType": "address",
          "name": "",
          "type": "address"
        }
      ],
      "stateMutability": "view",
      "type": "function"
    },
    {
      "inputs": [
        {
          "components": [
            {
              "internalType": "uint256",
              "name": "id",
              "type": "uint256"
            },
            {
              "internalType": "address",
              "name": "erc20Address",
              "type": "address"
            },
            {
              "internalType": "enum Types.AztecAssetType",
              "name": "assetType",
              "type": "uint8"
            }
          ],
          "internalType": "struct Types.AztecAsset",
          "name": "",
          "type": "tuple"
        },
        {
          "components": [
            {
              "internalType": "uint256",
              "name": "id",
              "type": "uint256"
            },
            {
              "internalType": "address",
              "name": "erc20Address",
              "type": "address"
            },
            {
              "internalType": "enum Types.AztecAssetType",
              "name": "assetType",
              "type": "uint8"
            }
          ],
          "internalType": "struct Types.AztecAsset",
          "name": "",
          "type": "tuple"
        },
        {
          "components": [
            {
              "internalType": "uint256",
              "name": "id",
              "type": "uint256"
            },
            {
              "internalType": "address",
              "name": "erc20Address",
              "type": "address"
            },
            {
              "internalType": "enum Types.AztecAssetType",
              "name": "assetType",
              "type": "uint8"
            }
          ],
          "internalType": "struct Types.AztecAsset",
          "name": "",
          "type": "tuple"
        },
        {
          "components": [
            {
              "internalType": "uint256",
              "name": "id",
              "type": "uint256"
            },
            {
              "internalType": "address",
              "name": "erc20Address",
              "type": "address"
            },
            {
              "internalType": "enum Types.AztecAssetType",
              "name": "assetType",
              "type": "uint8"
            }
          ],
          "internalType": "struct Types.AztecAsset",
          "name": "",
          "type": "tuple"
        },
        {
          "internalType": "uint256",
          "name": "",
          "type": "uint256"
        },
        {
          "internalType": "uint64",
          "name": "",
          "type": "uint64"
        }
      ],
      "name": "finalise",
      "outputs": [
        {
          "internalType": "uint256",
          "name": "",
          "type": "uint256"
        },
        {
          "internalType": "uint256",
          "name": "",
          "type": "uint256"
        }
      ],
      "stateMutability": "payable",
      "type": "function"
    },
    {
      "inputs": [],
      "name": "rollupProcessor",
      "outputs": [
        {
          "internalType": "address",
          "name": "",
          "type": "address"
        }
      ],
      "stateMutability": "view",
      "type": "function"
    },
    {
      "inputs": [],
      "name": "yvdaiAddress",
      "outputs": [
        {
          "internalType": "address",
          "name": "",
          "type": "address"
        }
      ],
      "stateMutability": "view",
      "type": "function"
    },
    {
      "stateMutability": "payable",
      "type": "receive"
    }
  ],
  "bytecode": "0x60e0604052736b175474e89094c44da98b954eedeac495271d0f73ffffffffffffffffffffffffffffffffffffffff1660a09073ffffffffffffffffffffffffffffffffffffffff1660601b81525073da816459f1ab5631232fe5e97a05bbbb94970c9573ffffffffffffffffffffffffffffffffffffffff1660c09073ffffffffffffffffffffffffffffffffffffffff1660601b8152503480156100a457600080fd5b50604051610c41380380610c4183398181016040528101906100c69190610118565b8073ffffffffffffffffffffffffffffffffffffffff1660808173ffffffffffffffffffffffffffffffffffffffff1660601b815250505061018a565b60008151905061011281610173565b92915050565b60006020828403121561012a57600080fd5b600061013884828501610103565b91505092915050565b600061014c82610153565b9050919050565b600073ffffffffffffffffffffffffffffffffffffffff82169050919050565b61017c81610141565b811461018757600080fd5b50565b60805160601c60a05160601c60c05160601c610a556101ec600039600081816101ac01528181610269015261028c0152600061054e015260008181610188015281816101d501528181610325015281816103d601526104a40152610a556000f3fe6080604052600436106100595760003560e01c80632a113d6e146100655780632c387275146100905780635254162b146100bb5780637224f4eb146100ed5780639696e90c1461012a5780639b07d3421461015557610060565b3661006057005b600080fd5b34801561007157600080fd5b5061007a610186565b604051610087919061084e565b60405180910390f35b34801561009c57600080fd5b506100a56101aa565b6040516100b2919061084e565b60405180910390f35b6100d560048036038101906100d0919061065f565b6101ce565b6040516100e49392919061091f565b60405180910390f35b3480156100f957600080fd5b50610114600480360381019061010f919061078f565b610545565b6040516101219190610892565b60405180910390f35b34801561013657600080fd5b5061013f61054c565b60405161014c919061084e565b60405180910390f35b61016f600480360381019061016a9190610702565b610570565b60405161017d9291906108f6565b60405180910390f35b7f000000000000000000000000000000000000000000000000000000000000000081565b7f000000000000000000000000000000000000000000000000000000000000000081565b60008060007f000000000000000000000000000000000000000000000000000000000000000073ffffffffffffffffffffffffffffffffffffffff163373ffffffffffffffffffffffffffffffffffffffff1614610261576040517f08c379a0000000000000000000000000000000000000000000000000000000008152600401610258906108ad565b60405180910390fd5b6000905060007f000000000000000000000000000000000000000000000000000000000000000090507f000000000000000000000000000000000000000000000000000000000000000073ffffffffffffffffffffffffffffffffffffffff168b60200160208101906102d4919061060d565b73ffffffffffffffffffffffffffffffffffffffff16141561046d576000896020016020810190610305919061060d565b90508173ffffffffffffffffffffffffffffffffffffffff1663095ea7b37f00000000000000000000000000000000000000000000000000000000000000008a6040518363ffffffff1660e01b8152600401610362929190610869565b602060405180830381600087803b15801561037c57600080fd5b505af1158015610390573d6000803e3d6000fd5b505050506040513d601f19601f820116820180604052508101906103b49190610636565b5060008173ffffffffffffffffffffffffffffffffffffffff16636e553f658a7f00000000000000000000000000000000000000000000000000000000000000006040518363ffffffff1660e01b81526004016104129291906108cd565b602060405180830381600087803b15801561042c57600080fd5b505af1158015610440573d6000803e3d6000fd5b505050506040513d601f19601f8201168201806040525081019061046491906107b8565b90505050610537565b60008b6020016020810190610482919061060d565b905060008173ffffffffffffffffffffffffffffffffffffffff1662f714ce8a7f00000000000000000000000000000000000000000000000000000000000000006040518363ffffffff1660e01b81526004016104e09291906108cd565b602060405180830381600087803b1580156104fa57600080fd5b505af115801561050e573d6000803e3d6000fd5b505050506040513d601f19601f8201168201806040525081019061053291906107b8565b905050505b509750975097945050505050565b6000919050565b7f000000000000000000000000000000000000000000000000000000000000000081565b600080600061057e57600080fd5b965096945050505050565b600081359050610598816109c3565b92915050565b6000815190506105ad816109da565b92915050565b6000606082840312156105c557600080fd5b81905092915050565b6000813590506105dd816109f1565b92915050565b6000815190506105f2816109f1565b92915050565b60008135905061060781610a08565b92915050565b60006020828403121561061f57600080fd5b600061062d84828501610589565b91505092915050565b60006020828403121561064857600080fd5b60006106568482850161059e565b91505092915050565b60008060008060008060006101e0888a03121561067b57600080fd5b60006106898a828b016105b3565b975050606061069a8a828b016105b3565b96505060c06106ab8a828b016105b3565b9550506101206106bd8a828b016105b3565b9450506101806106cf8a828b016105ce565b9350506101a06106e18a828b016105ce565b9250506101c06106f38a828b016105f8565b91505092959891949750929550565b6000806000806000806101c0878903121561071c57600080fd5b600061072a89828a016105b3565b965050606061073b89828a016105b3565b95505060c061074c89828a016105b3565b94505061012061075e89828a016105b3565b93505061018061077089828a016105ce565b9250506101a061078289828a016105f8565b9150509295509295509295565b6000602082840312156107a157600080fd5b60006107af848285016105ce565b91505092915050565b6000602082840312156107ca57600080fd5b60006107d8848285016105e3565b91505092915050565b6107ea81610967565b82525050565b6107f981610979565b82525050565b600061080c601b83610956565b91507f596561726e4272646967653a20494e56414c49445f43414c4c455200000000006000830152602082019050919050565b610848816109a5565b82525050565b600060208201905061086360008301846107e1565b92915050565b600060408201905061087e60008301856107e1565b61088b602083018461083f565b9392505050565b60006020820190506108a760008301846107f0565b92915050565b600060208201905081810360008301526108c6816107ff565b9050919050565b60006040820190506108e2600083018561083f565b6108ef60208301846107e1565b9392505050565b600060408201905061090b600083018561083f565b610918602083018461083f565b9392505050565b6000606082019050610934600083018661083f565b610941602083018561083f565b61094e60408301846107f0565b949350505050565b600082825260208201905092915050565b600061097282610985565b9050919050565b60008115159050919050565b600073ffffffffffffffffffffffffffffffffffffffff82169050919050565b6000819050919050565b600067ffffffffffffffff82169050919050565b6109cc81610967565b81146109d757600080fd5b50565b6109e381610979565b81146109ee57600080fd5b50565b6109fa816109a5565b8114610a0557600080fd5b50565b610a11816109af565b8114610a1c57600080fd5b5056fea2646970667358221220b04cbc2cc33be77281bd83afa1c81546b071855bcbc82166a524c211f87ce58364736f6c63430008000033",
  "linkReferences": {},
  "deployedLinkReferences": {}
}