{
  "_format": "hh-sol-artifact-1",
  "contractName": "DefiBridgeProxy",
  "sourceName": "contracts/DefiBridgeProxy.sol",
  "abi": [
    {
      "anonymous": false,
      "inputs": [
        {
          "indexed": true,
          "internalType": "address",
          "name": "bridgeAddress",
          "type": "address"
        },
        {
          "indexed": false,
          "internalType": "uint256",
          "name": "outputValueA",
          "type": "uint256"
        },
        {
          "indexed": false,
          "internalType": "uint256",
          "name": "outputValueB",
          "type": "uint256"
        },
        {
          "indexed": false,
          "internalType": "bool",
          "name": "isAsync",
          "type": "bool"
        }
      ],
      "name": "AztecBridgeInteraction",
      "type": "event"
    },
    {
      "inputs": [
        {
          "internalType": "address",
          "name": "bridgeAddress",
          "type": "address"
        },
        {
          "internalType": "uint256",
          "name": "interactionNonce",
          "type": "uint256"
        }
      ],
      "name": "canFinalise",
      "outputs": [
        {
          "internalType": "bool",
          "name": "ready",
          "type": "bool"
        }
      ],
      "stateMutability": "view",
      "type": "function"
    },
    {
      "inputs": [
        {
          "internalType": "address",
          "name": "bridgeAddress",
          "type": "address"
        },
        {
          "components": [
            {
              "internalType": "uint256",
              "name": "id",
              "type": "uint256"
            },
            {
              "internalType": "address",
              "name": "erc20Address",
              "type": "address"
            },
            {
              "internalType": "enum Types.AztecAssetType",
              "name": "assetType",
              "type": "uint8"
            }
          ],
          "internalType": "struct Types.AztecAsset",
          "name": "inputAssetA",
          "type": "tuple"
        },
        {
          "components": [
            {
              "internalType": "uint256",
              "name": "id",
              "type": "uint256"
            },
            {
              "internalType": "address",
              "name": "erc20Address",
              "type": "address"
            },
            {
              "internalType": "enum Types.AztecAssetType",
              "name": "assetType",
              "type": "uint8"
            }
          ],
          "internalType": "struct Types.AztecAsset",
          "name": "inputAssetB",
          "type": "tuple"
        },
        {
          "components": [
            {
              "internalType": "uint256",
              "name": "id",
              "type": "uint256"
            },
            {
              "internalType": "address",
              "name": "erc20Address",
              "type": "address"
            },
            {
              "internalType": "enum Types.AztecAssetType",
              "name": "assetType",
              "type": "uint8"
            }
          ],
          "internalType": "struct Types.AztecAsset",
          "name": "outputAssetA",
          "type": "tuple"
        },
        {
          "components": [
            {
              "internalType": "uint256",
              "name": "id",
              "type": "uint256"
            },
            {
              "internalType": "address",
              "name": "erc20Address",
              "type": "address"
            },
            {
              "internalType": "enum Types.AztecAssetType",
              "name": "assetType",
              "type": "uint8"
            }
          ],
          "internalType": "struct Types.AztecAsset",
          "name": "outputAssetB",
          "type": "tuple"
        },
        {
          "internalType": "uint256",
          "name": "totalInputValue",
          "type": "uint256"
        },
        {
          "internalType": "uint256",
          "name": "interactionNonce",
          "type": "uint256"
        },
        {
          "internalType": "uint256",
          "name": "auxInputData",
          "type": "uint256"
        }
      ],
      "name": "convert",
      "outputs": [
        {
          "internalType": "uint256",
          "name": "outputValueA",
          "type": "uint256"
        },
        {
          "internalType": "uint256",
          "name": "outputValueB",
          "type": "uint256"
        },
        {
          "internalType": "bool",
          "name": "isAsync",
          "type": "bool"
        }
      ],
      "stateMutability": "nonpayable",
      "type": "function"
    },
    {
      "inputs": [
        {
          "internalType": "address",
          "name": "bridgeAddress",
          "type": "address"
        },
        {
          "components": [
            {
              "internalType": "uint256",
              "name": "id",
              "type": "uint256"
            },
            {
              "internalType": "address",
              "name": "erc20Address",
              "type": "address"
            },
            {
              "internalType": "enum Types.AztecAssetType",
              "name": "assetType",
              "type": "uint8"
            }
          ],
          "internalType": "struct Types.AztecAsset",
          "name": "inputAssetA",
          "type": "tuple"
        },
        {
          "components": [
            {
              "internalType": "uint256",
              "name": "id",
              "type": "uint256"
            },
            {
              "internalType": "address",
              "name": "erc20Address",
              "type": "address"
            },
            {
              "internalType": "enum Types.AztecAssetType",
              "name": "assetType",
              "type": "uint8"
            }
          ],
          "internalType": "struct Types.AztecAsset",
          "name": "inputAssetB",
          "type": "tuple"
        },
        {
          "components": [
            {
              "internalType": "uint256",
              "name": "id",
              "type": "uint256"
            },
            {
              "internalType": "address",
              "name": "erc20Address",
              "type": "address"
            },
            {
              "internalType": "enum Types.AztecAssetType",
              "name": "assetType",
              "type": "uint8"
            }
          ],
          "internalType": "struct Types.AztecAsset",
          "name": "outputAssetA",
          "type": "tuple"
        },
        {
          "components": [
            {
              "internalType": "uint256",
              "name": "id",
              "type": "uint256"
            },
            {
              "internalType": "address",
              "name": "erc20Address",
              "type": "address"
            },
            {
              "internalType": "enum Types.AztecAssetType",
              "name": "assetType",
              "type": "uint8"
            }
          ],
          "internalType": "struct Types.AztecAsset",
          "name": "outputAssetB",
          "type": "tuple"
        },
        {
          "internalType": "uint256",
          "name": "interactionNonce",
          "type": "uint256"
        },
        {
          "internalType": "uint256",
          "name": "auxInputData",
          "type": "uint256"
        }
      ],
      "name": "finalise",
      "outputs": [
        {
          "internalType": "uint256",
          "name": "outputValueA",
          "type": "uint256"
        },
        {
          "internalType": "uint256",
          "name": "outputValueB",
          "type": "uint256"
        }
      ],
      "stateMutability": "nonpayable",
      "type": "function"
    },
    {
      "stateMutability": "payable",
      "type": "receive"
    }
  ],
  "bytecode": "0x608060405234801561001057600080fd5b506118c3806100206000396000f3fe6080604052600436106100385760003560e01c806379b5080f14610044578063cc07355714610081578063d9b5fb79146100bf5761003f565b3661003f57005b600080fd5b34801561005057600080fd5b5061006b60048036038101906100669190611213565b6100fe565b60405161007891906114ec565b60405180910390f35b34801561008d57600080fd5b506100a860048036038101906100a391906110bb565b610196565b6040516100b692919061165b565b60405180910390f35b3480156100cb57600080fd5b506100e660048036038101906100e1919061115d565b6107b5565b6040516100f593929190611684565b60405180910390f35b6000808390508073ffffffffffffffffffffffffffffffffffffffff16637224f4eb846040518263ffffffff1660e01b815260040161013d9190611640565b60206040518083038186803b15801561015557600080fd5b505afa158015610169573d6000803e3d6000fd5b505050506040513d601f19601f8201168201806040525081019061018d919061124f565b91505092915050565b6000806000806003808111156101d5577f4e487b7100000000000000000000000000000000000000000000000000000000600052602160045260246000fd5b8860400160208101906101e89190611278565b6003811115610220577f4e487b7100000000000000000000000000000000000000000000000000000000600052602160045260246000fd5b146102435761024088602001602081019061023b9190611092565b610f51565b91505b60038081111561027c577f4e487b7100000000000000000000000000000000000000000000000000000000600052602160045260246000fd5b87604001602081019061028f9190611278565b60038111156102c7577f4e487b7100000000000000000000000000000000000000000000000000000000600052602160045260246000fd5b146102ea576102e78760200160208101906102e29190611092565b610f51565b90505b60008b90508073ffffffffffffffffffffffffffffffffffffffff16637224f4eb886040518263ffffffff1660e01b81526004016103289190611640565b60206040518083038186803b15801561034057600080fd5b505afa158015610354573d6000803e3d6000fd5b505050506040513d601f19601f82011682018060405250810190610378919061124f565b6103b7576040517f08c379a00000000000000000000000000000000000000000000000000000000081526004016103ae90611527565b60405180910390fd5b8073ffffffffffffffffffffffffffffffffffffffff16639b07d3428c8c8c8c8c8c6040518763ffffffff1660e01b81526004016103fa969594939291906115db565b6040805180830381600087803b15801561041357600080fd5b505af1158015610427573d6000803e3d6000fd5b505050506040513d601f19601f8201168201806040525081019061044b91906112a1565b809550819650505060038081111561048c577f4e487b7100000000000000000000000000000000000000000000000000000000600052602160045260246000fd5b89604001602081019061049f9190611278565b60038111156104d7577f4e487b7100000000000000000000000000000000000000000000000000000000600052602160045260246000fd5b1415801561056857506000600381111561051a577f4e487b7100000000000000000000000000000000000000000000000000000000600052602160045260246000fd5b89604001602081019061052d9190611278565b6003811115610565577f4e487b7100000000000000000000000000000000000000000000000000000000600052602160045260246000fd5b14155b156105d35761059161058b8a60200160208101906105869190611092565b610f51565b84610fac565b85146105d2576040517f08c379a00000000000000000000000000000000000000000000000000000000081526004016105c990611547565b60405180910390fd5b5b60038081111561060c577f4e487b7100000000000000000000000000000000000000000000000000000000600052602160045260246000fd5b88604001602081019061061f9190611278565b6003811115610657577f4e487b7100000000000000000000000000000000000000000000000000000000600052602160045260246000fd5b141580156106e857506000600381111561069a577f4e487b7100000000000000000000000000000000000000000000000000000000600052602160045260246000fd5b8860400160208101906106ad9190611278565b60038111156106e5577f4e487b7100000000000000000000000000000000000000000000000000000000600052602160045260246000fd5b14155b156107535761071161070b8960200160208101906107069190611092565b610f51565b83610fac565b8414610752576040517f08c379a000000000000000000000000000000000000000000000000000000000815260040161074990611547565b60405180910390fd5b5b8b73ffffffffffffffffffffffffffffffffffffffff167f1f69dd4d25d71e16962ebbdc1534be51b469874ca1bc8cf79ab171635fddad488686600060405161079e93929190611684565b60405180910390a250505097509795505050505050565b6000806000600260038111156107f4577f4e487b7100000000000000000000000000000000000000000000000000000000600052602160045260246000fd5b8a60400160208101906108079190611278565b600381111561083f577f4e487b7100000000000000000000000000000000000000000000000000000000600052602160045260246000fd5b1415610863576108628a602001602081019061085b9190611092565b8c88610fc2565b5b6002600381111561089d577f4e487b7100000000000000000000000000000000000000000000000000000000600052602160045260246000fd5b8960400160208101906108b09190611278565b60038111156108e8577f4e487b7100000000000000000000000000000000000000000000000000000000600052602160045260246000fd5b141561090c5761090b8960200160208101906109049190611092565b8c88610fc2565b5b600080600380811115610948577f4e487b7100000000000000000000000000000000000000000000000000000000600052602160045260246000fd5b8a604001602081019061095b9190611278565b6003811115610993577f4e487b7100000000000000000000000000000000000000000000000000000000600052602160045260246000fd5b146109b6576109b38a60200160208101906109ae9190611092565b610f51565b91505b6003808111156109ef577f4e487b7100000000000000000000000000000000000000000000000000000000600052602160045260246000fd5b896040016020810190610a029190611278565b6003811115610a3a577f4e487b7100000000000000000000000000000000000000000000000000000000600052602160045260246000fd5b14610a5d57610a5a896020016020810190610a559190611092565b610f51565b90505b60008d90508073ffffffffffffffffffffffffffffffffffffffff16635254162b60016003811115610ab8577f4e487b7100000000000000000000000000000000000000000000000000000000600052602160045260246000fd5b8f6040016020810190610acb9190611278565b6003811115610b03577f4e487b7100000000000000000000000000000000000000000000000000000000600052602160045260246000fd5b14610b0f576000610b11565b8a5b8f8f8f8f8f8f8f6040518963ffffffff1660e01b8152600401610b3a9796959493929190611567565b6060604051808303818588803b158015610b5357600080fd5b505af1158015610b67573d6000803e3d6000fd5b50505050506040513d601f19601f82011682018060405250810190610b8c91906112dd565b809650819750829850505050600380811115610bd1577f4e487b7100000000000000000000000000000000000000000000000000000000600052602160045260246000fd5b8b6040016020810190610be49190611278565b6003811115610c1c577f4e487b7100000000000000000000000000000000000000000000000000000000600052602160045260246000fd5b14158015610cad575060006003811115610c5f577f4e487b7100000000000000000000000000000000000000000000000000000000600052602160045260246000fd5b8b6040016020810190610c729190611278565b6003811115610caa577f4e487b7100000000000000000000000000000000000000000000000000000000600052602160045260246000fd5b14155b15610d1857610cd6610cd08c6020016020810190610ccb9190611092565b610f51565b84610fac565b8614610d17576040517f08c379a0000000000000000000000000000000000000000000000000000000008152600401610d0e90611547565b60405180910390fd5b5b600380811115610d51577f4e487b7100000000000000000000000000000000000000000000000000000000600052602160045260246000fd5b8a6040016020810190610d649190611278565b6003811115610d9c577f4e487b7100000000000000000000000000000000000000000000000000000000600052602160045260246000fd5b14158015610e2d575060006003811115610ddf577f4e487b7100000000000000000000000000000000000000000000000000000000600052602160045260246000fd5b8a6040016020810190610df29190611278565b6003811115610e2a577f4e487b7100000000000000000000000000000000000000000000000000000000600052602160045260246000fd5b14155b15610e9857610e56610e508b6020016020810190610e4b9190611092565b610f51565b83610fac565b8514610e97576040517f08c379a0000000000000000000000000000000000000000000000000000000008152600401610e8e90611547565b60405180910390fd5b5b8315610eee57600086148015610eae5750600085145b610eed576040517f08c379a0000000000000000000000000000000000000000000000000000000008152600401610ee490611507565b60405180910390fd5b5b8d73ffffffffffffffffffffffffffffffffffffffff167f1f69dd4d25d71e16962ebbdc1534be51b469874ca1bc8cf79ab171635fddad48878787604051610f3893929190611684565b60405180910390a2505050985098509895505050505050565b600081610f5d57303190505b8115610fa7576040517f70a08231000000000000000000000000000000000000000000000000000000008152306004820152602081602483865afa610fa157600080fd5b80519150505b919050565b60008183610fba9190611711565b905092915050565b6040517fa9059cbb0000000000000000000000000000000000000000000000000000000081528260048201528160248201526000816044836000885af161100857600080fd5b50505050565b60008135905061101d81611838565b92915050565b6000815190506110328161184f565b92915050565b60008135905061104781611866565b92915050565b60006060828403121561105f57600080fd5b81905092915050565b60008135905061107781611876565b92915050565b60008151905061108c81611876565b92915050565b6000602082840312156110a457600080fd5b60006110b28482850161100e565b91505092915050565b60008060008060008060006101e0888a0312156110d757600080fd5b60006110e58a828b0161100e565b97505060206110f68a828b0161104d565b96505060806111078a828b0161104d565b95505060e06111188a828b0161104d565b94505061014061112a8a828b0161104d565b9350506101a061113c8a828b01611068565b9250506101c061114e8a828b01611068565b91505092959891949750929550565b600080600080600080600080610200898b03121561117a57600080fd5b60006111888b828c0161100e565b98505060206111998b828c0161104d565b97505060806111aa8b828c0161104d565b96505060e06111bb8b828c0161104d565b9550506101406111cd8b828c0161104d565b9450506101a06111df8b828c01611068565b9350506101c06111f18b828c01611068565b9250506101e06112038b828c01611068565b9150509295985092959890939650565b6000806040838503121561122657600080fd5b60006112348582860161100e565b925050602061124585828601611068565b9150509250929050565b60006020828403121561126157600080fd5b600061126f84828501611023565b91505092915050565b60006020828403121561128a57600080fd5b600061129884828501611038565b91505092915050565b600080604083850312156112b457600080fd5b60006112c28582860161107d565b92505060206112d38582860161107d565b9150509250929050565b6000806000606084860312156112f257600080fd5b60006113008682870161107d565b93505060206113118682870161107d565b925050604061132286828701611023565b9150509250925092565b61133581611745565b82525050565b61134481611757565b82525050565b611353816117b4565b82525050565b6000611366602c836116bb565b91507f4465666942726964676550726f78793a204153594e435f4e4f4e5a45524f5f4f60008301527f55545055545f56414c55455300000000000000000000000000000000000000006020830152604082019050919050565b60006113cc601a836116bb565b91507f4465666942726964676550726f78793a204e4f545f52454144590000000000006000830152602082019050919050565b600061140c6026836116bb565b91507f4465666942726964676550726f78793a20494e434f52524543545f415353455460008301527f5f56414c554500000000000000000000000000000000000000000000000000006020830152604082019050919050565b6060820161147660008301836116fa565b61148360008501826114bf565b5061149160208301836116cc565b61149e602085018261132c565b506114ac60408301836116e3565b6114b9604085018261134a565b50505050565b6114c881611796565b82525050565b6114d781611796565b82525050565b6114e6816117a0565b82525050565b6000602082019050611501600083018461133b565b92915050565b6000602082019050818103600083015261152081611359565b9050919050565b60006020820190508181036000830152611540816113bf565b9050919050565b60006020820190508181036000830152611560816113ff565b9050919050565b60006101e08201905061157d600083018a611465565b61158a6060830189611465565b61159760c0830188611465565b6115a5610120830187611465565b6115b36101808301866114ce565b6115c16101a08301856114ce565b6115cf6101c08301846114dd565b98975050505050505050565b60006101c0820190506115f16000830189611465565b6115fe6060830188611465565b61160b60c0830187611465565b611619610120830186611465565b6116276101808301856114ce565b6116356101a08301846114dd565b979650505050505050565b600060208201905061165560008301846114ce565b92915050565b600060408201905061167060008301856114ce565b61167d60208301846114ce565b9392505050565b600060608201905061169960008301866114ce565b6116a660208301856114ce565b6116b3604083018461133b565b949350505050565b600082825260208201905092915050565b60006116db602084018461100e565b905092915050565b60006116f26020840184611038565b905092915050565b60006117096020840184611068565b905092915050565b600061171c82611796565b915061172783611796565b92508282101561173a576117396117c6565b5b828203905092915050565b600061175082611776565b9050919050565b60008115159050919050565b600081905061177182611824565b919050565b600073ffffffffffffffffffffffffffffffffffffffff82169050919050565b6000819050919050565b600067ffffffffffffffff82169050919050565b60006117bf82611763565b9050919050565b7f4e487b7100000000000000000000000000000000000000000000000000000000600052601160045260246000fd5b7f4e487b7100000000000000000000000000000000000000000000000000000000600052602160045260246000fd5b60048110611835576118346117f5565b5b50565b61184181611745565b811461184c57600080fd5b50565b61185881611757565b811461186357600080fd5b50565b6004811061187357600080fd5b50565b61187f81611796565b811461188a57600080fd5b5056fea264697066735822122006dc12a549ce80229c2bcad3872b32f538cadaccfcc8a6a652afefbfbd47f97864736f6c63430008000033",
  "linkReferences": {},
  "deployedLinkReferences": {}
}